:020000040800F2
:10000000D0BE0020990100089F0C0008CF0B00080B
:100010009D0C0008650200082D100008000000007B
:10002000000000000000000000000000E10E0008D9
:100030006702000800000000050D0008C90F000855
:10004000B3010008B3010008B3010008B3010008C0
:10005000B3010008B3010008B3010008B3010008B0
:10006000B3010008B3010008B3010008B3010008A0
:10007000B3010008B3010008B3010008B301000890
:10008000B3010008B3010008B3010008B301000880
:10009000B3010008B3010008B3010008B301000870
:1000A000B3010008B3010008B3010008B301000860
:1000B000B3010008B3010008B3010008B301000850
:1000C000B3010008B3010008B3010008B301000840
:1000D000B3010008B3010008B3010008B301000830
:1000E000510A0008B3010008B3010008B301000879
:1000F000B3010008B3010008B3010008B301000810
:10010000B3010008B3010008B3010008B3010008FF
:10011000B3010008B3010008B3010008B3010008EF
:10012000B3010008B3010008B3010008B3010008DF
:10013000B3010008B3010008B3010008B3010008CF
:10014000B3010008B3010008B3010008B3010008BF
:10015000B3010008B3010008B3010008B3010008AF
:10016000B3010008B3010008B3010008B30100089F
:10017000B3010008B3010008B3010008B30100088F
:10018000B3010008DFF80CD000F05AF8004800472F
:1001900075250008D0BE0020064880470648004765
:1001A000FEE7FEE7FEE7FEE7FEE7FEE7FEE7FEE727
:1001B000FEE7FEE7CD0F00088501000840EA0103D5
:1001C0009B0703D009E008C9121F08C0042AFAD20D
:1001D00003E011F8013B00F8013B521EF9D27047D1
:1001E000D2B201E000F8012B491EFBD27047002279
:1001F000F6E710B513460A4604461946FFF7F0FF26
:10020000204610BD421C10F8011B0029FBD1801AAA
:10021000704730B50B46014600202022012409E03A
:1002200021FA02F59D4205D303FA02F5491B04FAAF
:1002300002F52844151EA2F10102F1DC30BD0000D8
:10024000064C074D06E0E06840F0010394E8070023
:1002500098471034AC42F6D3FFF798FFBC4E000825
:10026000DC4E0008FEE770471FB500F0DFF800F035
:1002700091FA042000F09CFE684600F069FD0198A8
:100280006421B0FBF1F0B0F1807F0CD220F07F410F
:100290004FF0E020491E4161034AF0211170002116
:1002A0008161072101611FBD23ED00E0174A5068FD
:1002B00003681146002B896808DB0368DB0505D558
:1002C00048608868401C8860012070470368002BE4
:1002D0000CDB03689B0509D50368DB0506D40860C1
:1002E000002048600120886050680BE00368002B04
:1002F0000ADB03689B0507D40368DB0504D48B681D
:100300005B1C8B60C068506000207047CC000020F0
:1003100005490028886902D040F0020001E020F081
:10032000020088617047000000900240F0B5124E54
:1003300000244FF0004744F2F45C551E706013E057
:1003400000EB44131F60C4EBC41E0EEB4E0E01EB1A
:100350008E0EC3E901CEAC4204D203F1200EC3F8E5
:100360000CE000E0D860641C9442E9D30349C86003
:100370000348B060F0BD0000CC00002000900240B7
:10038000C4BA002005490028886902D040F4005012
:1003900001E020F4005088617047000000900240A6
:1003A000F0B50F4C00234FF48016551E206011E06D
:1003B00000EB43142660C3EBC31707EB470701EBC1
:1003C0008707A760AB4203D204F12007E76000E093
:1003D000E0605B1C9342EBD302490861F0BD000072
:1003E000CC0000200090024002680A43026070477F
:1003F00010B501214C06204600F092FC2046BDE8D5
:100400001040002100F08CBC01B581B00198009033
:10041000002801D0401EFAE70CBD000002488169A7
:1004200041F4801181617047009002401CB50121A8
:10043000072000F069FC0121880300F07DFC4FF4E7
:100440008070009003208DF8050002208DF80400D4
:1004500000208DF80600294C8DF8070069462046DB
:1004600000F054FB61024FF4C00000F0BBFC01201F
:1004700000F038FD862000906946204600F046FBDB
:100480000B220121204600F092FB0B220221204684
:1004900000F08DFB0B220721204600F088FB4FF473
:1004A0006050174C00906946204600F02FFB0B224D
:1004B0001146204600F07BFB0B220C21204600F069
:1004C00076FB0B220D21204600F071FB32200D4CF3
:1004D00000906946204600F019FB0B2201212046BE
:1004E00000F065FB0B220421204600F060FB0B228C
:1004F0000521204600F05BFB1CBD0000000002400F
:100500000004024000080240034900200968C907AE
:1005100000D00120704700000090024030B50A4B27
:1005200059680A689C68C2F30D42121FA568012D24
:1005300002D92468A46800E08C68CD685D60026020
:10054000C0E9014130BD0000CC0000202DE9F041A0
:1005500088B000277C4D0097044605972869884697
:1005600020F01C0601A800F0F3FB78490298784AB5
:100570000144914202D246F008060EE07549764ADF
:100580000144914202D246F00C0606E07349084449
:100590007349884201D346F004062E614FF40042AD
:1005A0000021404600F02AFA00282DD06D48FFF7C0
:1005B0002BFF2068B0B36C4E05980121401C0590BC
:1005C000404600F091F9400702D40598B042F3D3B9
:1005D0000598B04217D04FF480520021404605974D
:1005E00000F00CFA00280FD005980121401C05905E
:1005F000404600F079F9800602D40598B042F3D362
:100600000598B04203D1002008B0BDE8F081102168
:100610004046059700F068F9410704D54FF40061A2
:10062000216201E008E02762800701D5676113E0DD
:100630004FF4804060610FE0206A6169C00840EAC1
:10064000510082B20021404600F0D8F90028DBD0EA
:100650006FF07F40FFF7D8FE296844480140D4E995
:1006600001021043E26854F8103F1A4310436268D5
:100670001043A2681043E268104322691043626984
:100680001043A2691043E2691043226A1043626A70
:100690001043084328602834D4E900010843D4E912
:1006A0000212114308432169084361690843A169A3
:1006B0000843E16908436860206AA860606AE860EE
:1006C000A9694FF641700140D4E90B021043238D14
:1006D000626B42EA03421043A26B1043E26B104389
:1006E0000843A861D4E910010843E86120498A69F8
:1006F00020480240D4E912031843D4E914352B43AF
:100700001843A36D1843E36D1843236E1843636EBB
:100710001843A36E184310438861D4E91B021043A9
:10072000626F54F8783F1A431043626840EA8200CF
:10073000A268104340F400000860086840F08000A0
:100740000860012060E700000080024000D3CEFE78
:10075000C0E1E40040F1E9FD40787D0100796CFCE6
:10076000005A6202FFFF0F00FFFF04000F8120FF0D
:1007700000900240233FDEF8054B8A88184402644B
:100780000A78D1F8011042EA012141647047000063
:100790000080024000B5AFB001214FF0606000F072
:1007A000B3FAFFF725FE00F0CBF800BFFFF7ACFE71
:1007B0000128FBD0684600F0DCF801200090002002
:1007C0004FF40071CDE90A10090407901190CDE9AA
:1007D00020010E90149013900A11159025902690E8
:1007E00023920420CDE9280180032A9080012B90D8
:1007F00040122C9040002E9001216846FFF7A6FE83
:100800002FB000BD05490028086802D040F0040060
:1008100001E020F004000860704700000080024002
:1008200005490028086802D040F0080001E020F0E7
:10083000080008607047000000800240F0B5284DB5
:1008400000242A681168002901DA0020F0BD40F276
:10085000F453984213D9B0FBF3F103FB110606B130
:10086000491C01290BD0C1F10106C6EBC61606EBE7
:10087000460600EB86004F1EC0F30C0023E0116813
:1008800041F040511160C0F30C005060106840F01E
:1008900000401060D068286018E034B92E68D6F89F
:1008A00000C04CF0805CC6F800C05360BC4204D16C
:1008B000166846F0005616605060166846F000460E
:1008C0001660D268641C8C42E7D32A6005484169EF
:1008D000490703D504214161002141600120F0BD99
:1008E000CC0000200090024018B500220092124A6D
:1008F00013694FF6FF7403F01C0304EAC020184389
:100900004FF4F86303EA8111014321F0020040F043
:100910000100106109480099491C00911169C9073B
:1009200002D000998142F6D30099814201D1002082
:1009300018BD506980B218BD00800240FFFF04005E
:100940000248016841F001010160704700900240D7
:1009500000B50120FFF764FFFFF760FD0120FFF7FE
:1009600051FF0120FFF70EFD01205DF804EBFFF7BA
:10097000CFBC012101600021416081604FF48042C1
:10098000C160C0E90412D2108161C0E9071241625E
:100990008162C1620163416340228163C0E90F1239
:1009A0002022C0E91121C164016541658165802271
:1009B000C165C0E918128166C16601674167D2044A
:1009C0008167C0E91F125210C0E921211311C0E94B
:1009D0002331C0F89410C0F89810C0F89C10C0E9FA
:1009E00028125212C0F8A8209201C0F8AC2052126E
:1009F000C0E92C21C0F8B8107047000038B50023BA
:100A00000093114B1C694FF6FF7504F01C0405EAB6
:100A1000C02020434FF4F86404EA8111014341F0FF
:100A200003005A61186109480099491C009119692D
:100A3000C90702D000998142F6D30099814201D1C1
:100A4000002038BD012038BD00800240FFFF0400B7
:100A500010B54FF40054204600F010F8002806D0DE
:100A600003F09AFF2046BDE8104000F001B810BD29
:100A70000149086070470000143C0140064A0146E5
:100A800000201268044B0A4014331B680B4202D04A
:100A9000002A00D001207047003C014030B51A49BF
:100AA0008379026853B30B6893430B600A1D136884
:100AB0000468A343136002790A441368046823435B
:100AC0001360114A083213680468A3431360131DAE
:100AD0001C680568AC431C604479102C05D0214487
:100AE0000A68006802430A6030BD11680468214347
:100AF0001160196800680143196030BD007908442D
:100B000001689143016030BD003C0140F0B5002315
:100B1000012403270D6804FA03F21540954242D1DF
:100B2000D0F800C05E0007FA06F52CEA050CC0F804
:100B300000C091F804C0D0F800E00CFA06FC4CEAC2
:100B40000E0CC0F800C091F804C0BCF1010F02D037
:100B5000BCF1020F1FD1D0F808C02CEA050CC0F878
:100B600008C091F805C0D0F808E00CFA06FC4CEA81
:100B70000E0CC0F808C0D0F804C02CEA020CC0F873
:100B800004C0426891F806C00CFA03FC1FFA8CFC02
:100B900042EA0C024260C268AA43C260CA79C568D0
:100BA000B2402A43C2605B1C102BB3D3F0BD4B078D
:100BB000DB0E9A40C90810B500EB8100016A0F24D2
:100BC0009C40A1430162016A1143016210BDFEE72E
:100BD00010B5002000F010F9012000F00DF90220FE
:100BE00000F00AF9032000F007F90121BDE81040E8
:100BF000084600F025B9000000B587B001F0EEFC12
:100C000001F0C8FD104800F034FF03906FF0FF00C2
:100C100000F02FFF04900C48663800F02AFF059082
:100C20000A4A0B4900208DE8070005AB04AA03A976
:100C3000084801F0EBFD074801F022FE054801F0ED
:100C400061FE07B000BD00006701A8C05D18000884
:100C5000B11800080401002031B50C4C009821683F
:100C6000401AFA2803D30098206003F0CFFD0098C3
:100C70006168401A41F28831884205D3009860606B
:100C8000BDE8384000F0C0BD38BD000008000020BD
:100C9000014800F021BE000004010020FEE770477B
:100CA00070B50F21C478027801234FF0E026E4B13B
:100CB000124C246804F4E064C4F5E064C4F307242F
:100CC000C4F10405E1404478AC4085780D402543EB
:100CD0000B4C29011155007800F01F018B40400991
:100CE00006EB8000C0F8003170BD02F01F008340A9
:100CF000500906EB8000C0F8803170BD0CED00E0BB
:100D000000E400E070470000044A0029116801D0A7
:100D1000014300E081431160704700003038024019
:100D2000044A0029116801D0014300E081431160A9
:100D30007047000010380240044A0029116801D0B1
:100D4000014300E0814311607047000044380240D5
:100D500070B5204A1168204C11F00C0104D01F4ED0
:100D6000042903D0082903D004601BE0066019E0C1
:100D70001849091F0B68C3F380550B6803F03F0344
:100D800015B1B6FBF3F301E0B4FBF3F30C680968AB
:100D9000C4F388146343C1F30141491C4900B3FB08
:100DA000F1F1016011680F2303EA11110C4B5C5C37
:100DB0000168E14041601468072505EA94241C5D40
:100DC00021FA04F48460126805EA52329A5CD14038
:100DD000C16070BD083802400024F40040787D01F5
:100DE000B9000020034A1368084323F0EC6318435A
:100DF00010607047083802401CB504460E480121B7
:100E000050F82400FFF780FF0B480021083830F825
:100E10001400009001208DF804008DF806108DF864
:100E2000070002208DF805000448694650F82400A8
:100E3000FFF76CFE1CBD0000384E0008E8000020E3
:100E400070B5044624480E4686B050F824000121AF
:100E5000FFF75AFF01218803FFF76EFF1E480025A8
:100E60008DF8105024388DF8135030F8140003908A
:100E70001A4803A950F82400FFF748FE012E28D194
:100E800015483938015DC01E005D00F031F8124888
:100E90001E3830F8140000908DF804500CB10C206E
:100EA00000E008208DF8050001258DF80650684601
:100EB000FFF7F4FD08483638005D8DF808000F2074
:100EC0008DF809008DF80A008DF80B5002A8FFF785
:100ED000E7FE06B070BD0000484E0008F800002094
:100EE000704700000149086070470000DC0027429D
:100EF00010B58A0721F003040649130F21440F227D
:100F00000C689A4094430C600A68984002430A6057
:100F100010BD0000083801400CB5002121480191A6
:100F20000091026842F4803202604FF4A0630268CC
:100F300002F400320092019A521C0192009A12B9F6
:100F4000019A9A42F3D10268920329D501210091B6
:100F5000144908310A680A600A6842F400420A60CB
:100F60000A6842F4A0520A600B1F0F4A1A60026816
:100F700042F08072026002689201FCD50B4A40F296
:100F800003701060086820F003000860086840F0F3
:100F9000020008600868C0F381000228FAD10CBD85
:100FA00000910CBD0038024004104105003C024095
:100FB0004FF0E0210428086903D020F00400086104
:100FC000704740F00400FAE700F028B80F4810B569
:100FD000016841F0010101600C4A002108321160F2
:100FE00002680B4B1A400260031D0A4A1A6002682D
:100FF00022F48022026005480C300160FFF78CFF6C
:1010000005494FF00060086010BD00000038024044
:10101000FFFFF6FE1030002408ED00E002480168F2
:101020000A3101607047000000000020FEE7000068
:101030000FB4084B10B504A902AA039800F01CF8DD
:10104000044602A9002000F0C1F8204610BC5DF85B
:1010500014FB0000CD11000802E008C8121F08C1EF
:10106000002AFAD170477047002001E001C1121F29
:10107000002AFBD1704700002DE9FF4F89B09B4645
:101080000446002597E0252833D10027641C4E49EB
:10109000B84601222378203B02FA03F0084202D02E
:1010A0000743641CF6E720782E2819D114F8010FA5
:1010B00047F004072A280ED06FF02F022078A0F105
:1010C000300109290CD808EB880102EB410100EB43
:1010D0000108641CF2E70A98641C50F8048B0A901B
:1010E000207800286BD0642808D0692806D075289D
:1010F00020D05A460B9990476D1C5BE00A994FF03F
:101100000A0901C90A91002804DAC0F100004FF071
:101110002D0102E0390504D52B218DF82010012185
:1011200003E0F90704D02021F7E78A4608AE0EE075
:101130000021FAE70A994FF00A0901C90A91F7E775
:101140004946FFF766F801F1300106F8011D002855
:10115000F6D1ADEB060000F12009780701D44FF07D
:101160000108C84502DDA8EB090000E00020804628
:10117000002706E008A85A46C05D0B9990476D1CF1
:101180007F1C5745F6DB04E030205A460B99904708
:101190006D1CB8F10001A8F10108F5DC05E016F8B6
:1011A000010B5A460B9990476D1CB9F10001A9F14A
:1011B0000109F4DC641C207800287FF464AF0DB0D2
:1011C0002846BDE8F08F0000092801000A68531C7A
:1011D0000B601070704700280BD0026A002A08D0FC
:1011E000937C082B05D10968926A914201D100F0E5
:1011F00083B8704770B506000DD0346A74B1002210
:101200004FF49A71104601F08FFB606148B1E27CA7
:1012100037494AB10BE06FF0090070BD6FF008006C
:1012200070BD4FF0FF3070BD0A68521C0A6009683B
:10123000216041680120A1610870A1690025487002
:10124000A16906208870A069C570206800F011FCB3
:10125000A1694860A0690581A0694581A069C56050
:10126000A07C0A2803D0052801D0042802D1A16956
:101270007068C860A0695FF000010561A069456100
:10128000A069856196F82600884203D9701890F805
:10129000270000E0002001F11C02A369491C89B26B
:1012A00098541029EED3002000F12C01A269401CB3
:1012B00080B255544028F7D35FF0000000F16C0174
:1012C000A269401C80B255548028F7D3094800F029
:1012D000D0FBA169C1F8EC00A5830020A26900F150
:1012E000F0015054401C80B24428F7D3002070BD58
:1012F0001400002063538263F8B5046A06460C218B
:10130000204600F096F83046FFF774FF050027D11D
:1013100001223521204600F03BF80421204600F050
:1013200047F804223221204600F032F8A06A01F08A
:10133000F7FA0146204600F043F8204600F061F835
:10134000A08BF03081B2606901F06AFC0096432303
:10135000074A6169606803F085FC304600F00AF8CE
:10136000E07C401CE0741420E0832846F8BD0000B7
:10137000F44D000810B5002809D0046A002C06D0EE
:10138000606908B101F0FAFB00206061A06110BD46
:1013900010B5838B84691C445B1C838384F8F01034
:1013A000818B83690B44491C818383F8F02010BD35
:1013B000828B83691344521C828383F8F010704738
:1013C00010B5828B84690B0E1444521C828384F8FE
:1013D000F030828B84690B0C1444521C828384F895
:1013E000F030828B84690B0A1444521C828384F887
:1013F000F030828B83691344521C828383F8F0108F
:1014000010BD002814D0818B8369FF220B44491C36
:10141000818383F8F020002205E083690B44491C96
:10142000818383F8F020818B4429F6D38B07F4D194
:101430007047827C8A4202D081740021C174704757
:101440002DE9F84391468846060066D0B9F80A00AF
:101450002A285FD3D9F80450012005F10E0400F0CA
:101460000AFB2188884255D140F2046000F003FB5A
:10147000A18888424ED14FF4006000F0FCFA6188E8
:10148000884247D140F6060000F0F5FAA989884263
:1014900040D1D4F80E000090A169706820B181425B
:1014A00002D101273B4601E000273B4604F1080238
:1014B0006946304603F02EFCE08800F0DCFA012893
:1014C00002D0022826D121E0FFB1022000F0D3FA99
:1014D000E080D4F80E00A0617068C4F80E00062108
:1014E000491E11F0FF0104EB0100027A82746A5474
:1014F00018F80120027205EB010218F80100907142
:10150000EED1B26949463046904703E0694630461D
:10151000FFF761FE484601F031FBBDE8F88330B4C7
:10152000002810D04A6883684568D2F81A401D40E8
:101530001C4002F10E01AC4205D10023921D30BCCB
:101540000C3103F0E7BB30BC704700002DE9FC41D3
:101550000E46054614460E21304601F031FB18B107
:101560006FF00100BDE8FC812946204600F074FBC5
:1015700008B1234B28E04FF0704001F0D1F9216809
:1015800000EA01074FF0604001F0CAF9874222D11A
:1015900001208DF8000000208DF801005E208DF8FC
:1015A0000200206801F0BCF9C0F306408DF803008A
:1015B000206801F0B5F9000A8DF80400206801F0F8
:1015C000AFF98DF805006B4605F127023146284634
:1015D00000F0FEF8C6E7A86821686A68014002408A
:1015E000914203D0E86838B105F10C043246214637
:1015F000284600F007F8B5E76FF00300B2E70000F7
:10160000F84D00082DE9F05F0D46824600F1270BEA
:1016100014464FF0FF385146284600F01DFB08BB2A
:101620004FF0704001F07CF9296800EA01064FF0A4
:10163000604001F075F9864214D09DB1286888B1E8
:101640000121284600F05CF900280DDBDFF8B0909E
:1016500000EB800609EB8607B87B38B1012807D07C
:1016600034B10BE06FF00900BDE8F09F0120B873C2
:101670002946504600F09AF8804604B3B87B4D46A0
:10168000022802D0012808D038E007F108035A46A2
:101690002146504600F09CF82FE02046017B0129AE
:1016A0000ED001890022032001F03EF9070025D069
:1016B000214601F0E7F958B1384601F05FFA1DE024
:1016C00000680028EAD12746204601F0D0FAAFB1E1
:1016D000062001F08BF80100EED00020C1E90007E0
:1016E00055F8260008B905E010460268002AFBD12B
:1016F000016001E045F82610002080464046B3E72F
:10170000347D00202DE9F05F9046894683461F46D0
:1017100000222A210320DDF82CA001F005F90600A3
:1017200040D075680D9805F10E0400F0A4F9E08032
:101730000620401E10F0FF0004EB00013A5C0A7224
:101740001AF800208A7418F80010295405EB0002DA
:1017500019F800109171ECD10A980068C4F80E00D5
:101760000C980068A061012000F085F920804FF4FA
:10177000006000F080F9608040F2046000F07BF9C6
:10178000A08040F6060000F076F9A881DBF818206A
:101790005846314690470446304601F0EFF920465E
:1017A000BDE8F09F4FF0FF30FAE700001FB50123BE
:1017B000064C021DCDE90213CDE9002400F12703F8
:1017C0001946A21FFFF79EFF04B010BDFE4D000892
:1017D0002DE9F0414D680E4607460624641E14F0BC
:1017E000FF0405EB0401185D2855105D8871F5D1E3
:1017F0004FF4006000F03FF9A88131463846BA69DD
:10180000BDE8F041104700002DE9F0410025124CE1
:10181000A84600BF05EB850704EB8706F07B401C5C
:10182000C0B2F073B17B022902D0012903D00DE0D0
:10183000F02802D20AE0022808D354F8270018B191
:1018400000F008F944F8278086F80E806D1CEDB290
:101850000A2DDFD3BDE8F081347D002070B5044649
:1018600040680D46808900F006F9B0F5006F04D09D
:10187000A0F5006006380AD112E021462846FFF79D
:101880004EFE6FF00D01204601F09AF918B1204686
:1018900001F074F90AE02946204600F08BFA05E0D1
:1018A000224605F127012846FFF7CAFD002070BD3A
:1018B00010B5732180F82E10742180F82F10044980
:1018C00041610449816100F0A5FD002010BD0000C8
:1018D0004D1500080925000870B5054600F0D4FD37
:1018E000040009D02A6929469047050002D0204605
:1018F00001F044F9284670BD4FF0FF3070BD000084
:101900002DE9F35F4FF00A0A4FF00001DFF83CB118
:101910000400D14652460D460E4657460B4616D099
:101920004B4890F8008008EB880C0BEB8C0090F88B
:101930000EC0BCF1020F0AD1D4F800C04068844543
:1019400005D14FFA88F0BDE8FC9F0A2A07D1DFF8DD
:10195000FCE001EB810C0EEB8C00807B60B101EBB5
:10196000810B0EEB8B0090F80EC0BCF1010F05D07F
:10197000BCF1020F1AD02AE04AB228E02CB1D4F808
:1019800000C0D0F80480C44517D05EF82BC0C07BDF
:10199000BCF1000F04D0984219D34FB2034616E0B1
:1019A000A84214D34FFA81FA054610E04CB1D4F89E
:1019B00000C0D0F80480C44503D12548017048B266
:1019C000C1E7C07BB04202D34FFA81F90646491CF9
:1019D000C9B20A29B9D301994FF0FF304FF000087E
:1019E0000A2A05D08907AED40A2A06DAD5B21CE045
:1019F000C907A8D001998907A5D4B9F10A0F02DA5D
:101A000009F0FF0511E0BAF10A0F02DA0AF0FF054A
:101A10000BE00A2F97DAFDB20C4E05EB850756F85E
:101A2000270000F017F846F82780084805EB8502E4
:101A300000EB8200414680F80E800CB122684260C3
:101A4000C1730348057068B27DE70000347D002053
:101A5000B800002070B5044608E02546D5E90040EE
:101A600001F08CF82946062000F088FE002CF4D105
:101A700070BD00BA704740BA70470A46032100F0B3
:101A80008AB82DE9FE4F446805468A46208800F052
:101A900049FFC0F303204FEA8009C9F100018846DD
:101AA000284601F08DF8002870D1288904286DD3CC
:101AB00068680078082869D101264FF0704000F06E
:101AC0002FFF216900EA01074FF0604000F028FF76
:101AD000874200D10026514604F1100000F0BCF806
:101AE000002853D1002E51D0288908284ED32846EB
:101AF00000F08EF8E8BB2221284601F061F8D0B151
:101B00004946284601F05CF898BB2989002202204A
:101B100000F00AFF060039D0294600F0B3FF40BBB1
:101B200041463046746801F04BF810BB284601F07E
:101B300025F8354605E06FF02101284601F040F810
:101B4000B8B96868E1682269E26021610026067020
:101B50004680208900F0E6FEC0B240F47F40FFF7E7
:101B60008AFF208166814946284601F029F800B99C
:101B700000E00BE00121CDE90061FF230022CDF858
:101B800008A004F10C01284600F0F4F92846BDE84D
:101B9000FE4F00F0F3BF2DE9FC4791460E4680460C
:101BA00000222421012000F0BFFE050024D06C6833
:101BB000D8F804701C22267084F801900026A680B4
:101BC000E6806868D8F804100830FEF7F7FA6680F7
:101BD0006989204600F016F860800120CDE9006098
:101BE000FF2307F10C020021284600F0A9F928463E
:101BF000BDE8FC4700F0C2BFBDE8FC870A460B21E8
:101C0000FFF7C9BF10B500F097FCC04380B210BD0C
:101C100070B500242646054613E06989686800F01F
:101C20008BFC204481B201EB1044A87AC00707D096
:101C3000C6F10100C6B2E0B2C4F3072141EA0024B4
:101C40002D68002DE9D126B1E0B2C4F3072141EAA5
:101C50000024E04380B270BD0068421C12D088B1FD
:101C600091F82D2092070BD54A68824208D08968E6
:101C700000EA01030A40934202D10143491C01D00A
:101C800000207047012070472DE9F74F84B00222F1
:101C900005984FF014080021858C104600F044FE92
:101CA000070020D042487D813D8120F003047C6004
:101CB0000498142241682046FEF780FAE08800F07C
:101CC00031FEC0F30C0900F4005002900498008922
:101CD000143886B2143DE81705EB5070C0F3CF00FE
:101CE000CDE9000553E04FF0FF3007B0BDE8F08FBD
:101CF0000198864201DC012000E000205FEA000A32
:101D00000298C9F30C0545EA000547D0304680B279
:101D100083460246434604F11401049800F0FAFE9B
:101D200040441FFA80F82846FFF7A5FEE0800BF13B
:101D3000140080B2FFF79FFE6080002060811421B4
:101D40002046FFF75FFF6081BAF1000F05D006F172
:101D5000140081B2384600F063FF002211460220D1
:101D600000F0E2FD05001ED0394600F079FE05982E
:101D70002946069A43699847284600F0FFFEA6EBDD
:101D80000B00009986B209EB01001FFA80F9002EC2
:101D9000AED1384600F0F2FE0020A6E7009845F4E8
:101DA0000055C000B3E7384600F0E8FE9BE70000AE
:101DB000577700202DE9F05F446806468846208862
:101DC00000F0B0FD0421B1EB103F12D1208800F0EB
:101DD000A9FDC0F303204FF6FF7101EA8009608876
:101DE00000F0A0FD728901464A4502D3308988423D
:101DF00003D2304600F0C2FE62E0304600F010FF31
:101E0000DFF834A10127454604F1100B284600F005
:101E100021FD68B1281D0BD0686848B12169814255
:101E200004D029465846FFF717FF08B15DB117E007
:101E30001FB10027DAF8005000E02D68454500D1B9
:101E40002D68002DE2D1208900F06CFDC0B2112870
:101E500006D104EB0900408800F064FD44282DD031
:101E6000E06898B1414604F10C00FFF7F5FE002848
:101E7000BFD14FF0704000F053FDE16800EA010768
:101E80004FF0604000F04CFD8742B2D0002DB0D042
:101E900043F6FF70FFF7EFFDE188084205D03046BA
:101EA00000F0CEF806000BD07468244D4146304651
:101EB000C5E9018400F032FF28B138E04546E5E786
:101EC0000020BDE8F09F208900F02CFDC0B2012861
:101ED00013D006280CD01128414605D004F110007B
:101EE000FFF7BAFE70B11FE0304602F0A3FD1EE01E
:101EF0004146304601F034FA19E041463046FFF7DA
:101F0000C0FD14E04FF0704000F00AFD216900EAC6
:101F100001074FF0604000F003FD874204D002212A
:101F200030467460FFF7A9FD304600F027FE002020
:101F30006860A860C4E700002C000020A400002016
:101F40002DE9FE438146DDE90A541F4616468846C0
:101F5000104600F03BFA50B10095CDE901403B46F8
:101F600032464146484600F005F8BDE8FE836FF072
:101F70000300FAE72DE9F05F1F46DDE90BA5DDF868
:101F800028B05FEA02088946064641D0142130464F
:101F900000F016FE18B16FF00100BDE8F09F746804
:101FA000208900F0BFFC67F31F20FFF764FD20814C
:101FB00000F0B8FC20F0FF0040EA0A00FFF75BFDEC
:101FC0002081D8F8000020611FFA8BF040F48A408D
:101FD000FFF751FD20803089FFF74DFD174F6080DE
:101FE0004FF0000AA4F806A03888FFF744FDA0804F
:101FF0003888401C3880B9F1000F02D0D9F80000B1
:1020000010B9281D00D06868E060A4F80AA002E0BA
:10201000706800F11008A88C48B13189814206D956
:10202000424629463046BDE8F05FFFF72DBE4246E6
:10203000314628466B69BDE8F05F1847A4000020D0
:102040002DE9F14F4FF0000A00984568288800F00C
:1020500069FCC0F3032005287ED1E88800F062FC0B
:10206000C0044FEA1049688800F05CFC04462888E8
:1020700000F058FCC0F30320404204EB80001FFA3C
:1020800080F8009800F0F5FC514E0746308838443F
:102090000A2809D93946284600F062F900285BD0A1
:1020A000308838440A2857D84FF0000B74680DE088
:1020B0006069E968884207D1A0692969884203D12B
:1020C000A089A988884204D0A2462468002CEFD1B8
:1020D00006E02CB1E88800F025FCC00419D023E00C
:1020E000052000F083FB04000AD13946284600F0A1
:1020F00037F9B84266DB052000F078FB040061D0B8
:102100002021FEF774F80320E07770682060746087
:1021100004E0E08900F006FCC00405D01422294642
:1021200004F10800FEF74AF8308838443080E88827
:1021300000F0F8FB800406D4A07F40F00100A077F7
:1021400009EB0800A0832046009900F043F800281E
:1021500036D0A08B143000E034E0A08360681422F5
:1021600004F10801456828462F68FEF727F8A08B80
:10217000FFF781FC6880A5F806B0A5F80AB0142125
:102180002846FFF73FFD68816FF01309D4F80480FB
:1021900009E0494638467D6800F012FD3946404660
:1021A00000F04AFC2F68002FF3D15146204600F082
:1021B0008DF8404600F05DFC3188081A30804046BA
:1021C000BDE8F88F009800F0D9FC0020F8E7000087
:1021D000B00000202DE9F047D1F8049006460D46E6
:1021E00000244FF00108B9F8020000F09BFB0746FD
:1021F000B9F8000000F096FBC0F30320404207EB63
:102200008007B9F8060000F08DFBC004010C686877
:1022100000220260CA19818097B2C78073681EE0ED
:102220005A68B2F804C061450DD2036044B1B4F8F5
:1022300006C061453CD391888F4239D8256000E0C3
:10224000756073B11AE033D0D388994230D324B18A
:10225000E388634501D04FF0000813681446002B53
:10226000DED154B12560E1888288914206D0B17FE9
:102270004FF00008C90714D118E07560B17FC90795
:1022800014D0B8F1000F0CD071684968898831B951
:10229000016831B14968C0888A88904204D04FF003
:1022A00000084046BDE8F0870846F1E70020F9E75E
:1022B000284600F0DEFB014603480288511A0180DF
:1022C000284600F05BFCF1E7B0000020074B30B47B
:1022D0000A465C680168844201D1596000E01160DF
:1022E000014630BC052000F049BA0000B0000020D3
:1022F0002DE9F041446806468846606800258188DB
:1023000091B900687060142206F108016068FDF759
:1023100055FF01212046FFF771FC204600F0A9FB84
:102320000546204600F02AFC746809E060682746EC
:102330000468384600F09DFB0544384600F01EFC5A
:10234000002CF3D141463046FFF7C0FF0348018817
:10235000491B01802846BDE8F0810000B000002044
:102360002DE9F041184F8846064600240022114608
:10237000154678681AE04369D6F80CC0634509D160
:102380008369D6F810C0634504D18389B6F804C0C8
:10239000634507D06D1C22B1C37F92F81FC063450F
:1023A00000D80246036803B1014618460028E2D16E
:1023B0001AB11046FFF79CFF0444444501DA012D91
:1023C000D4DC2046BDE8F081B000002070B50546A1
:1023D0000E4804680DE0204600F03CFA40B1A068C9
:1023E0002968626801400240914201D1204670BDD7
:1023F0002468002CEFD1064C206820B100F02AFAA6
:1024000008B1206870BD002070BD00002C000020C5
:102410003000002070B50446062004F8260F022084
:1024200060700020A070E07020716071A071263C87
:1024300004F12701FEF7A0F940F2DC50A08432201D
:1024400084F82D0005220C490C48FDF7A9FF052250
:102450000B490C48FDF76AFF084D00244FF4400675
:1024600005EB44103146FDF7BFFF641C052CF7DB7C
:10247000BDE87040FEF76CBA009D00209C7E0020F5
:102480003C7F0020FC7D00202DE9FE4300266846AD
:10249000FEF744F8DDE901710098884681B2032215
:1024A000104600F041FA05000AD00446B9196289C5
:1024B0006068FDF783FE608924680644002CF5D12E
:1024C0000F4A10688168012901D9016800E041467E
:1024D00000204FF0004302E00B60C968401C146804
:1024E000A4688442F8D810680021816005484269D8
:1024F000120602D58022426181602846BDE8FE8333
:10250000D40000200090024070B50A4800250C4617
:102510000068866807E0628970196168FDF74EFE01
:10252000608924680544002CF5D1A8B2FEF786F92D
:10253000002070BDCC00002030B4002207E00378FA
:102540001C024378801C2343891E1A4489B2012946
:10255000F5D811B1007802EB002290B200EB1240E6
:10256000010C02D081B201EB104030BC80B2FFF709
:1025700082BA000000204FF6DC731A460221491C83
:102580009142FCD3401C2428F7D3FEF721FBFDF732
:102590006BFEFEF731FB054CFDF788FE08B1FEF738
:1025A00077FB2068FEF758FBF6E7000000000020EC
:1025B00000280FD008494A6890420BD38A6890429D
:1025C00008D2083800220271CA68904200D2C8605E
:1025D00000F07ABB704700001800002010B50A48D0
:1025E0000A4A20F003004FF420535060002103807A
:1025F0004180017100F52051012491600C710B8024
:102600004B801470D06010BD9F0100201800002086
:10261000F0B5002847D0C01C4FF6FC7100EA010459
:102620004FF4205C0C2C01D20C2401E064453FD80F
:10263000204AC4F52055D6685368F01A81B235E0B7
:102640005818077987BB07887F1A083FA7422CD301
:10265000058804F1140E6D1A083D0127754514D341
:102660000C440834A5B25C194FF0000E84F804E065
:10267000B0F800E0A4F800E06180058007712188CF
:10268000614503D09C1C0D5300E00771B04209D195
:10269000D2E902410D792DB1A14203D00988194434
:1026A000D160F7E70830F0BDFFE7595A8D42C7DC2B
:1026B0000020F8E7180000202DE9F04FC91C4FF664
:1026C000FC7211404FF420590C2901D20C2101E079
:1026D000494510D8284D6C68A0420ED3AA68904294
:1026E0000BD2A0F10802131B17889BB2FE1A083EFA
:1026F000B6B2B14203D94FF00000BDE8F08FFCD074
:10270000AA461D4D07EB040C4FF0000BEF689CF838
:1027100004806D68B8F1000F05F1020516D001F1D3
:10272000140CB445E9D8194408318EB2A119B94244
:1027300001D2CAF80C1081F804B014880C804B80C8
:10274000168009884945D8D04E53D6E71944083138
:10275000BCF8006089B2674502D16718CAF80C70EE
:102760000C4484F804B026806380118022884A4596
:10277000C3D05153C1E7000018000020002905D044
:10278000034A52F820300B6042F8201070470000D6
:10279000B0290020F0B50020401C80B20928FBD3EE
:1027A0001048104B20F0030200200F4D0746273B36
:1027B00005F1120443F82070002109E053F820606D
:1027C000166043F8202035F81060491C324489B265
:1027D00034F810608E42F1D8401C80B20928E9D349
:1027E000F0BD0000D7290020BC4D00080146092893
:1027F00001D300207047044A52F821000028F9D084
:10280000036842F821307047B02900202DE9F041DB
:10281000044606A8E0C800206060A060E06084F87C
:102820002D00C4E907500A4D287884F83000401C78
:1028300028702046276100F012F82046B04710B1FA
:102840000020BDE8F0816868206020466C60F8E7F1
:102850002800002090F82D0000F00100704770B5AE
:102860001D461646044600F015F83146204600F095
:1028700045F829462046BDE8704000F007B8000042
:1028800001498860704700002800002001B10968F4
:10289000C160704770B505460C4608686968884293
:1028A0001ED0144800680AE001686A68914205D1A8
:1028B0000121C66800F066FA304600E0C0680028D2
:1028C000F2D10D48006809E007D0016829B16A68B3
:1028D000914202D144B121680160C0680028F3D15F
:1028E0002CB12068686070BD4FF00001F4E74FF034
:1028F0000000F7E74C0000204800002001B1096803
:102900008160704790F82D10CA0708D141F001018D
:1029100080F82D10890602D5011DFEF747BF7047CC
:1029200000BA704740BA70472DE9F05F16460D4671
:10293000002730B1012805D0022804D003284DD14A
:1029400002E0142714370E374FF0010A4FF0000849
:10295000F6B3012E5ED0022E5CD0032E3ED10820AD
:10296000FFF744FF04003AD0E0191330267320F03B
:102970000300C4E90080FF1C27F00300C0F5FA70D3
:1029800041462581A84200DD284660815746A4F8CB
:102990000EA0A1462D1A4FF4FA7B884616E00820B7
:1029A000FFF724FFB8B1067380F80D80C0F80080EF
:1029B000A9B2C9F800000181594500D359464181A7
:1029C00000F110024260C7816D1A8146002D00E0BF
:1029D00007E0E4DC2AE0204600F0D0F80020BDE863
:1029E000F09F07F1130020F00301E81C20F0030022
:1029F000084480B2FFF70CFE0400F0D0E019133059
:102A000020F00300606025816581C4F8008084F8AF
:102A10000C800BE00720FFF7E9FE0400DFD0C4F8CC
:102A2000048025816581C4F800802673A4F80EA077
:102A300084F80D802046D2E710B500280FD0002979
:102A40000DD004E003890C892344038110460268F9
:102A5000002AF7D102890B891A440281016010BD56
:102A600010B50C46FFF7E8FF2046BDE8104000F027
:102A7000FEB8002102E0491C0068C9B20028FAD162
:102A8000084670472DE9F0474FF000070C46050057
:102A90003E4604D01CB128892189884203D26FF0B8
:102AA0000900BDE8F0876FF0080968896189C01BDB
:102AB000891B884201DB88B200E080B280466068F2
:102AC0004246811968683844FDF778FB07EB080037
:102AD00087B206EB080086B26889B84201D12D683A
:102AE00000276089B04201D8246800262CB1608993
:102AF0002189884201D1206830B93DB1688929898E
:102B0000884203D1286808B14846CAE7002CCCD1D6
:102B10000020C6E72DE9F047164689464FF0000829
:102B2000002806D0B9F1000F02D00027044620E0AB
:102B30000020BDE8F0872BB16089984202D8181AAE
:102B400083B215E06089C01A85B2B54200D9354616
:102B500060682A46C11809EB0700FDF72FFB08EB58
:102B600005001FFA80F8781987B2701B86B200231F
:102B700024680EB1002CDED14046DAE770B500289B
:102B800015D00024C189491E0904090CC1810DD149
:102B9000017B056803290BD001290CD002290AD03A
:102BA000FFF706FD641CE4B22800EBD1204670BD9F
:102BB0000146082001E001460720FFF7DFFDF1E7AD
:102BC00010B541B138B1002907DA4A4293B24289BF
:102BD0009A4223D302E0002010BD8BB2027B4468EE
:102BE00032B1032A04D0022A0AD0012A08D015E003
:102BF000621A00F1100342609A4208D244600DE06C
:102C000000290BDA42899A4208D3621A426042894B
:102C10000A444281028911440181DCE7012010BD90
:102C200070B502898A4221D98A1A0D46044605E008
:102C3000281A85B220891044208124686089A8421E
:102C4000F6D3207B50B96089A84207D0A088001B2A
:102C5000284481B22046FFF72FFD04466581258177
:102C6000206808B1FFF78AFF0020206070BD0028AF
:102C700002D0C189491CC18170472DE9F04100276C
:102C800088461446002807D0B8F1000F1AD00189F1
:102C9000A14203D26FF00900BDE8F08105460FE0C4
:102CA00068892646B04200D2064608EB0701324644
:102CB0006868FDF783FAA01B84B2B8192D6887B243
:102CC000002CEDD10020E7E730B5134903884A68AE
:102CD0001344941C98420DD01D795DB98D68AB42A8
:102CE00008D0CD689D4200D1C8601D8805801B8832
:102CF000851A1D534388134483420BD01D79002D40
:102D000008D1CD68854200D1CB6001881980008848
:102D1000991A015330BD0000180000202DE9F0473A
:102D20004668824600273089FFF7FCFDDFF85090A7
:102D300000F0FF080025D9F800401CE0217C414547
:102D400016D1D4F814C0BCF1000F11D006F10C0359
:102D500052462146A069E04750B14FF0000A0127D2
:102D600035B1E068E860D9F80010E160C9F80040CA
:102D70002546E4680FB9002CE0D13846BDE8F0875D
:102D8000340000202DE9FF5F0446007C8B460A28B2
:102D900032D0D4F858A0D4F82490BCB32068029064
:102DA000201D00D060680390278B268C214619488F
:102DB000D4F81480D4F8905000F0B0FEA06F08B1A1
:102DC00001F094FB606F08B101F090FB21460220F6
:102DD000FFF7D4FC1DB16FF004014046A847BBF1DA
:102DE000000F07D0CDE9007603AB02AA4946504652
:102DF00001F01EFBBDE8FF9F06482146001D00F0C4
:102E00008DFE21460220FFF7B9FCF3E7FFE7002023
:102E10000290C7E74C0000202DE9F0410646022051
:102E2000FFF7E4FC364D040038D100210A46AB68B8
:102E3000A86906E0046B1C1B8C4201D321460246A4
:102E4000C0680028F6D11AB101211046FFF79AFF99
:102E50000220FFF7CBFC040020D17F2300210A468B
:102E6000D5F808C068690DE0447CB44209D89C429A
:102E700007D8076BACEB07078F4202D339460246EF
:102E80002346C0680028EFD11AB101211046FFF790
:102E900079FF0220FFF7AAFC04002ED0A021FDF745
:102EA000A6F94020607440F66830A4F86E0018342B
:102EB0000023A4F858302082608204F80E3CFF20E2
:102EC00004F80D0C4FF40670208406202086A3859C
:102ED000E085C01FE0830120608700F051FCE064C2
:102EE000206460632065A868A06123770548E066D8
:102EF0000548E06784F88530183C2046BDE8F0813D
:102F0000380000200143000800DD6D0070B5054663
:102F1000007C0526082841D2DFE800F00418232AA7
:102F20002A4040321E480024C168A94201D1C96824
:102F300006E0C16129B1C968A942FAD1E968C0694E
:102F4000C1600020E8602946022007E01448002400
:102F50002946103000F0E2FD29460320FFF70EFC61
:102F60001AE00F4800242946143000F0D7FDEAE7A4
:102F70000121284601F0C7FA04000DD12E7407E0A4
:102F80000121284601F0BFFA040005D10920287468
:102F900015B1284600F0FCFB204670BD0024FBE77D
:102FA0003800002010B504460846FFF70FFA38B184
:102FB000808C28B1283880B2844200D22046044652
:102FC000204610BD2DE9FF4F8BB0064619999B4650
:102FD00042EA010050EA8B7191466FF009007DD002
:102FE000B9F1000F02D10C99002977D1B6F86E1013
:102FF0004846494506D200BF16F8220F40F080002F
:10300000307016E105460C9803901998C00701D05E
:10301000042100E000211998800701D50C2000E070
:10302000002008440690B06E0890B6F870A0BAF17F
:10303000040FE1D24FF00008CDF80880318F0698D8
:10304000081AA84200DB284680B200900420FFF74F
:10305000CDFB04005FD0002727606760B8F1000F48
:1030600023D00298046018980294C0071FD00699D4
:1030700000980022084481B21046FFF755FC6060BA
:103080000028E7D0FFF7F5FC50441FFA80FA0C98AF
:1030900038B16068009A4168069808440399FDF7C2
:1030A0008DF860684068A06024E0A046DBE700225D
:1030B00010460699FFF738FC60600028CAD0FFF779
:1030C000D8FC50441FFA80FAA5B1012203200099D0
:1030D000FFF72AFCD0B10AF1010100E0ABE01FFAD2
:1030E00081FA039941600399A16062680146104624
:1030F000FFF7A2FCBAF1040F0DD80098A0811421AB
:103100006068FFF75DFD002805D105E06068FFF706
:1031100035FD0020606080E0606840682061308B91
:10312000FEF7A9FC21690880308CFEF7A4FC216918
:1031300048800898FEF79DFC216948602069478215
:103140004FF6C070FEF797FC2169898900EA0107F4
:103150005846FEF790FC0743206987811998A073B1
:1031600020698089FFF7DEFB069900F03F0089089F
:10317000090301F5A0410843FEF77DFC2169888120
:1031800000980099281A050408982D0C0844089006
:103190000398084403907FF451AF756F002D7FD0E2
:1031A00000E0054628680028FBD1E5B3286980893E
:1031B000FFF7B8FB800700D00120A989401872D022
:1031C00028698089FFF7AEFB80076CD15FEA8B70BE
:1031D00002D0BBF1010F66D1A989B8F80C000844F0
:1031E000318F88425FD8A97B98F80E0081425AD16E
:1031F00028694068FFF794FBA9894718D8F81000A0
:103200004068FFF78DFB87424DD10699D8F804003E
:1032100014314942FFF7D4FC80B116F8220F40F078
:103220008000307000E03BE05FEA080001D001F070
:103230005DF94FF0FF300FB0BDE8F08FD8F8040013
:10324000418951B902680021C8F804200160AAF13F
:1032500001011FFA81FAFFF791FC5FEACB7007D0FA
:103260000120FEF708FC29698A89104388810CE057
:10327000D8F804106868FFF7DFFBA989B8F80C00DC
:103280000844A881D8F800002860444502D1A889E4
:103290002C46009041460420FFF770FA05E002E05A
:1032A000C6F8748001E0C5F800805FEA8B7003D037
:1032B00009F101001FFA80F95FEACB7005D096F89A
:1032C000220040F0200086F8220056F8681F01EB2B
:1032D00009003060F188A1EB0900F080A6F808A091
:1032E0006CB1009858B1206948B11898800706D48D
:1032F0000820FEF7C0FB21698A89104388810020DD
:1033000099E7000070B51548446923E0E26F7AB18F
:10331000D4F8845025B1002321466069A84704E011
:1033200000232146184600F0EBFF08B90020E067B3
:1033300094F82200C1070CD040F0020084F822006B
:10334000204600F025FA94F8220020F0030084F8CB
:103350002200E468002CD9D170BD000038000020A4
:103360002DE9FC410646B54D40680C46A860008832
:10337000FFF7D8FA7168C0F3032001EB80006860A2
:10338000A8680088FFF7CEFAC0F30320800041420E
:103390003046FFF715FC00287ED1308914287BD3F6
:1033A000A86821461030FEF757FC0028F4D14FF0F2
:1033B0007040FFF7B5FAA968096900EA01044FF007
:1033C0006040FFF7ADFA844266D068688089FFF7F5
:1033D000A9FA000B800041423046FFF7F1FB0028BC
:1033E000DAD168680088FFF79DFA014668680180B5
:1033F0004088FFF797FA0146686841804068FFF708
:103400008FFA014668684160E9608068FFF788FAD2
:103410000146686881602961C089FFF783FA014627
:103420006868C1818089FFF77DFA00F03F0028704D
:103430003189800700D0012008448149688000203C
:103440000A6814463AE06B68278CB3F800C06745F9
:1034500032D1278B5B889F422ED1AB686768D3F847
:103460000CC0674528D127681B699F4224D118B139
:10347000E368C360E2600C6014B3DFF8C881002722
:10348000C8F800703189A8F80C107168C8E90161AA
:103490006968C8F8101000E05FE06F616F70E26F5C
:1034A000002A67D0D4F884C0BCF1000F5AD00023A2
:1034B00021466069E0475AE02046E468002CC2D10A
:1034C0006148006815E06968028C0B889A420FD148
:1034D000028B49888A420BD1A9684268CB689A421C
:1034E00006D1026809698A4202D101F059F934E033
:1034F000C0680028E7D1554B00211868024615E046
:1035000005D004681CB1AF683F69BC420CD16F683C
:10351000048B7F88BC4207D119B1C468CC60C260FB
:10352000186000F0B9F818E00146C0680028E7D13B
:1035300068688089FFF7F6F940070ED4686801884B
:103540004088CDE90001AB686988E8681A46014403
:103550000C331032286900F06BFF3046BDE8FC41A7
:10356000FFF70CBB00232146184600F0C9FE0028D7
:10357000F3D1E7672046AC6100F0FEFA401D52D05F
:103580006878010707D5D4F8902032B16FF00501B3
:103590006069904701E0C00608D52146284800F040
:1035A000BDFA21460220FFF7E9F83CE0B4F86C20B0
:1035B0002AB1D4F8803013B12146606998476A690E
:1035C0002E46C2B13078000703D5507B40F0010091
:1035D0005073D4F884C0BCF1000F04D000232146FE
:1035E0006069E04704E000232146184600F088FEA9
:1035F00008B17069E0677078800610D5D4F884C08F
:10360000BCF1000F05D000231A4621466069E0474F
:1036100005E000231A462146184600F071FE2046B8
:10362000B76100F0B5F8AF61D8F80400444600284F
:1036300002D0FFF7A3FA6760BDE8FC818400002098
:103640004C0000204077002050000020480000205F
:103650007CB50446002214210120FFF765F905001E
:1036600018D0A06D401EFEF704FA0346002229463A
:10367000204600F0BDF906210020CDE90001E37AE3
:10368000221D21462846FEF75BFC2846BDE87C400B
:10369000FFF774BA7CBD00007CB5374D064628782C
:1036A000C10610D5686801884088CDE900016988A5
:1036B000E868AB6801441A4628690C331032401C94
:1036C00000F0B6FE55E0800753D5707CFFF7A4FBF1
:1036D000040044D0A86810F1100100D001692160F5
:1036E000318B218310F10C013CD0C06860606A68A6
:1036F0001088208403202074E8680146401C606222
:10370000E062D089A4F85C00A4F85400491E216648
:1037100070696061F069E061308940F29911084098
:10372000208116480168E1600460204600F09EF99F
:10373000208F211DFFF736FC208700200121CDE9D5
:1037400000010246014612232046FFF73BFC05001C
:103750000AD000212046FFF715FB28467CBD4FF01C
:10376000FF307CBD0020C1E72046BDE87C4000F072
:103770000FB800207CBD0000840000204C00002019
:103780000249D1E901021044486070473800002026
:103790002DE9F047044668480068A04202D10020A5
:1037A000BDE8F087B4F85C10B4F85200814200D252
:1037B0000846814694F82200656F80070FD54DB109
:1037C00028694068FFF7ACF8E16C401AA989014408
:1037D000494504D92046BDE8F04700F09FBEA66FDA
:1037E0004FF0000A0EB97EE0064630680028FBD193
:1037F00079E028698089FFF795F8A06F78B194F88F
:10380000220010F0440F0AD1616F29B10A6832B961
:103810008989228F914202D210F0A00F71D02868BE
:103820006067207C02280CD01020FEF724F929695B
:103830008A891043888194F8220020F0030084F8DC
:1038400022002146284600F079F828694068FFF7F1
:1038500067F8074628698089FFF764F8800700D079
:103860000120A98938440844A16D091A00D5A06532
:1038700028698089FFF756F8800700D00120A989C0
:1038800040182CD0C5F800A0A06F68B12869406826
:10389000FFF746F8074630694068FFF741F8381AE5
:1038A0001AD504F1780003E0A56716E0D8F8000007
:1038B0008046006850B100694068FFF731F807465C
:1038C00028694068FFF72CF8381AEFD4D8F80000C0
:1038D0002860C8F8005005E035602E4602E0284612
:1038E00000F0F4FD656F0DB328694068FFF718F824
:1038F000E16C401AA989014449457FF67AAF01E09D
:10390000FFE79DB194F89C0080B928694068FFF7F3
:1039100007F8E16C401AA9890844B4F85C108842A1
:1039200004D90120C4F898A084F89C0014F8220F50
:1039300020F08000207032E79C0000207CB5054616
:103940000C46486AFEF795F829698860608DFEF795
:1039500092F82969C881618D606A0844E0622E6925
:10396000A87B1436C00703D01F48FEF782F83060EA
:103970000CB1206840B9201DFEF728FD002831D089
:10398000011D08D040682060B4F936004FF00006F1
:10399000401C02D002E00020F5E7E686E06B38B973
:1039A00012480068E06328694068FEF7B9FF2064A8
:1039B0006968288A8A88801A4A89121A4A8169683D
:1039C0000A89101A088169682869221D48602869D7
:1039D00006210682A07ACDE90001E37A21466868D3
:1039E000FEF7AEFA7CBD0000B405040240000020E2
:1039F0002DE9F04105461F461646008B4C68FEF740
:103A00003AF82080288CFEF736F860806760686A94
:103A1000FEF72FF8A0604FF6C070FEF72CF8A189D2
:103A200000EA01071020FEF726F80743A781688DFA
:103A3000FEF721F8E08100276782A089FEF772FF78
:103A4000F11706EB91718910090300F03F0001F5B1
:103A5000A041084380B2FEF70EF8A0812782698D4D
:103A6000686A0844E8622046BDE8F08170B51E4EE1
:103A70000546706800F114048089FEF753FF0521A4
:103A8000B1EB103F1ED270688089FEF74BFF6FF0DC
:103A9000040101EB1030090C01EA8000002140F222
:103AA000B4520DE0635C002B0CD0012B0BD0022B29
:103AB00004EB010309D05B78002B03D0194489B2D1
:103AC0008142EFD370BD491CF9E75E78042EF9D12D
:103AD000091D8142F6D85B885BBA934200D803B9CE
:103AE00013462B87EBE700008400002070B50446E6
:103AF000007C002811D00A280FD001280DD0E06FDB
:103B0000002510B1FFF73AF8E567606F00F0EEFCB2
:103B1000A06F00F0EBFC6567A56770BD70B50C4643
:103B20000168A14202D1C96801600BE0114806E0BA
:103B3000C968A14203D1C069E168C16002E0C16106
:103B40000029F5D100252046E560FFF7CFFF207C56
:103B50000A280CD001280AD094F82200C10706D008
:103B600040F0020084F822002046FFF711FE257481
:103B700070BD0000380000202DE9FC5FCD4D0446EB
:103B8000287841071DD5207C022815D0616AE86895
:103B9000421A15D4228D1144401A002810DC68788E
:103BA00040F00800687014F8220F20F00100207027
:103BB0006FF00500BDE8FC9FA06D29698842EED03A
:103BC00075E180070ED5207C02280BD0032809D090
:103BD00094F8220040F0020084F822002046FFF70B
:103BE000D7FD64E1B4484FF0000A0068206384F810
:103BF0009DA02046FFF73AFF207CDFF8C082801EA0
:103C0000AF4FB04E4FF0040B4FF00A090828D7D23F
:103C1000DFE800F00468BFC3F0BFEFEE2878C1060C
:103C2000CED580074ED5A06F00694068FEF778FEBC
:103C30002A69401C904242D1B4F86E00401CA4F89E
:103C40006E00E8680146401C6062E264E0626868F9
:103C5000491EC089A4F85C00216684F810B0208F4A
:103C6000211DFFF79FF900EB80014FF6FF722087BF
:103C700002EA4101A4F85410B4F85210012900D10D
:103C80004000A4F85200B4F87000401EA4F8700080
:103C9000A06F0168A16771B1A4F836A084F84AA0AA
:103CA00000F014FCD4F88830002B91D0002221467B
:103CB000606998478CE74FF0FF31E186F0E728789C
:103CC000C0068ED5686801884088CDE90001AB68E0
:103CD0006988E8681A46014403F10C0302F11002F6
:103CE000286948E02878C10648D5E16C2869A0EB2E
:103CF0000101491E33D4A16D411A00292FDC84F83B
:103D000010B0E3695BB1002221466069984730B189
:103D100001212046FFF736F86FF004004AE7B4F8B7
:103D20005260204600F0D0F8B4F86C0010B1401E8C
:103D3000A4F86C00208F012E01D14FEA4000A4F8B6
:103D400052006878800618D594F8220040F00200EE
:103D500084F822002046FFF71BFD07205DE069681C
:103D60000A884988CDE900126A88E968AB6811447D
:103D70001A460C33103200F05BFB98E0800707D541
:103D8000606AE968401E884202D1204600F0E8FAE5
:103D90008DE0204600F098F8D3E7204600F094F834
:103DA00068788006002828784FEAC0602EDA00285C
:103DB00021DAA06D296988421DD194F8220040F0D3
:103DC000020084F822002046FFF7E2FC2046FFF7BD
:103DD0008DFE3868A04202D1C068386051E0306082
:103DE000C0B3C068A042FAD13168E068C86048E05A
:103DF0004FE030E013E094F8220040F0020084F835
:103E000022002046FFF7C4FC082006E000284EDA16
:103E1000A06D296988424AD10620207447E02046D7
:103E200000F052F86878800641D594F8220040F0FE
:103E3000020084F822002046FFF7AAFC2046FFF784
:103E400055FE3868A042C7D0306018B1C068A042A3
:103E5000FAD1C9E715E0204600F036F82878C00608
:103E600025D5A06D2969884221D12046FFF73EFE65
:103E70003868A042B0D0306018B1C068A042FAD112
:103E8000B2E784F81090D8F80010E160C8F800405C
:103E90000DE0204600F018F82878C00607D5A06D80
:103EA0002969884203D1687840F0100068700020CA
:103EB00080E6000084000020400000205000002028
:103EC0004C000020540000202DE9F041F94D04463B
:103ED0004FF000062878C0067ED5B4F85C30616EDD
:103EE000276EE86803EB0102B7EB000C0BD48742A6
:103EF00002D12F69CF1B06D42F69B94210D169684E
:103F0000C98999420CD96968C989A4F85C102066EE
:103F10002869606621B194F89C0008B184F89C601F
:103F2000E36C2969C81A00282DDCA4F86C60688845
:103F300030BBB4F85C70606E3844904220D1B4F964
:103F4000360000281CDB8B421AD194F85000014641
:103F5000401C884201D984F8500094F8500003288E
:103F600009D9B4F85210208F084480B2884201D990
:103F7000A4F85200A3E002D1204600F015FA9EE01A
:103F800084F850609BE0421E78D4A26D8A1A002A01
:103F900074DC94F82220530706D522F0040204F8BA
:103FA000222F628E2286223C3434A675628AB4F9AE
:103FB000103002EBE302A2822087628F10446087F8
:103FC0002677A16114F8240C343C042835D3B4F8C6
:103FD0005200B4F8541000E0ADE08842218F04D2C2
:103FE000014489B2814207D827E0494391FBF0F1AF
:103FF000014489B2884220D2A4F852101DE03868EA
:10400000A0677868FEF735FDB4F86C0050B13869E8
:104010008089FEF787FCC00704D0B4F86C00401E0E
:10402000A4F86C007868FEF724FDB4F87010081A44
:10403000A4F87000384600F049FAA06FD0B10069CA
:104040004068FEF76DFC0746A06F00698089FEF7A7
:1040500069FC800700D001203844A76FB989084463
:104060002969401A0028CADD27B1E68684F8346041
:1040700025E003E04FF0FF30E086F7E7A4F86C603E
:104080001DE0386860677868FEF7F3FCB4F86C00F0
:1040900050B138698089FEF745FCC00704D0B4F8F8
:1040A0006C00401EA4F86C007868FEF7E2FCB4F8DF
:1040B0007010081AA4F87000384600F007FA606F14
:1040C000B8B100694068FEF72BFC0746606F0069D5
:1040D0008089FEF727FC800700D001203844676FF5
:1040E000B98901442869411A03D4A16D401A0028F6
:1040F000C7DDE06BF8B1216C2A69891A1BD56E49BE
:104100000988081AB4F94410A0EBE10000B2014498
:1041100009B2A4F84410002801DA404200B23C344D
:10412000B4F90A20A0EBA2001044608100EBE1008A
:10413000A08144F83C696B88002B7CD0616AEA68F6
:10414000DFF87881A1EB0200471E2BD41344CB1A71
:104150005B1C002B26DCD8F80470798981420ADACE
:104160003989091A89B203E039817E813F68801A52
:104170007A898242F8DB404201B23846FEF720FDE0
:104180007968C8F80810AB89616AB8F80C20A1EB0F
:104190000303A2EB0302A8F80C20E960D8F8100092
:1041A00041600AE0501A0CD594F8220040F0020059
:1041B00084F822002046FFF7EBFA606AE968081AE3
:1041C00077D4218D606A4218E9688A1A521C002A45
:1041D0007CDC88427AD1D8F8100047468089FEF707
:1041E000A1FB800701D0012100E00021B889B84679
:1041F000084480B26880218D814237D2D8F81000FF
:104200008089FEF78FFBC00712D04FF6C070FDF714
:1042100032FC0746D8F8100080890740FEF782FB81
:1042200000F03E00FDF727FC0743D8F81000878117
:10423000208D474600E04EE0A8F80C00D8F81000AA
:104240008089FEF76FFB800702D5B889401EB881D0
:10425000B9897868FEF7E4FC38698089FEF762FB6B
:10426000800700D00120B98908446880E96880B2DD
:1042700001446162218D081A2085204600F0D6FA9B
:10428000D8F8041040460A890AB169614660D8F836
:1042900010008089FEF746FBC00703D0687840F025
:1042A0002000687094F82200C10709D020F00100B6
:1042B0001DE00BE08400002040000020407700203B
:1042C00040F0010084F82200BDE8F0812046BDE8FE
:1042D000F04100F023B9606AE9680A1A05D4228D1A
:1042E0001044081A401C0028EEDD94F8220040F02B
:1042F000020084F822002046BDE8F041FFF748BAEA
:1043000010B51400084606D0218900F00BF82046AD
:10431000FEF734FC00E00BB1002010BDBDE81040FA
:10432000FEF7F4BD10B50446008D084480B240F697
:1043300068312085884200D92185204600F076FA30
:1043400040F2DA2188420ADB94F8220040F00200B1
:1043500084F822002046BDE81040FFF719BA10BDCE
:104360002DE9F041866F0446002E1BD0306804F121
:104370007405A06700E02D68286850B100694068A6
:10438000FEF7CEFA074630694068FEF7C9FA381AD8
:10439000F1D4286830603C342E60A07B401CA073B0
:1043A00000202060BDE8F08110B50446806F002831
:1043B00026D094F82200400722D42046FFF7D0FFF1
:1043C000B4F85210B4F85C00814201D9400800E012
:1043D0004808A4F8540081B2208FB1EB400F05D2F9
:1043E0004FF6FF7101EA4001A4F8541089B200EBC6
:1043F0004000223408442086207840F004002070D9
:1044000010BD816F002912D000E011460A68002A11
:10441000FBD1426F0A600022816FC0E91D1290F843
:104420004A10491C80F84A10C263FFF7B1B97047BF
:104430002DE9FC5F9046DDE90C9A0E4683461F4647
:10444000002214210120FEF76FFA05003CD04846F7
:104450006C68FDF710FB20805046FDF70CFB608078
:104460005846FDF706FB60603046FDF702FBA06092
:104470004FF6C070FDF7FFFAA18900EA010614208B
:10448000FDF7F9FA0643A68140F66830FDF7F3FA26
:10449000E08100266682A089FEF744FA00F03F0022
:1044A00040F4A040FDF7E7FAA08126820620CDE97E
:1044B0000060FF233A4641462846FDF741FD284665
:1044C000BDE8FC5FFEF75ABBBDE8FC9F70B5040079
:1044D0004FF0000508D0606810B1FEF74FFB0546AD
:1044E00021460420FEF74AF9284670BD70B5002425
:1044F00005E00568FFF7EAFF2044C4B2284600281B
:10450000F7D1204670BD1CB500230122CDE9002360
:104510000B4600221146FEF755FD1CBD7CB5044636
:104520000026324614210120FEF7FEF905001DD0B9
:1045300094F8220020F0030084F82200A06DFDF71B
:1045400098FA0346324629462046FFF751FA0621DB
:10455000A07ACDE90001E37A221D21462846FDF725
:10456000EFFC2846FEF70AFB00207CBD6FF001003F
:104570007CBD00002DE9FC47854D4FF4FA79A86811
:10458000401C0027A860BA466C69E0E0217C4FF02F
:104590000008022903D194F84A0006281AD094F89A
:1045A0004A200C2A18D094F89C00B8B1D4F898107E
:1045B000784A491CC4F89810825C914243D3C4F8ED
:1045C00098A0072802D2401C84F89C00204600F0E6
:1045D00047F938E0012640E0012634E0B4F936001E
:1045E000002801DB401CE086A06F60B3B4F9360000
:1045F000B4F94830984226DB02290AD04434608856
:10460000B4F9001000EBE1006349895C8840A080A8
:10461000443CA4F836A0B4F85210B4F85C008142CF
:1046200000D208464008A4F85400218F884205D2E1
:104630004FF6FF7000EA4100A4F85400A4F85210AD
:104640002046FFF7DEFE207C062806D1206BA968F5
:10465000081A282801D906F10106207A000729D571
:10466000207C042801D0072824D14C48D4F8941089
:10467000D5F808C00A18B2FBF9F3226BACEB0202C2
:10468000934203D2761C4FF0010813E094F89D305A
:1046900042F29F4C03FB0CF301EBC301B1FBF9F0B9
:1046A000904207D22046FEF7D3FF94F89D00401CAD
:1046B00084F89D00207C032802D0092807D00BE055
:1046C000206BA968081A282806D9761C04E0206BFC
:1046D000A968081AF028F8D816B32046FFF706FA9A
:1046E000E0680FB1F86000E06861D4F890201AB17A
:1046F0006FF0040160699047B8F1000F09D0218C78
:10470000208BCDE90001231D2246616AA06DFFF7D1
:104710008FFE21460220E668FEF730F8344616E0A8
:1047200014F8340F401CC0B220706178343C8842C9
:104730000BD384F834A0D4F88C201AB121466069D8
:10474000904710B92046FFF723F82746E4684FF05A
:104750000006002C7FF41AAFAC6915E0216BA86845
:10476000401AF02806D92046FFF7C0F9E06826B1C4
:10477000F06003E02646E46806E0A86121460220D6
:10478000E768FDF7FBFF3C46002CE7D1BDE8FC875E
:1047900038000020DF4D0008E74D0008B84C0A0043
:1047A0001CB5184C21784A072AD48A0717D5426AC3
:1047B000E1688B1A18D4038D1A448A1A002A13DC74
:1047C000606802884088CDE90002A36860881A46C4
:1047D00001440C3310322069FFF72AFE10E0C907AC
:1047E00002D0094909680163618849B190F8221033
:1047F00041F0020180F82210BDE81C40FEF7C8BF5E
:1048000000201CBD840000204000002010B5FEF7F1
:1048100079FD05480178491C0170C80703D0BDE83F
:104820001040FFF7A7BE10BD3800002070B5058D01
:10483000426A038F541940F2B456C16AB34200D998
:1048400033460B44E31A02D44585601A70BD531AEF
:10485000002B01DD002100E0891A4185002070BD98
:104860002DE9FC41846F054614B96C6F002C3DD0D6
:1048700020698089FEF756F8C00701D0A089F8B1F9
:104880000027152100220120FEF74EF806002DD04A
:1048900020690022314643682846FFF7A9F8804680
:1048A0008FB14FF6C070FDF7E6F8B8F80C1000EACB
:1048B00001041120FDF7DFF80443A8F80C4006E0DE
:1048C00001271421DEE7A0687168007808750621C9
:1048D0000020CDE90001EB7A2A1D29463046FDF77C
:1048E0002FFB3046BDE8FC41FEF748B9BDE8FC812E
:1048F000F0B5154B00251C6803E0A04200D101254E
:10490000E468002CF9D101B109680160A2B9196805
:104910004FF480520C4647F6FF7607E04F8A9742E5
:1049200003D1521C92B2214600E0C96821B1B242C3
:10493000F4D16FF00A00F0BD428215B91968C16068
:1049400018600020F0BD0000A000002070B51646E1
:10495000428A0D46044622B90146FFF7C9FF0028E6
:1049600010D155B128686060A682207C094A40F0C9
:10497000040020741068014606E00020F3E784423A
:1049800001D1002070BDC0680028F8D1E16014603A
:10499000F7E70000A000002038B500F013F905008B
:1049A0002ED01848FDF765F8009007226946284682
:1049B000FFF7CCFF002823D100221349284600F03E
:1049C0001FF91248026812A11948FCF731FB184878
:1049D000FBF718FC81B203220020FDF7A5FF0400BD
:1049E0000ED01348FBF70EFC82B211492046FEF7A9
:1049F00044F92146284600F01DF92046FEF7BEF88E
:104A000038BD00006401A8C0E14B00081000002080
:104A100073656E64696E672075647020636C696588
:104A20006E74206D657373616765202564000000F6
:104A3000380100202DE9F84F456806468946288848
:104A4000FDF770FFC0F303214FF0080B30890BEB2B
:104A50008101814269D82888FDF764FFC0F30320F3
:104A6000800041423046FEF7ABF800285DD1494650
:104A700005F110007468FDF7EFF800902088FDF74D
:104A800051FF07466088FDF74DFF00240246442889
:104A900007D0DFF82CA100200146DAF800301C46D0
:104AA0004EE0432F50D1D9F82000E8B34068D8B386
:104AB000011D04D0416811B1EA68914244D1044615
:104AC00047E000BFB4F812C0944537D1DDF800C00C
:104AD000BCF1000F05D17CB1D4F800C0BCF1000FCF
:104AE0000AD0D4F800C0D5F81080C44504D0DDF851
:104AF00000C0BCF1000F21D029B994F810C05FEAC2
:104B00004C7C00D42146B4F814C0BC4516D114F135
:104B1000040C08D0D4F804C0BCF1000F03D0D5F8C1
:104B20000C80C4450AD101E00EE044E020B1E26807
:104B3000C260E360CAF8004024B10AE02046E4689D
:104B4000002CBFD10C0004D1D9F804002969884297
:104B500031D16FF007013046FEF732F858BB6CB127
:104B6000D4F818C0BCF1000F25D0009705F10C0354
:104B700032462146E069E047BDE8F88F0098D0B999
:104B80004FF07040FDF7CCFE296900EA01044FF0B8
:104B90006040FDF7C5FE84420DD02888FDF7C2FEB7
:104BA000C0F303210BEB81013046FEF709F8032126
:104BB0003046FCF762FF3046BDE8F84FFDF7DEBF38
:104BC000A000002010B50120FDF710FE040004D065
:104BD0002021FBF70CFBFF20E072204610BD0000F7
:104BE00010B50C46054910460A68521C0A60FDF7CC
:104BF000C5FF2046BDE8104000F006B810000020B8
:104C0000C0E906127047000009490A68824209D1CA
:104C1000D2680A6008E0D16819B1814201D1C16847
:104C2000D1600A46002AF6D101460120FDF7A6BD53
:104C3000A0000020838A021DAFF30080F8B507466C
:104C40001D460E4614461046FDF7C0FB38B10090D5
:104C50002B4622463146384600F004F8F8BD6FF086
:104C60000300F8BD2DE9FE4F9246428ADDF83090F0
:104C70001E468846044622B90146FFF739FE002841
:104C800011D108214046FDF79BFF70B10022082199
:104C90000120FDF749FE050003D04146FDF7E0FE87
:104CA00004E04FF0FF30BDE8FE8F4546608A6F6834
:104CB000FCF7E1FE38803046FCF7DDFE788000200E
:104CC000F8806CB1206858B1D9F8041088420AD035
:104CD000454502D02846FDF751FF6FF00800E2E796
:104CE00009F1040600E026462889FCF7C4FEB880D6
:104CF000A17A11228DE80602E37A5246314628460F
:104D0000FDF738F90446454502D02846FDF736FF41
:104D10002046C8E72DE9F047984616460D000446A0
:104D200013D0286888B121462846FCF795FF60B962
:104D30004FF07040FDF7F4FD296800EA01074FF0DD
:104D40006040FDF7EDFD874203D16FF00900BDE83B
:104D5000F08741462846FCF7D3FD0028F7DB164ACA
:104D600000EB8005022302EB850106208B730C61AA
:104D7000401E10F0FF0001EB0007335C3B72F7D1DF
:104D8000C87304F1270990460FE00A6848F8252007
:104D900006204F68FDF7F2FC33464A463946204666
:104DA000FCF716FD3846FDF7E9FE58F825100029F6
:104DB000EBD10020CBE70000347D00201C00200058
:104DC000A0002000140020000800100004020400CD
:104DD00006000A0006000C0005001E0064001E000C
:104DE00003060C1830607801020304050607070764
:104DF00007070707FFFFFFFFFFFFFFFFFFFF0000A1
:104E0000000000000A0B070700040008000206006B
:104E10000D0F062828000000000004000400000018
:104E2000040000000100002000800100002000803C
:104E30000020000100028000080000004000000087
:104E40000001000004000000010000000400000058
:104E50004000000046494E5F574149545F310046CB
:104E6000494E5F574149545F320045535441424CCB
:104E7000495348454400434C4F5345440053594E11
:104E80005F5243564400434C4F53494E47004C41F8
:104E900053545F41434B004C495354454E005449D1
:104EA0004D455F5741495400434C4F53455F57416F
:104EB00049540053594E5F53454E5400DC4E000890
:104EC000000000200401000058100008E04F000816
:104ED00004010020CCBD00006810000800000000A4
:104EE00000000000000000000000000000000000C2
:104EF0000000CDAB0000000000000000000000003A
:104F000000000000000000000000000000000000A1
:104F100000000000000000106E19000000000000FA
:104F20000000000000000000000000000000000081
:104F300000000000764E0008974E0008B34E0008AF
:104F40007D4E00086A4E0008544E00085F4E00086F
:104F5000A84E0008864E00088E4E00089E4E00089F
:104F60000000000000000000000000000000000041
:104F70000000000000000000000000000000000031
:104F80000000000000000000000000000000000021
:104F90000000000000000000000102030401020301
:104FA00004060708090000000000000000000000DF
:104FB00000000000004800400008024000080240D5
:104FC00000000000000C02400018024000200240D7
:104FD00000080240000002400008024000180240A1
:040000050800018569
:00000001FF
