:020000040800F2
:1000000008D10020210200086B150008C91400085F
:1000100069150008290A0008391B000800000000C3
:10002000000000000000000000000000990100082E
:10003000710A000800000000C9010008D518000876
:100040003B0200083B0200083B0200083B0200089C
:100050003B0200083B0200083B0200083B0200088C
:100060003B0200083B0200083B0200083B0200087C
:100070003B0200083B0200083B0200083B0200086C
:100080003B0200083B0200083B0200083B0200085C
:100090003B0200083B0200083B0200083B0200084C
:1000A0003B0200083B0200083B0200083B0200083C
:1000B0003B0200083B0200083B0200083B0200082C
:1000C0003B0200083B0200083B0200083B0200081C
:1000D0003B0200083B0200083B0200084D190008E3
:1000E0003B0200083B0200083B0200083B020008FC
:1000F0003B0200083B0200083B0200083B020008EC
:100100003B0200083B0200083B0200083B020008DB
:100110003B0200083B0200083B0200083B020008CB
:100120003B0200083B0200083B0200083B020008BB
:100130003B020008FD0E00083B0200083B020008DD
:100140003B0200083B0200083B0200083B0200089B
:100150003B0200083B0200083B0200083B0200088B
:100160003B0200083B0200083B0200083B0200087B
:100170003B0200083B0200083B0200083B0200086B
:100180003B020008DFF80CD000F0FEFB00480047FF
:100190005940000808D10020194B19680868B0E8D8
:1001A000F00F80F309884FF0000080F311884EF0C3
:1001B0000D0E70470000000002480068006880F3E0
:1001C000088800DF08ED00E0EFF309800C4B1A68A7
:1001D00020E9F00F106008B54FF0BF0080F31188E0
:1001E00007F06AFD4FF0000080F31188BDE8084079
:1001F00019680868B0E8F00F80F30988704700BFFD
:100200003C01002001B44FF0BF0080F3118801BC15
:10021000704701B44FF0000080F3118801BC7047B3
:100220000648804706480047FEE7FEE7FEE7FEE790
:10023000FEE7FEE7FEE7FEE7FEE7FEE7D918000867
:100240008501000840EA01039B0703D009E008C9C3
:10025000121F08C0042AFAD203E011F8013B00F88B
:10026000013B521EF9D27047D2B201E000F8012BD7
:10027000491EFBD270470022F6E710B50446084637
:10028000114602462046FFF7EFFF204610BD034609
:1002900000E0401C0278002AFBD111F8012B00F885
:1002A000012B002AF9D11846704710B5044604E026
:1002B0000B7800F8013B03B1491C521EF8D22046CE
:1002C00010BD0146002000E0401C0A5C002AFBD162
:1002D000704710B5002200E0521C835C8C5CA34286
:1002E00001D1002BF8D1D8B2E1B2401A10BD30B51F
:1002F00005460020034600E05B1C934205D2EC5CFF
:10030000C85C201A01D1002CF6D130BDF0B480EACF
:100310000102D20F4300B3EB410F02D2034608465D
:1003200019464B0042D0C30DDDB2C1F3C7542C1B9C
:10033000202C35DAC1F3160141F4000502B16D42FB
:10034000C4F1200605FA06F125412844B3EBD05F3D
:1003500023D0C2B1012CA0EBC35009DCF0BC4FF09C
:10036000004202EAC35200F50000DBB200F067BAB7
:10037000400000F1807000EBC350A0F1807040EAB3
:10038000D170490009E0490841EAC071A0EBC350AF
:1003900000F50000400800EBC350F0BC00F046BA86
:1003A0005142012303EB4101801AF6E7F0BC70478C
:1003B00081F00041AAE780F00040A7E72DE9FE4F59
:1003C000074681EA0300C00F0E46019021F000416C
:1003D00023F00044B81AA14105D2384631461746E9
:1003E0001E460B46024623F00040104304D1384617
:1003F000314603B0BDE8F08F350DC5F30A00C3F3F5
:100400000A510290401A0090402868DAC3F31300A2
:1004100040F4801B0198924620B10023D2EB030ADE
:1004200063EB0B0B00985946C0F14002504600F0B8
:10043000DCF980460C4650465946009A00F0E4F933
:10044000C0197141EF1785EA11533B4340D0019A1F
:1004500052B3009A012A11DC0022801A4FF00043A7
:1004600061EB055103EA05538018CDE9002341F5FE
:1004700080114246234600F01CFABAE72E050025FB
:10048000401B61EB0601401941F5801200185241F2
:100490002818A6F5001343EB020140EAD470294363
:1004A00018EB0808644113E064084FEA38084FF07D
:1004B000000244EAC0744FEA0553801A61EB03015D
:1004C000801841F5801149084FEA300080185941E1
:1004D0004246234603B0BDE8F04F00F0DDB9019875
:1004E000012240000023D0EB020263EBE07301988D
:1004F0004FEAE074381A66EB0401EBE783F000433F
:100500005CE781F0004159E72DE9FE4F81EA0304E1
:1005100021F0004504F0004423F000414FF0000AB0
:10052000009450EA050302D052EA010304D10020EE
:10053000014603B0BDE8F08FC1F30A53C5F30A5476
:100540001C44A0FB02B3C5F3130545F4801CC1F3A2
:10055000130141F480180CFB023300FB083EA4F2A7
:10056000F334810A930A41EA8C5143EA8853019497
:10057000A1FB03474FEA9C2505FB03734FEA98262E
:1005800001FB06373D05260545EA1435BBEB0601A0
:100590006EEB0503850E920E45EA8C1542EA881231
:1005A000A5FB0206261E67EB00070C0D44EA033488
:1005B000A41947EB1350C1F313064FF0000319467B
:1005C0004FEA033343EA165343EA0403019CE5FB75
:1005D0000201A4F10C040294009C4FEA0632CDE91A
:1005E00000A400F066F9A4E72DE9F04D81EA0304C8
:1005F00004F0004B21F0004714464FF0000A23F0AE
:10060000004150EA070220D054EA01021DD0C1F394
:100610000A550246C1F31300C7F30A56C7F3130382
:1006200040F4801143F48013A6EB0508101BD64656
:1006300008F2FD3873EB010002D308F1010801E074
:1006400092185B41B8F1000F03DA00200146BDE8C3
:10065000F08D00204FF48015064607460EE0B2EB01
:10066000040C73EB010C04D3121B064363EB010370
:100670002F436D084FEA300092185B4150EA050C99
:10068000EDD152EA030012D082EA040083EA0105A8
:10069000284303D100224FF0004308E0101B8B4198
:1006A00002D20122002302E06FF0010253101AEB84
:1006B000060047EB085110EB0A0041EB0B01BDE8C7
:1006C000F04D00F0E9B896230022114600F0B7B8CB
:1006D00000F0004230F000400DD0C10D01F5607116
:1006E00042EA01510022C0F31600520742EAD0024A
:1006F00040071143704700200146704730B500297C
:1007000004DB4FF00044404264EB0101002B04DBAA
:100710004FF00044524264EB0303994208BF9042F9
:1007200030BD000001F0004230B421F0004150EA39
:10073000010306D00B0DA3F56073C1F31301002B69
:1007400002DC30BC00207047440F44EAC104C10001
:10075000A01830BC00EBC35000F068B830B50B46B1
:10076000014600202022012409E021FA02F59D42E1
:1007700005D303FA02F5491B04FA02F52844151EB5
:10078000A2F10102F1DC30BD2DE9F05F0546002049
:1007900092469B4688460646814640241BE02846F2
:1007A00041464746224600F001F952465B46801A10
:1007B000994110D310461946224600F016F82D1A1A
:1007C00067EB01084F4622460120002100F00DF89A
:1007D00017EB00094E41201EA4F10104DFDC48465E
:1007E00031462A464346BDE8F09F202A04DB203AE2
:1007F00000FA02F1002070479140C2F1200320FA74
:1008000003F3194390407047202A06DBCB17203AA8
:1008100041FA02F043EAE071704741FA02F3D04036
:10082000C2F1200291400843194670470029A8BF31
:100830007047401C490008BF20F00100704710B409
:10084000B0FA80FC00FA0CF050EA010404BF10BCBE
:10085000704749B1CCF1200421FA04F411FA0CF1EB
:1008600018BF012121430843A3EB0C01CB1D010656
:10087000000A002BBEBF002010BC704700EBC35025
:1008800010440029A4BF10BC7047401C490008BF99
:1008900020F0010010BC704710B5002B08DA401C96
:1008A00041F1000192185B411A4301D120F001008F
:1008B00010BD2DE9F04D92469B4611B1B1FA81F27F
:1008C00002E0B0FA80F220329046FFF78EFF064633
:1008D0000F4640EA0A0041EA0B0152465B460843D4
:1008E00003D130463946BDE8F08D194652EA010081
:1008F00015D0C8F14002504600F058F804460D46A5
:10090000504659464246FFF770FF084301D0012088
:1009100000E00020044345EAE07526432F430A988F
:100920004FEAD625A0EB08000A304FEA46534FF0B5
:10093000000245EA47554FEAD72402D50020014678
:10094000D1E7010550196141DDE908450019694108
:10095000BDE8F04DA0E7C1F30A52C1F3130140F224
:10096000FF3341F480119A4202DA002001467047B9
:1009700040F233439A42A2F2334202DC524200F088
:1009800015B8FFF732BF0000064C074D06E0E068DF
:1009900040F0010394E8070098471034AC42F6D3C6
:1009A000FFF7F4FB04F0000824F00008202A04DB21
:1009B000203A21FA02F00021704721FA02F3D040D8
:1009C000C2F12002914008431946704770B501EB0F
:1009D000020410F8015B15F0070301D110F8013B88
:1009E0002A1106D110F8012B03E010F8016B01F871
:1009F000016B5B1EF9D12B0705D40023521E0FD4C7
:100A000001F8013BFAE710F8013B02F10202A1EB09
:100A1000030303E013F8015B01F8015B521EF9D5F3
:100A2000A142D6D3002070BDFEE700001FB54FF4F1
:100A3000E13000900020ADF80400ADF80600ADF8FC
:100A40000800ADF80C000C20ADF80A006946002043
:100A500000F05EFE01A001F071F81FBD0A0D5553B4
:100A600041525420544553542121210A0D000000C5
:100A70007047000010B5ADF5047D0446002080905D
:100A8000819082904FF400716846FFF7F4FB1C4898
:100A90001CA10268521C026080A801F05FF880A9C6
:100AA0006846FFF7F4FB18A16846FFF7F0FB23A1A7
:100AB0006846FFF7ECFB6846FFF703FC694608440D
:100AC00007F00CF82BA16846FFF7E1FB37A1684659
:100AD000FFF7DDFB4448FFF7F4FB024601234249E0
:100AE000204603F0E1FD6846FFF7EBFB02460123D9
:100AF0006946204603F0D8FD0DF5047D10BD0000C9
:100B000014000020256400003C7072653E3C627257
:100B10003E4E616D65202020202020202020205383
:100B20007461746520205072696F72697479202035
:100B3000537461636B2020204E756D003C62723EE1
:100B40002D2D2D2D2D2D2D2D2D2D2D2D2D2D2D2DD5
:100B50002D2D2D2D2D2D2D2D2D2D2D2D2D2D2D2DC5
:100B60002D2D2D2D2D2D2D2D2D2D2D2D2D3C62722C
:100B70003E0000003C62723E3C62723E2D2D2D2DE7
:100B80002D2D2D2D2D2D2D2D2D2D2D2D2D2D2D2D95
:100B90002D2D2D2D2D2D2D2D2D2D2D2D2D2D2D2D85
:100BA0002D2D2D2D2D2D2D2D2D0000003C62723E62
:100BB00042203A20426C6F636B65642C2052203ACD
:100BC0002052656164792C2044203A2044656C658C
:100BD0007465642C2053203A2053757370656E64DD
:100BE00065643C62723E0000B8E8000808B500F099
:100BF000BDF84FF4A06000F0FBFC3D208DF8000034
:100C000002208DF8010000208DF8020001208DF8EF
:100C10000300684600F0BAFCBDE8084000F0AABA3C
:100C2000014948617047000000900240044A0029D1
:100C3000D16901D0014300E08143D16170470000D8
:100C40000090024005490028886902D040F0020067
:100C500001E020F00200886170470000009002402F
:100C6000F0B5124E00244FF0004E44F2F45C551ED5
:100C7000706013E000EB4413C3F800E0C4EBC4174A
:100C800007EB470701EB8707C3E901C7AC4203D273
:100C900003F12007DF6000E0D860641C9442E9D3D0
:100CA0000349C8600348B060F0BD0000E8000020C0
:100CB00000900240E88F0020426811B122F000410C
:100CC00001E042F000414160704700000549002802
:100CD000886902D040F4005001E020F4005088619F
:100CE0007047000000900240F0B50F4B00244FF415
:100CF0008016551E186011E000EB44131E60C4EB13
:100D0000C41707EB470701EB87079F60AC4203D28C
:100D100003F12007DF6000E0D860641C9442EBD34D
:100D200002490861F0BD0000E80000200090024088
:100D300002680A430260704710B501214C06204644
:100D400000F06CFC2046BDE81040002100F066BCBD
:100D500000E0401E0028FCD1704700000248816975
:100D600041F4801181617047009002401CB501215F
:100D7000072000F047FC0121880300F067FC4FF4D6
:100D80008070009003208DF8050002208DF804008B
:100D900000208DF80600294C8DF807006946204692
:100DA00000F044FB61024FF4C00000F0A7FC0120FA
:100DB00000F048FD862000906946204600F036FB92
:100DC0000B220121204600F06FFB0B22022120465E
:100DD00000F06AFB0B220721204600F065FB4FF470
:100DE0006050174C00906946204600F01FFB0B2214
:100DF0001146204600F058FB0B220C21204600F043
:100E000053FB0B220D21204600F04EFB32200D4CEF
:100E100000906946204600F009FB0B220121204684
:100E200000F042FB0B220421204600F03DFB0B2288
:100E30000521204600F038FB1CBD000000000240E8
:100E40000004024000080240034A014600205269A3
:100E50000A4200D001207047009002400349002060
:100E60000968C90700D001207047000000900240C7
:100E700070B5214A00242546D2E9013118E000BFAF
:100E80001E6805F10105B60507D51E68F60504D4F0
:100E90000B6001238B60536808E01E68F60510D4D0
:100EA0001E68B6050DD48E68761C8E60DB685360B4
:100EB0001E68002E01DB052DE2D3046044608460CF
:100EC00070BD4B608C68641C8C608C68012C00D1F8
:100ED0000B6053681C688D68C4F30D44241F012DFA
:100EE00002D90968896800E09968DD685560046086
:100EF000C0E9011370BD0000E800002008B5002023
:100F000000904020FFF7A0FF012806D109480023E8
:100F10006A461946006807F066F84020FFF780FE31
:100F20004FF48030FFF77CFE0098002801D006F0D7
:100F300061FD08BDCC0000202DE9FF417A4D04463B
:100F400088462869002720F01C06684600F08AFBC6
:100F500076490198764A0144914202D246F0080649
:100F60000EE07449744A0144914202D246F00C06E4
:100F700006E0724908447249884201D346F00406EB
:100F80002E614FF400420021404600F029FA00286B
:100F900025D06C48FFF7DCFE206878B36A4E7F1CD2
:100FA0000121404600F096F9400701D4B742F6D33C
:100FB000B74213D000274FF480523946404600F024
:100FC0000FFA00280BD07F1C0121404600F082F967
:100FD000800601D4B742F6D3B74203D1002004B053
:100FE000BDE8F0811021404600F074F942074FF04F
:100FF000000104D54FF40062226201E008E02162A2
:10100000800701D5616114E04FF48040606110E019
:10101000206A0021C0F3CF026069C0F34F00024391
:10102000404600F0DDF90028D9D06FF07F40FFF78F
:101030008FFE296845480140D4E901021043D4E9F4
:1010400003231A43104362691043A2691043E26903
:101050001043226A1043626A1043A26A1043E26A94
:101060001043226B1043626B104308432860D4E99D
:101070000E010843D4E9101211430843A16C084340
:10108000E16C0843216D0843616D08436860A06D01
:10109000A860E06DE860A9694FF641700140D4E9AD
:1010A00019021043236EE26E42EA03421043226F9C
:1010B0001043626F10430843A861D4E91E0108433E
:1010C000E86123498A6923480240D4E92003184390
:1010D000D4E922352B431843D4F890301843D4F880
:1010E00094301843D4F898301843D4F89C301843FF
:1010F000D4F8A030184310438861D4E92902104382
:10110000D4E92B231A431043D4F8B42040EA8200D8
:10111000D4F8B820104340F400000860086840F09C
:101120008000086001205AE70080024000D3CEFE14
:10113000C0E1E40040F1E9FD40787D0100796CFCFC
:10114000005A6202FFFF0F00FFFF04000F8120FF23
:1011500000900240233FDEF8054B8A881844026461
:101160000A78D1F8011042EA012141647047000079
:101170000080024000B5AFB001214FF0606000F088
:1011800041FAFFF7D9FD00F0CDF800BFFFF766FE8A
:101190000128FBD0684600F0DEF801200090002016
:1011A0004FF40071CDE90A10090407901190CDE9C0
:1011B00020010E90149013900A11159025902690FE
:1011C00023920420CDE9280180032A9080012B90EE
:1011D00040122C9040002E9001216846FFF7ACFE93
:1011E00001210248FFF722FD2FB000BD40000100A1
:1011F00005490028086802D040F0040001E020F012
:101200000400086070470000008002400549002883
:10121000086802D040F0080001E020F008000860F3
:101220007047000000800240F0B5284D00242A6875
:101230001168002901DA0020F0BD40F2F453984211
:1012400013D9B0FBF3F103FB110606B1491C0129C8
:101250000BD0C1F10107C7EBC71707EB470700EB3E
:1012600087004E1EC0F30C0023E0116841F040518E
:101270001160C0F30C005060106840F00040106036
:10128000D068286018E034B92F68D7F800C04CF057
:10129000805CC7F800C05360B44204D1176847F0BF
:1012A000005717605060176847F000471760D26812
:1012B000641C8C42E7D32A6005484169490703D57D
:1012C00004214161002141600120F0BDE8000020BF
:1012D0000090024030B5114A002314694FF6FF75A3
:1012E00004F01C0405EAC02020434FF4F86404EA2B
:1012F0008111014321F0020040F001001061084813
:1013000011695B1CC90701D08342F9D3834201D123
:10131000002030BD506980B230BD00000080024026
:10132000FFFF04000248016841F0010101607047BD
:101330000090024000B50120FFF768FFFFF70EFDA7
:101340000120FFF755FF0120FFF7C0FC01205DF8E9
:1013500004EBFFF777BC012101600021416081604F
:101360004FF48042C160C0E90412D2108161C0E92B
:10137000071241628162C16201634163402281635D
:10138000C0E90F122022C0E91121C1640165416545
:1013900081658022C165C0E918128166C166016756
:1013A0004167D2048167C0E91F125210C0E92121B0
:1013B0001311C0E92331C0F89410C0F89810C0F898
:1013C0009C10C0E928125212C0F8A8209201C0F85F
:1013D000AC205212C0E92C21C0F8B81070470000B0
:1013E00070B5104B00241D694FF6FF7605F01C0503
:1013F00006EAC02028434FF4F86505EA811101434D
:1014000041F003005A61186107481969641CC90753
:1014100001D08442F9D3844201D1002070BD012063
:1014200070BD000000800240FFFF0400F0B5002204
:1014300001234FF0030C00BF0D6803FA02F42540AE
:10144000A5422DD1066854000CFA04F5AE4306609F
:101450000E790768A6403E4306600E79012E01D042
:10146000022E12D18668AE4386604D798668A5400B
:1014700035438560456803FA02F6B5434560456823
:101480008E799640B6B235434560C56856000CFA71
:1014900006F7BD43C560CD79A540C4682543C56046
:1014A000521C102AC8D3F0BD4B07DB0E9A40C90866
:1014B00010B500EB8100016A0F249C40A14301623A
:1014C000016A1143016210BDFEE710B5002000F073
:1014D0007BF9012000F078F9022000F075F9032073
:1014E00000F072F9002000F093F9012000F090F96B
:1014F000022000F08DF9BDE81040032000F088B90B
:1015000000B587B002F008FE02F0FEFE002108469A
:1015100005F022FF104802F03BF903906FF0FF0046
:1015200002F036F904900C48663802F031F9059063
:101530000A4A0B4900208DE8070005AB04AA03A95D
:10154000084803F0CFF8074803F008F9054803F00E
:1015500051F907B000BD00006700A8C095730008EE
:10156000813500088C010020FEE7704708B5272070
:101570008DF8000000208DF801008DF80200012098
:101580008DF80300684600F001F808BD70B50F2122
:10159000C478027801234FF0E026E4B1124C2468AD
:1015A00004F4E064C4F5E064C4F30724C4F1040562
:1015B000E1404478AC4085780D4025430B4C29012F
:1015C0001155007800F01F018B40400906EB8000A8
:1015D000C0F8003170BD02F01F008340500906EBD7
:1015E0008000C0F8803170BD0CED00E000E400E048
:1015F0000249084302490860704700000000FA05EC
:101600000CED00E0044A0029116801D0014300E01C
:10161000814311607047000030380240044A0029BD
:10162000116801D0014300E0814311607047000060
:1016300010380240044A0029116801D0014300E03B
:10164000814311607047000040380240044A00297D
:10165000116801D0014300E0814311607047000030
:101660004438024070B5214B1968214A11F00C0131
:1016700004D0204E042903D0082903D002601BE0C7
:10168000066019E01949091F0C68C4F380550C68FD
:1016900004F03F0415B1B6FBF4F201E0B2FBF4F242
:1016A0000C680968C4F388146243C1F30141491C02
:1016B0004900B2FBF1F1016019680F4A01F0F00135
:1016C0000909545C0168E14041601C6804F4E0547D
:1016D000A40A145D21FA04F484601B6803F46043D7
:1016E0005B0BD25CD140C16070BD00000838024085
:1016F0000024F40040787D01D6000020034A1368DE
:10170000084323F0EC631843106070470838024028
:101710002DE9FC418846044629492948091D50F80D
:10172000240051F8241008430121FFF76BFF2CB966
:1017300023480121001F0068FFF77CFF2048214E4D
:101740001638025D801E015D56F82400FFF7ACFEDE
:101750001B48371D1538025D801E015D57F82400B7
:10176000FFF7A2FE00208DF8060001208DF807008B
:101770001348022514388DF8045030F814000090F6
:101780008DF8055056F824006946FFF74FFE0C48C7
:101790008DF804501238694630F81400009057F85C
:1017A0002400FFF743FE351F414655F8240000F0A2
:1017B0005FF955F82400012100F012F9BDE8FC8121
:1017C00064EF0008F80000201CB504460E48012113
:1017D00050F82400FFF716FF0B480021083830F8B6
:1017E0001400009001208DF804008DF806108DF88B
:1017F000070002208DF805000448694650F82400CF
:10180000FFF714FE1CBD000080EF0008040100205B
:101810000349044A31F8101052F820004183704700
:1018200078EF000804010020044951F820104A69AB
:10183000034B33F8100042404A6170470401002016
:1018400078EF00080149086070470000DC0027427B
:101850001D4900200A6842F480320A604FF4A063F8
:101860000A6800F1010012F4003F01D19842F7D15B
:101870000868800326D514480830026802600268B0
:1018800042F400420260026842F4A0520260031F68
:101890000E4A1A600A6842F080720A600A68920171
:1018A000FCD50B4A40F203711160016821F003017D
:1018B0000160016841F0020101600168C1F381012A
:1018C0000229FAD170470000003802400410410597
:1018D000003C024006F052BA0F4810B5016841F0D2
:1018E000010101600C4A00210832116002680B4BB3
:1018F0001A400260031D0A4A1A60026822F480221C
:10190000026005480C300160FFF7A2FF05494FF067
:101910000060086010BD000000380240FFFFF6FEC6
:101920001030002408ED00E00649074849680160CE
:101930000268002AFBD00320FFF776FFFA2006F0AA
:101940006BF8F8E78C0100200000002070B5214DF5
:1019500040F225563146284600F053F81E4CD0B1CF
:10196000284600F0E1F81D4AA388D054A088115CF5
:10197000284600F0DDF8A088401CA080A08861788F
:10198000884208D100223146284600F059F8E07814
:1019900040F08000E07040F227763146284600F0A3
:1019A00030F8002814D0A0780C4920390144401C9C
:1019B000A0700978284600F0BBF8A078217888420A
:1019C00006D131462846BDE87040002200F038B804
:1019D00070BD00000048004004000020E00100202D
:1019E0000029818902D041F4005101E021F4005125
:1019F000818170470246002012880A4200D00120EF
:101A0000704770B501F01F0601220025C1F3421393
:101A100002FA06F4012B0FD0022B0FD0838A4FEA73
:101A200011210088234202FA01F200EA020001D0EB
:101A300000B10125284670BD8389F0E7038AEEE7EF
:101A400010B5C1F3421301F01F040121A140012B85
:101A500007D0022B07D01430002A026805D00A43B1
:101A600004E00C30F8E71030F6E78A43026010BD5E
:101A70007FB50446008A0D4620F44051E8880843AB
:101A80002082A08941F20C618843A9882A891143E8
:101A90006A8902431143A181A08A20F44071A88978
:101AA0000843A0826846FFF7DDFD1D48844202D04E
:101AB0001C48844201D1039800E00298A1890904DE
:101AC000002900EBC00101EB0010296802DA4FEA9F
:101AD000410101E04FEA8101B0FBF1F06422B0FB6B
:101AE000F2F14FEA01114FEA11136FF018056B4341
:101AF00000EB8300A3891D044FF0320306D503EBEE
:101B0000C000B0FBF2F000F0070005E003EB0010AE
:101B1000B0FBF2F000F00F00084320817FBD000011
:101B200000100140001401408088C0F30800704795
:101B3000C1F3080181807047FEE700000FB4054B38
:101B400010B503A9044A029800F0D8F810BC5DF85B
:101B500014FB0000D1360008880100200FB4084BA8
:101B600010B504A902AA039800F0C8F8044602A917
:101B7000002000F070FC204610BC5DF814FB000053
:101B80005724000802E008C8121F08C1002AFAD131
:101B900070477047002001E001C1121F002AFBD1ED
:101BA000704700002DE9FF5FDDE90210020DDDF84E
:101BB00038B001430FD10F9801244BA3012807D05F
:101BC00000980F9AC0E90031C0E90242BDE8FF9FCA
:101BD0006FEA0B01F4E7A2F2FF3244F610504243E1
:101BE00015140F9801280ED0A5EB0B00401C4FF0E8
:101BF00000043E4EDFF8F890B0F1000AA04605DA86
:101C0000CAF1000717E0CBF10000F0E7074612E049
:101C1000F80707D02246334640464946FEF774FC93
:101C2000804689462246334610461946FEF76CFC2C
:101C300004460E467F10002FEAD1DDE90201BAF119
:101C4000000F42464B4602DAFEF75EFC01E0FEF76B
:101C5000CBFC04460E460022264BFEF74FFD03D870
:101C60004FF0FF30014607E00022234B204631466B
:101C7000FEF7A4FBFEF76FFE102409E0002C0ADB40
:101C80000A220023FEF780FD019B30321A55641EA4
:101C900050EA0102F2D1641C019AC4F11103144408
:101CA0000F9A012A09D00122084301D15B450FDDBB
:101CB0004FF0000205F101050DE0084303D1A3EB4D
:101CC0000B056D1E09E000204FF0110B0F9088E707
:101CD00001DA00226D1E002A83D000980F99C0E916
:101CE0000231C0E9004571E73000000000002440E7
:101CF0000000F03F0000F0430000E03F2DE9FF4FFF
:101D000095B006469A468946002521E2252801D04D
:101D10001799A6E00024F9492746761C4FF00108E0
:101D200003943278203A08FA02F0084202D00443C1
:101D3000761CF6E730782A2811D06FF02F02307821
:101D4000A0F13001092916D8039944F0020401EBEF
:101D5000810102EB41010844761C0390EFE759F83A
:101D6000041B0391002903DA484244F40054039011
:101D700044F00204761C30782E2816D116F8010F94
:101D800044F004042A280DD06FF02F013078A0F120
:101D90003002092A09D807EB870201EB42028718B3
:101DA000761CF3E759F8047B761C30786C280FD04A
:101DB00006DC4C2817D068280DD06A2814D104E01E
:101DC000742810D07A280FD10DE044F400140AE0F2
:101DD00044F4801401E044F440147178814202D14B
:101DE000761C04F58014761C96F800C0BCF1660FD2
:101DF00010D01ADCBCF1580F70D00CDCBCF1000F15
:101E00006DD0BCF1450FF3D0BCF1460FF0D0BCF162
:101E1000470F24D1A4E1BCF1630F40D0BCF1640FA3
:101E200074D0BCF1650F1AD19AE1BCF1700F6ED07D
:101E30000CDCBCF1670FEDD0BCF1690F75D0BCF1C3
:101E40006E0F12D0BCF16F0F09D1B3E0BCF1730F6C
:101E50002FD0BCF1750F76D0BCF1780F74D01799E4
:101E60006046524690476D1C70E1C4F30250022850
:101E700009D003280DD0D9F8001004280DD00D602A
:101E800009F1040962E1D9F80010EA17C1E900522A
:101E9000F6E7D9F800100D80F2E70D70F0E759F879
:101EA000041B8DF8001000208DF80100EB46012086
:101EB00003E059F804BB4FF0FF3061074FF0000119
:101EC00002D40FE008F101018846B94211DA8045D9
:101ED000F8DB1BF808100029F4D10AE060E03BE1D0
:101EE00008F1010188468142FADB1BF8081000293D
:101EF000F6D103985346A0EB080721463846179AB7
:101F000000F091FA284400EB080506E00DE049E0F6
:101F10001BF8010B524617999047B8F10108F7D208
:101F2000534621463846179A0DE10A21C4F302525E
:101F30004FF0000B0091022A07D059F8040BC1178B
:101F4000032A0AD00BE024E025E009F1070020F085
:101F50000702F2E80201914605E000B2C117042A27
:101F600001D140B2C117002906DA0A4600214042D9
:101F700061EB02012D2202E0220504D52B228DF80F
:101F80000420012203E0E20701D02022F7E7904677
:101F900054E00A2100E010214FF0000B00910DE009
:101FA000102008E010204FF0000B44F00404082734
:101FB000009003E008204FF0000B0090C4F30252A1
:101FC000022A05D059F8040B0021032A08D009E0A1
:101FD00009F1070020F00702F2E80201914605E04E
:101FE00080B20021042A01D1C0B200214FF00008C4
:101FF000220723D5BCF1700F28D0009B83F010037B
:1020000053EA0B0309D150EA010206D030228DF8C1
:1020100004208DF805C002229046009B83F008033F
:1020200053EA0B030AD150EA010201D1620705D538
:1020300030228DF804204FF001087F1EBCF1580FAC
:1020400009D02FA20C920CAA029211E040228DF826
:1020500004200122E0E72FA2F4E75B46009AFEF796
:1020600093FB0C9B9B5C029AA2F1010202921370FB
:1020700050EA0102F1D1029804A9A1EB000000F19D
:10208000200B600702D524F4803400E001275F456F
:1020900002DDA7EB0B0000E0002000EB0B0100903D
:1020A00003984144A0EB01000390E00306D453469B
:1020B0002146179A039800F0B6F90544002706E078
:1020C00001A85246C05D179990476D1C7F1C47457B
:1020D000F6DBE0030CD553462146179A039800F02F
:1020E000A2F9054404E030205246179990476D1C30
:1020F0000099481E00900029F5DC1EE00928010027
:10210000303132333435363738396162636465666D
:10211000000000003031323334353637383941422F
:102120004344454600000000029802995246007858
:10213000491C0291179990476D1CBBF10001ABF14E
:10214000010BF1DC50E100F05BF9054406F10106FA
:10215000307800287FF4DAAD19B02846BDE8F08F5A
:10216000600700D4062709F1070020F00701F1E815
:102170000220894600F00043190001D09DA109E02A
:10218000210501D59CA105E0E10701D09BA101E05B
:10219000AFF2840120F000431391BCF1650F11D020
:1021A00009DCBCF1450F0DD0BCF1460F20D0BCF1CD
:1021B000470F3ED13EE0BCF1660F19D0BCF1670F6E
:1021C0007CD137E00021112F01DB112000E0781CC9
:1021D000CDE9000104A90CA8FFF7E4FCDDE90D013D
:1021E0000C9A4FF0000B07F10108109200914CE09F
:1021F0004FF000400097CDE9018004A90CA8FFF73B
:10220000D1FCDDE90E20DDE90C314FF0000B9046EA
:102210001093009218B907F1010001EB0008B7EB29
:10222000080003D4C0F1FF3B07F10108A8EB070049
:10223000019043E0012F00DA01270021112F01DD79
:10224000112000E03846CDE9000104A90CA8FFF7F1
:10225000A9FCDDE90D010C9A00914FF0000BB84686
:10226000109221070CD40099414500DA8846B8F154
:10227000010F05DD109AA8F10101515C302908D049
:10228000B84202DA10F1040F06DA0121CDE901109B
:1022900014E0A8F10101E9E7002803DC8344A8EB7E
:1022A000000102E0411C414500DD8846A0EB0B0027
:1022B00000F1010001904FF000400290200705D48A
:1022C0000198404502DB4FF0FF30019000208DF86F
:1022D0004B0002980DF14B07B0F1004F26D00220C1
:1022E0000C902B200D90029800280CDA40420290AE
:1022F0002D200D9007E00A210298FEF72FFA3031C9
:10230000029007F8011D0C99481E0C900029F2DC80
:1023100002980028EFD1A7F101010D9808703078DC
:1023200000F0200040F0450007F8020D11A8A0EBD6
:10233000070000F1070002901398007800B1012017
:1023400000EB0801019801EBE07102980144039849
:10235000A0EB0100A0F101000390E00306D4534676
:102360002146179A039800F05EF805441398007808
:1023700020B152461799904705F10105E00322D597
:1023800053462146179A039800F04DF805441AE089
:10239000BBF1000F07DB0098584504DD1098179932
:1023A00010F80B0001E01799302052469047019831
:1023B0006D1C401E0BF1010B019004D12E205246E2
:1023C000179990476D1CB8F10001A8F10108DFDCF6
:1023D00005E017F8010B5246179990476D1C0299BA
:1023E000481E02900029F4DC53462146179A0398B0
:1023F000A9E600002D0000002B00000020000000D6
:102400002DE9F0410446002517461E46880405D4F0
:1024100006E039462020B04705F10105641EF8D5D5
:102420002846BDE8F0812DE9F0410446002590469C
:102430001E46C80301D5302700E02027880405D5B3
:1024400006E041463846B04705F10105641EF8D55F
:102450002846BDE8F0810A68531C0B601070704775
:102460002DE9F041044640690E469046C8B12078F7
:10247000A16A01F0CCFF05004FF0FF370ED06E606F
:1024800002F034FE85F808802946606902F01CFFDE
:1024900050B100206860284602F032F83846BDE8A6
:1024A000F0816FF00800FAE7A36A1BB10022114621
:1024B000204698470020F2E710B501F01DF8BDE86E
:1024C00010400022024941F2883002F053BF000060
:1024D000B924000810B501F00FF8BDE81040002243
:1024E000024941F2883002F045BF0000D5240008BF
:1024F00000280BD0026A002A08D0937C082B05D153
:102500000968926A914201D100F034B97047000025
:102510002DE9FC41050062D02C6A002C5FD0A06C34
:102520004FF03C01471C4FF480364FF6FF724FF0DE
:1025300001030AD01E30B0FBF1F0B04200D31046C8
:102540000004000C208400D12384E06C471C0AD0D6
:102550001E30B0FBF1F1B14200D311460804000C6B
:10256000608400D1638414F12C0000D0E06A0090F4
:1025700070B902F04DF9000E7F2802D84FF07F406D
:1025800003E0C0280BD36FF0FF0001F001F90090C9
:1025900014F1300000D0206B019010B10BE0114815
:1025A000F3E7A06A009908400190012001F0F0F8DB
:1025B00001990843019004F12801284602F0E2F84D
:1025C0006946284602F012F901A9284602F0D5F81A
:1025D000284602F00FF90A21204600F0B1FBBDE8C1
:1025E000FC8100000000FFFF70B5046A0546082169
:1025F000204600F0A5FB002204F12801284600F047
:10260000B3FEE07C401CE0740120E08370BD00005C
:10261000164810B5046825E0216A11B3488C421EA3
:102620004A84012806D0216A088C421E0A840128A7
:102630000CD016E0216A2046897C012903D00A29A2
:1026400001D005290DD100F0C1F90AE0216A204628
:10265000897C012903D00A2901D0052901D100F084
:10266000AFFA2468002CD7D110BD00004000002034
:1026700070B506000DD0346A74B100224FF49A711F
:10268000104602F0C9F8606148B1E27C37494AB1AE
:102690000BE06FF0090070BD6FF0080070BD4FF0E7
:1026A000FF3070BD0A68521C0A60096821604168E9
:1026B0000120A1610870A16900254870A169062068
:1026C0008870A069C570206801F062F8A16948604F
:1026D000A0690581A0694581A069C560A07C0A2820
:1026E00003D0052801D0042802D1A1697068C86010
:1026F000A0695FF000010561A0694561A06985617D
:1027000096F82600884203D9701890F8270000E058
:10271000002001F11C02A369491C89B298541029B8
:10272000EED3002000F12C01A269401C80B2555468
:102730004028F7D35FF0000000F16C01A269401C53
:1027400080B255548028F7D3094801F021F8A169D7
:10275000C1F8EC00A5830020A26900F1F0015054FB
:10276000401C80B24428F7D3002070BD2800002010
:1027700063538263F8B5046A05460C21204600F0D5
:10278000DFFA2846FFF774FF060027D10122352122
:10279000204600F0B9F80421204600F0C5F80422D4
:1027A0003221204600F0B0F8A06A02F031F801466C
:1027B000204600F0C1F8204600F0F0F8A08BF03081
:1027C00081B2606902F070F900954323074A61699C
:1027D000606804F077FF284600F00AF8E07C401CAF
:1027E000E0741420E0833046F8BD00003CEF0008A0
:1027F00010B5002809D0046A002C06D0606908B121
:1028000002F000F900206061A06110BDF8B5054636
:10281000046A2E4806210068A062204600F090FA63
:102820002846FFF725FF060039D101223521204631
:1028300000F06AF80121204600F076F802223921E2
:10284000204600F061F8A98C204600F096F804229A
:102850003721204600F058F80121204600F064F8A6
:102860000321204600F060F81C21204600F05CF8AF
:102870000621204600F058F8204600F08FF8A08B83
:10288000F03081B2606902F00FF900954323104ADD
:102890006169606804F016FF2846FFF7A9FFE07C35
:1028A000401CC0B2E074062802D20121814000E041
:1028B0003C214FF47A70414388B200F2F3104FF498
:1028C000FA71B0FBF1F0E0833046F8BD38EF000854
:1028D0003CEF000870B50B48002504680EE0206A44
:1028E00058B1C18B012903D9A1F10101C18304E0D1
:1028F00003D1C583204600F02AFA2468002CEED1CB
:1029000070BD00004000002010B5838B84691C441A
:102910005B1C838384F8F010818B83690B44491C12
:10292000818383F8F02010BD828B83691344521C8D
:10293000828383F8F010704710B5828B84690B0E88
:102940001444521C828384F8F030828B84690B0C0F
:102950001444521C828384F8F030828B84690B0A01
:102960001444521C828384F8F030828B83691344B0
:10297000521C828383F8F01010BD10B5828B8469DD
:102980000B0A1444521C828384F8F030828B8369D2
:102990001344521C828383F8F01010BD002814D019
:1029A000818B8369FF220B44491C818383F8F020CB
:1029B000002205E083690B44491C818383F8F020E1
:1029C000818B4429F6D38B07F4D17047F8B5046A9C
:1029D00005460421204600F0B3F92846FFF748FEDB
:1029E000060024D1012235212046FFF78DFF032167
:1029F0002046FFF799FF022239212046FFF784FF86
:102A0000A98C2046FFF7B9FF2046FFF7C7FFA08B30
:102A1000F03081B2606902F047F8009543230F4A15
:102A20006169606804F04EFE2846FFF7E1FEE07C35
:102A3000401CC0B2E0740A2803D24FF47A714843B4
:102A400001E042F2107080B200F2F3104FF4FA711C
:102A5000B0FBF1F0E0833046F8BD00003CEF000829
:102A6000F8B5046A06460321204600F069F93046AD
:102A7000FFF7FEFD050031D1012235212046FFF789
:102A800043FF03212046FFF74FFF02223921204652
:102A9000FFF73AFF4FF410712046FFF76EFF042254
:102AA00032212046FFF730FFA06A01F0B1FE014657
:102AB0002046FFF741FF2046FFF770FFA08BF03064
:102AC00081B2606901F0F0FF009643230E4A61690C
:102AD000606804F0F7FD3046FFF78AFEE07C401C9A
:102AE000C0B2E0740A2803D24FF47A71484301E07F
:102AF00042F2107080B200F2F3104FF4FA71B0FBA2
:102B0000F1F0E0832846F8BD3CEF0008F8B5046A10
:102B100005460D21204600F013F900206062E062B6
:102B2000A06260632063E064A0646064A0632846E0
:102B3000FFF79EFD06001CD1012235212046FFF73C
:102B4000E3FE07212046FFF7EFFE2046FFF726FFB2
:102B5000A08BF03081B2606901F0A6FF009543239D
:102B600004F124026169606804F0ACFD2846FFF7B7
:102B70003FFEE07C401CC0B2E0740A2803D24FF450
:102B80007A71484301E042F2107080B200F2F31013
:102B90004FF4FA71B0FBF1F0E083284601F0E4FD58
:102BA0000649284601F0EEFD0449284601F0E5FDFE
:102BB0000249284601F01AFE3046F8BD38EF0008F9
:102BC000F8B5046A05460521204600F0B9F8284604
:102BD000FFF74EFD060025D1012235212046FFF7E3
:102BE00093FE03212046FFF79FFE02223921204653
:102BF000FFF78AFEA98C2046FFF7BFFE2046FFF7AD
:102C0000CDFEA08BF03081B2606901F04DFF0095E0
:102C1000432304F124026169606804F053FD2846EF
:102C2000FFF7E6FDE07C401CC0B2E0740A2803D246
:102C30004FF4FA61484301E044F6206080B200F2AC
:102C4000F3104FF4FA71B0FBF1F0E0833046F8BDB9
:102C5000F8B5046A05460121204600F071F82846BF
:102C6000FFF706FD060051D1012235212046FFF76E
:102C70004BFE03212046FFF757FE02223921204652
:102C8000FFF742FEA98C2046FFF777FE042232218F
:102C90002046FFF739FEA06A01F0BAFD0146204642
:102CA000FFF74AFE042236212046FFF72DFE606A18
:102CB00001F0AEFD01462046FFF73EFE042237211B
:102CC0002046FFF721FE01212046FFF72DFE0321BC
:102CD0002046FFF729FE1C212046FFF725FE06218E
:102CE0002046FFF721FE2046FFF758FEA08BF0306C
:102CF00081B2606901F0D8FE009543230F4A6169F3
:102D0000606804F0DFFC2846FFF772FDE07C401CA1
:102D1000C0B2E074062802D20121814000E03C21CB
:102D20004FF47A70414388B200F2F3104FF4FA7115
:102D3000B0FBF1F0E0833046F8BD00003CEF000846
:102D4000827C8A4202D081740021C174704710B520
:102D5000026A0446917C0C2913D0062911D001295E
:102D600013D008291ED0052928D004292AD00329E8
:102D700030D1D07C022813D22046BDE81040FFF7A6
:102D80006FBEBDE81040FFF741BDD07C052804D8D8
:102D90002046BDE81040FFF75BBF2046FFF7B6FEB8
:102DA0002046EEE7D07C0128204603D8BDE810403D
:102DB000FFF71ABCBDE81040FFF7AABBBDE8104002
:102DC000FFF7FEBED07C0828E7D82046BDE81040BB
:102DD000FFF7FCBD10BD000010B5FFF719FCBDE802
:102DE0001040002202494EF6602002F0C3BA0000F3
:102DF000D92D000810B5FFF76DFDBDE81040002289
:102E000002494FF4FA7002F0B5BA0000F52D00083F
:102E100010B50446006890F9081011F1040F1FDB8B
:102E20004368DBB1007800F0F000102810D02028B3
:102E300006D0402814D11846616802F03DF804E03D
:102E400022891846616804F037FB2168087207E0A0
:102E500022891846616802F0B1FBF6E7F72101729A
:102E60002068C068BDE8104002F056BA01684A68A0
:102E700012B10A78102A05D0F7220A720068C068D9
:102E800002F04ABA04224A70006800F001B800005B
:102E900010B504464068002102F08EFB6068017C9A
:102EA00001294FF0000129D003F072FE0021606873
:102EB00002F002FB0021606803F0A7FF042200215A
:102EC000606803F097FA0021606802F0D8FD60683E
:102ED00002F0D4FBA8B11549606803F096FF042204
:102EE0001349606803F086FA1249606802F0C7FD72
:102EF00021466068BDE8104002F05EBB02F0DCFADB
:102F0000E5E70020607060602072A36A4BB1002288
:102F1000114620469847A36A1BB100220221204691
:102F20009847E068BDE8104002F0F6B9AB500008E1
:102F3000E94B00086D31000810B50446006841688F
:102F400091B1027802F0F002102A21D0202A05D097
:102F5000402A09D1084602F005F805E00020C861C2
:102F60002068406804F098FB2068836A43B100221F
:102F7000114698472068836A13B1002202219847BE
:102F80002068C06800280AD0BDE8104002F0C4B92B
:102F9000042141702068BDE81040FFF779BF10BDE3
:102FA00070B50446006890F9081011F1040F08DBB1
:102FB000426832B10178102903D1117C39B1F8216E
:102FC00001722068C068BDE8704002F0A5B9FF2119
:102FD000104602F09BFF05004FF0FF360BD0206833
:102FE000006920B102F056F92168002008612068CC
:102FF000406918B10AE020680672E2E74FF4FA600F
:1030000002F051F9216800284861F4D02068017A63
:103010000029D6D102214170216828464D602168DF
:1030200002F0CAFA20680249406802F045FAC8E78F
:103030006124000810B504460068406810B92046B5
:1030400001F060FD2068C068BDE8104002F064B97E
:1030500010B50446006890F9081011F1040F08DB60
:10306000426832B10078102803D1A188104603F0DD
:10307000A4FD2068C068BDE8104002F04DB90168A9
:1030800091F9082012F1040F06DB4A6812B10A78A0
:10309000102A05D0F7220A720068C06802F03CB915
:1030A00001224A70016808620268002151620068CA
:1030B000AFF300802DE9F041026A0446406A51688E
:1030C000936801440027181AB0F5803F02D34FF6E9
:1030D000FF7500E085B26668B6F86E00A84200D2BF
:1030E0000546137B2A46304604F021F8002618B125
:1030F000411C37D020722EE0606A28446062216A49
:103100008968884203D1266266620127667060681A
:10311000816F61B190F8221011F0440F07D1416F17
:1031200041B10A681AB98989028F914202D302F02B
:103130006BFF00E00020207260B9606840F64261D9
:10314000B0F86E00884205D8A36A1BB12A46032155
:10315000204698471FB16670E06802F0DDF8002055
:10316000BDE8F081606802F04FFFF8E770B5002518
:10317000456004460172006948B1A36A1BB1002290
:103180001146204698470021206902F090F8E06837
:1031900030B16078032803D16570E06802F0BCF8B4
:1031A000606948B1A36A1BB10022114620469847C6
:1031B0000021606902F07BF86078012801D00428C2
:1031C00005D16570E068BDE8704002F0A5B870BD3B
:1031D0002DE9F84306008846914666D0B9F80A0002
:1031E0002A285FD3D9F80450012005F10E0400F01D
:1031F000D1FA2188884255D140F2046000F0CAFA21
:10320000A18888424ED14FF4006000F0C3FA618873
:10321000884247D140F6060000F0BCFAA9898842EE
:1032200040D1D4F80E000090A169706820B18142AD
:1032300002D101273B4601E000273B4604F108028A
:103240006946304604F096FAE08800F0A3FA0128B7
:1032500002D0022826D121E0FFB1022000F09AFA24
:10326000E080D4F80E00A0617068C4F80E0006215A
:10327000491E11F0FF0104EB0100027A82746A54C6
:1032800018F80120027205EB010218F80100907194
:10329000EED1B26949463046904703E06946304670
:1032A000FFF726F9484601F0ADFBBDE8F8830000C2
:1032B0002DE9FC410E46054614460E21304601F02C
:1032C000C3FB18B16FF00100BDE8FC812946204620
:1032D00000F04DFC08B1234B29E04FF0704001F0A5
:1032E00097FA216800EA01074FF0604001F090FA78
:1032F000874223D101208DF8000000208DF80100C5
:103300005E208DF80200206801F082FA000CC0F304
:1033100006008DF80300206801F07AFA000A8DF8A3
:103320000400206801F074FA8DF805006B4605F181
:1033300027023146284600F0C3F8C5E7A86821688F
:103340006A6801400240914203D0E86838B105F153
:103350000C0432462146284600F006F8B4E76FF028
:103360000300B1E740EF00082DE9F04780460D4625
:1033700000F1270916464FF0FF374146284600F076
:10338000F6FBE0B9380701F043FA296800EA0104C6
:10339000780701F03DFA844211D085B1286870B1F8
:1033A0000121284600F020F900280ADB104901EB32
:1033B0000014A07A38B1012807D036B10BE06FF0C5
:1033C0000900BDE8F0870120A0722946404600F0C0
:1033D00065F807464EB1A07A022806D1231D4A4659
:1033E0003146404600F06CF807463846E9E70000F1
:1033F000505200202DE9F05F83460F4690469946D3
:1034000000222A210320DDF82CA001F005FA060095
:1034100040D075680D9805F10E0400F0BBF9E0800E
:103420000620401E10F0FF0004EB000119F80020F8
:103430000A721AF800208A7418F80010295405EB53
:103440000002395C9171ECD10A980068C4F80E0052
:103450000C980068A061012000F09CF920804FF4D6
:10346000006000F097F9608040F2046000F092F98B
:10347000A08040F6060000F08DF9A881DBF8182046
:103480005846314690470446304601F0BBFA204684
:10349000BDE8F09F4FF0FF30FAE700001FB50123B1
:1034A000064C021DCDE90213CDE9002400F12703EB
:1034B0001946A21FFFF79EFF04B010BD46EF00089B
:1034C0002DE9F0414D6806460F460624641E14F0AF
:1034D000FF0405EB0401185D2855105D8871F5D1D6
:1034E0004FF4006000F056F9A88139463046B269C1
:1034F000BDE8F0411047000030B500200C4A0446FA
:1035000002EB0011CB7A5B1CDBB2CB728D7A022D01
:1035100002D0012D03D005E0F02B02D202E0022BF5
:1035200000D38C72401CC0B20A28E9D330BD000021
:103530005052002070B5044640680D46808900F066
:1035400029F9B0F5006F04D0A0F50060063806D167
:103550000EE06FF00D01204601F076FA18B120461A
:1035600001F050FA0AE02946204600F019FB05E078
:10357000224605F127012846FFF72AFE002070BDEC
:1035800010B5732180F82E10742180F82F10074990
:1035900041610749816100F057FC0022054941F271
:1035A000883001F0E7FE002010BD0000B1320008B5
:1035B0009D3F0008D52400080A4C002364221946C8
:1035C000606804F023FC0128F7D1206800F0A2FC19
:1035D000216805460A6990470028EED0284601F088
:1035E00011FAEAE7C80000202DE9F04F8B464FF0B2
:1035F0000A0C0021DFF8D0A0DFF8D080E146624657
:103600000C460D4678B19AF8007008EB07139E7AC5
:10361000022E08D106681B689E4204D178B2BDE82C
:10362000F08F0A2A03D108EB01139B7A3BB108EB18
:1036300001139E7A012E04D0022E0ED01CE04AB255
:103640001AE018B106681F68BE420BD0DB7AA342AD
:1036500012D34FFA81FC1C460EE038B106681F6891
:10366000BE4203D18AF8001048B2D8E7DB7AAB42F9
:1036700002D34FFA81F91D46491CC9B20A29D0D399
:103680004FF0FF310A2A02D15FEACB731AD05FEA0A
:103690008B7317D40A2A01DAD1B20AE0B9F10A0F02
:1036A00002DA09F0FF0104E0BCF10A0F0ADA0CF0BB
:1036B000FF0108EB01120023937208B1006810604B
:1036C000D372CFE70846AAE7C4000020505200207A
:1036D00070B5074D0446C1B22846FEF729FA4021CD
:1036E0002846FEF787F90028F9D0204670BD000073
:1036F00000480040AFF30080094A002101EB41037C
:1037000002EBC303834206D101EB410102EBC1018D
:10371000002008757047491C0A29EFDB704700003C
:10372000240200202DE9F0410746002016490646F4
:1037300000EB400201EBC202127D2AB1401C0A28B4
:10374000F6DB0020BDE8F081012200EB400011EB28
:10375000C0042275F5D00D4D05E038466968FCF7C8
:10376000B8FD30B12D68002DF7D12046FFF7C4FF1A
:10377000E7E7A8682060E8686060E868C4E90206D6
:10378000287C20742046DDE724020020A4E80008FD
:1037900000BA704740BA704708B5032000904FF454
:1037A000FA730022024903A001F0BCFD08BD00002D
:1037B000BD370008485454500000000070B5002286
:1037C0001146102000F0E4FE040017D05022002122
:1037D00000F058FE20B10AA0BDE87040FEF7AEB977
:1037E000FF21204600F0C0FE204600F0FCFD05460B
:1037F00000F01EF8284600F06FFEF5E706A0EBE7A4
:1038000063616E206E6F742062696E64206E6574F1
:10381000636F6E6E0000000063616E206E6F742037
:10382000637265617465206E6574636F6E6E00000F
:103830007CB5064600F0D0FE050049D0307A00285D
:1038400046D101AA6946284600F09AFDBDF8040059
:1038500005283DD3052228A10098FCF748FD002843
:1038600036D11B2226A10098FCF741FD002836D056
:103870001F222AA10098FCF73AFD002831D01D2212
:103880002EA10098FCF733FD00282CD0182233A17C
:103890000098FCF72CFD002827D0132236A10098B1
:1038A000FCF725FD002824D0062238A10098FCF75B
:1038B0001EFD00281DD037A0FFF734FF044600236B
:1038C000D4E90012304600F0EFFE2046FFF712FF69
:1038D000304600F0EDFD284600F065FD7CBD09A0F6
:1038E000EAE70FA0E8E716A0E6E73046FDF7C2F8E2
:1038F000EEE722A0E0E70000474554202F0000003B
:10390000474554202F53544D3332463278375F6643
:10391000696C65732F53542E6769660047455420C0
:103920002F53544D3332463278375F66696C657376
:103930002F73746D33322E6A7065670047455420CB
:103940002F53544D3332463278375F66696C657356
:103950002F6C6F676F2E6A70670000004745542018
:103960002F53544D3332463278375441534B532EF4
:1039700068746D6C00000000474554202F53544D6F
:103980003332463278372E68746D6C0047455420C8
:103990002F2000002F3430342E68746D6C0000002E
:1039A0002DE9FC4707460E464FF00308002224216C
:1039B000012000F031FF050023D06C68D7F8049097
:1039C0001C2284F8008066700026A680E680686865
:1039D00079680830FCF736FC66806989204600F07B
:1039E0009CF860800120CDE90060FF2309F10C0202
:1039F0000021284600F092F92846BDE8FC4701F076
:103A000001B8BDE8FC872DE9FE4F446805468A46AB
:103A1000208800F0FFFEC0F303204FEA8009C9F1BF
:103A200000018846284601F00FF8002870D1288947
:103A300004286DD368680078082869D101264FF002
:103A4000704000F0E5FE216900EA01074FF0604098
:103A500000F0DEFE874200D10026514604F110003E
:103A600000F085F8002853D1002E51D0288908286D
:103A70004ED3284600F057F8E8BB2221284600F034
:103A8000E3FFD0B14946284600F0DEFF98BB298904
:103A90000022022000F0C0FE060039D0294600F0C6
:103AA00069FF40BB41463046746800F0CDFF10BB53
:103AB000284600F0A7FF354605E06FF021012846B3
:103AC00000F0C2FFB8B96868E1682269E26021616C
:103AD000002606704680208900F09CFEC0B240F4AB
:103AE0007F40FFF757FE208166814946284600F057
:103AF000ABFF00B900E00BE00121CDE90061FF233D
:103B00000022CDF808A004F10C01284600F020F9AD
:103B10002846BDE8FE4F00F075BF10B500F07FFAF3
:103B2000C04380B210BD70B500242646054613E0A0
:103B30006989686800F073FA204481B201EB10448F
:103B40006889C00707D0C6F10100C6B2E0B2C4F36D
:103B5000072141EA00242D68002DE9D126B1E0B209
:103B6000C4F3072141EA0024E04380B270BD00683D
:103B7000421C12D088B191F82D2092070BD54A68CB
:103B8000824208D0896800EA01030A40934202D1C8
:103B90000143491C01D000207047012070470000FC
:103BA0002DE9F05F446880460E46208800F032FE22
:103BB0000421B1EB103F12D1208800F02BFEC0F39E
:103BC00003204FEA8009608800F024FEB8F80A203C
:103BD00001464A4503D3B8F80800884203D240465C
:103BE00000F010FF93E0404600F05EFFDFF824A1F4
:103BF0000127354604F1100B284600F099FD68B105
:103C0000281D0BD0686848B12169814204D029463B
:103C10005846FFF7ACFF08B15DB117E01FB10027B0
:103C2000DAF8005000E02D68B54200D12D68002D73
:103C3000E2D1208900F0EEFDC0B2112806D104EBDC
:103C40000900408800F0E6FD442827D0E06898B1DC
:103C5000314604F10C00FFF78AFF0028BFD14FF076
:103C6000704000F0D5FDE16800EA01074FF06040C8
:103C700000F0CEFD8742B2D0002DB0D043F6FF70E9
:103C8000FFF788FDE1880842A9D1234D314640461F
:103C9000C5E9016401F016F910B135E03546EBE7EE
:103CA000208900F0B7FDC0B2012812D006280BD041
:103CB0001128314604D05846FFF759FF70B120E073
:103CC000404603F027FC1FE03146404601F008FF64
:103CD0001AE031464046FFF796FE15E04FF070407F
:103CE00000F096FD216900EA01064FF0604000F007
:103CF0008FFD864205D040460221C8F80440FFF7F8
:103D00004FFE404600F07EFE00206860A860002064
:103D1000BDE8F09F40000020B80000202DE9FE43E0
:103D20000746DDE90A45884616469946104600F0E2
:103D300067F850B10094CDE901504B4632464146F8
:103D4000384600F005F8BDE8FE836FF00300FAE79F
:103D50002DE9F05F0646DDE90BA8DDF828B08946BD
:103D600015001F463FD0142100F06EFE18B16FF011
:103D70000100BDE8F09F7468208900F04BFD67F3F7
:103D80001F20FFF707FD208100F044FD20F0FF0019
:103D900040EA0A00FFF7FEFC2081286820614BF40E
:103DA0008A40FFF7F7FC20803089FFF7F3FC134FC0
:103DB00060804FF0000AA4F806A03888FFF7EAFCFC
:103DC000A0803888401C3880B9F1000F02D0D9F8A3
:103DD000000020B918F1040001D0D8F80400E06018
:103DE000A4F80AA001E07568103540462A4631461D
:103DF000D8F81430BDE8F05F18470000B800002084
:103E000070B505460E4804680DE0204600F090FCB1
:103E100040B1A0682968626801400240914201D126
:103E2000204670BD2468002CEFD1064C206820B1DC
:103E300000F07EFC08B1206870BD002070BD00005D
:103E400040000020440000202DE9FF4100F124043F
:103E50000626A6704FF00200E0704FF000052571B5
:103E60006571A571E571257240F2DC5020804FF03C
:103E70002200204F6072A4F124043C60786820B9CD
:103E80000021142003F0B9FF786004F1270100201D
:103E9000FDF762F9052218491848FCF725FF0522AD
:103EA00017491848FCF7DCFE164F002407EB4410B6
:103EB0000121FCF701FF641C052CF7D30F4F0024F0
:103EC0004FF4400807EB44104146FCF731FF641CF7
:103ED000052CF7D3CDE90065029500234FF4AF72AE
:103EE00009A10B48039504F0CDF8BDE8FF41FDF7AB
:103EF00021BA0000C800002024720020C053002016
:103F000060540020205300204574685F69660000FB
:103F1000B93500082DE9FE4300273E466846FCF708
:103F2000A7FFDDE9010500992A68120413D4804631
:103F3000032289B2104600F06FFC06000BD0044645
:103F400008EB070162896068FCF77CF960892468E6
:103F50000744002CF4D10F4801688A68012A00D96F
:103F60000D6800214FF0004202E02A60ED68491C14
:103F700003689B688B42F8D800680021816006487E
:103F80004269120602D58022426181603046BDE856
:103F9000FE830000F0000020009002402DE9F04177
:103FA000184D0C460026A86850B90021012003F0E6
:103FB000F5FEA86020B100231A46194603F0AAFFB7
:103FC0000023FA221946A86803F020FFB0B10E487A
:103FD0000068876807E06289B8196168FCF732F900
:103FE000608924680644002CF5D1B0B2FDF71CF9B5
:103FF00000231A461946A86803F08CFF0020BDE88C
:10400000F0810000C8000020E800002010B501F099
:10401000FDF800F081F8BDE8104000F075B930B44B
:10402000002207E003781C024378801C2343891E8A
:104030001A4489B20129F5D811B1007802EB0022A7
:1040400090B200EB1240010C02D081B201EB1040A3
:1040500030BC80B2FFF79EBB1FB500214FF6DC726B
:104060000020401C9042FCD3491C2429F8D3FDF7C2
:104070007DFAFCF7DBFC144C40212046FDF7BAFC2E
:104080000028F9D0012240F225512046FDF7D8FC46
:10409000FDF71BFAFCF7AAFDFDF732FA03F0A6F8CC
:1040A00003F0A0FBFFF778FB00200121CDE9001011
:1040B000029003460390802204A1064803F0E2FF29
:1040C00003F0D0FDFEE70000004800404C454434BA
:1040D000000000002919000870B5050019D00D4C2A
:1040E0002068854215D36068854212D20021E068BD
:1040F00001F052F8A5F1080000210171A168884281
:1041000000D2A06000F046FDE068BDE8704001F01C
:1041100003B970BD2C00002010B50C480C4C20F0E9
:1041200003004FF4A0512060018000224280027100
:1041300000F5A050012260600271018041801046AC
:1041400001F0D1F8E0602068A06010BD17030020E6
:104150002C0000202DE9F04100280CD0C01C20F0DC
:10416000030086B24FF4A0580C2E01D20C2604E0B6
:10417000464502D90020BDE8F081254D0021E868C0
:1041800001F00AF8AB682968C6F5A052581A80B247
:1041900038E00C1827799FBB27883F1A083FB742A1
:1041A0002FD322884FF0010C171A083F06F1140292
:1041B000974211D38219083296B28A1900271771D3
:1041C000278817805080268084F804C010884045D6
:1041D00004D08A1C865201E084F804C09C4209D1B4
:1041E000D5E9012003792BB1904203D0008808441F
:1041F000A860F7E7E86801F08FF804F10800BAE773
:10420000FFE7085A8242C4DCE86801F085F8B1E7AC
:104210002C0000202DE9F05F0646C91C21F00300A8
:1042200084B24FF4A05B0C2C01D20C2401E05C455D
:1042300011D82E4801688E4212D3426896420FD29E
:10424000A6F10805691A8FB22988C91B08391FFA17
:1042500081F94C4503D94FF00000BDE8F09F01D132
:104260003046FAE782464FF00001C06800F094FF44
:104270002988DAF800004FF000080A181179E9B12E
:1042800004F11401494514D8391908318AB2DAF811
:1042900008408118A14201D2CAF8081081F80480B0
:1042A0002B880B804F802A800988594501D0801CBB
:1042B0000A52DAF80C0001F02FF8D1E73919083169
:1042C000DAF80840138889B2944202D14218CAF839
:1042D0000820421882F804801380578029801288B1
:1042E0005A45E6D0801C1152E3E700002C00002064
:1042F000002905D0034A52F820300B6042F8201004
:104300007047000028170020F0B50020401C80B244
:104310000C28FBD31048104B20F0030200200F4D57
:104320000746333B05F1180443F82070002109E0EB
:1043300053F82060166043F8202035F81060491CBF
:10434000324489B234F810608E42F1D8401C80B2F9
:104350000C28E9D3F0BD00005B170020F4EE000844
:1043600001460C2801D300207047044A52F821006E
:104370000028F9D0036842F8213070472817002040
:104380006FF0090350B149B142B1436843B15B6872
:104390000B604068408910800020704718467047C5
:1043A0006FF00100704710B504000CD0206820B1F8
:1043B00000F028FB0020606020602146BDE810402E
:1043C0000520FFF795BF10BD4FF0FF3238B14168AF
:1043D000096821B14160086818B100207047104693
:1043E00070470120704738B504000ED0606900287E
:1043F0000AD00022694600F09BFEA36A1BB100228E
:10440000012120469847009838BD002038BD2DE98D
:10441000F04106460F460620FFF7A2FF040024D015
:1044200000252572267006F0F0014FF4FA606560F1
:10443000102905D0202903D0402902D1002600E010
:104440000646002000F04FFFE06080B1304600F0EB
:104450002AFF206188B1656165704FF0FF30A76267
:10446000A061A583256220466562BDE8F0812146F2
:104470000620FFF73DFF0020F7E7E06800F031FF7E
:10448000F5E7000010B586B004000CD00748CDE970
:1044900000040291ADF80C20684602F043FF94F945
:1044A000080006B010BD6FF00900FAE7112E0008F1
:1044B00010B586B0040009D00648CDE9000468466E
:1044C00002F030FF94F9080006B010BD6FF009004B
:1044D000FAE700006D2E000810B586B004000AD07F
:1044E0000648CDE90004684602F01CFF0020606029
:1044F000204600F005F806B0002010BD392F000856
:1045000038B504460069002530B90FE0207810283E
:1045100000980ED0FFF747FF6946206900F02EFE95
:10452000401CF3D1206900F0B5FE2561606940B9F7
:1045300011E00028F0D000F065FAEDE70098FFF7F1
:10454000CBFF6946606900F019FE401CF6D1606936
:1045500000F0A0FE6561E06800F0C3FE2146062081
:10456000E560FFF7C5FE38BD10B586B0040009D080
:104570000648CDE90004684602F0D4FE94F908002C
:1045800006B010BD6FF00900FAE70000A12F000887
:1045900030B50D4685B01146FFF739FF040016D03F
:1045A0000C4800908DF808506846019402F0BAFE5D
:1045B000207A60B1E06800F094FE206900F06AFEA5
:1045C00021460620FFF794FE002005B030BD2046AE
:1045D000FBE700003530000830B589B04FF000052A
:1045E0000400009555D020696FF00701E0B194F9FF
:1045F000082012F1040F4CDB2278102A16D000227A
:10460000694600F095FD009858B10268A18B1289A7
:10461000891AA183A36A23B1006801210289204677
:104620009847009809B030BD217232E060780228C6
:10463000FAD00520FFF794FE009058B1002202A99D
:10464000206900F075FD029830B10289A08B801AB4
:10465000A08302E0FF201BE00022A36A13B1012126
:1046600020469847029961B1009801600299416023
:1046700085810C498560CDE9041460B1006800892A
:104680000AE005200099FFF733FE207A08B9F920E7
:1046900020720020C6E70120ADF8180004A802F03F
:1046A00041FEBEE75130000810B586B0040006D0C8
:1046B0002078102806D06FF0080006B010BD6FF00B
:1046C0000900FAE70648CDE9000402918DF81030A0
:1046D0006846039202F026FE94F90800EDE7000018
:1046E0007F3000082DE9F0410446DDE9060700258A
:1046F000089E6560A560E56084F82D50C4E9070553
:104700000A4D287884F83000401C28702046266125
:1047100000F013F82046B84710B10020BDE8F08142
:104720006868206020466C60F8E700003C000020CC
:1047300090F82D0000F00100704770B50646144651
:104740001D4600F01FF82146304600F04FF829467C
:104750003046BDE8704000F010B8000001498860A4
:10476000704700003C00002090F82D10CA0703D0CD
:1047700021F0010180F82D10704701B10968C16076
:104780007047000070B505460C46086869688842A5
:104790001ED0144800680AE001686A68914205D199
:1047A0000121C66800F03EFE304600E0C0680028E7
:1047B000F2D10D48006809E007D0016829B16A68A4
:1047C000914202D144B121680160C0680028F3D150
:1047D0002CB12068686070BD4FF00001F4E74FF025
:1047E0000000F7E7600000205C00002001B10968CC
:1047F0008160704790F82D10CA0708D141F001017F
:1048000080F82D10890602D5011DFEF747BE7047BE
:1048100000BA704740BA70472DE9F0470E46174678
:10482000002530B1012805D0022805D003284DD13C
:1048300004E014251435ADB20E35ADB24FF0010AC7
:104840004FF00008F7B3012F5CD0022F5AD0032F8E
:104850003CD10B20FFF784FD040038D060191330E1
:10486000277320F00300C4E90080ED1C25F003004D
:10487000C0F5FA702681B04200DD304681B2618118
:10488000751AA4F80EA0A1464FF4FA7617E00B2093
:10489000FFF766FDB8B1077380F80D80C0F800809F
:1048A000A9B2C9F800000181B14200D3314641816B
:1048B00000F110024260A0F80EA06D1A8146002D92
:1048C000E5DC2BE005E0204600F09CF80020BDE888
:1048D000F08705F1130020F00301F01C20F0030025
:1048E000084480B2FFF736FC0400F0D060191330A2
:1048F00020F00300606026816681C4F8008084F89F
:104900000C800BE00A20FFF72BFD0400DFD0C4F879
:10491000048026816681C4F800802773A4F80EA065
:1049200084F80D802046D2E710B500280FD000296A
:104930000DD004E003890C892344038110460268EA
:10494000002AF7D102890B891A440281016010BD47
:1049500010B50C46FFF7E8FF2046BDE8104000F018
:10496000CBB8002102E0491C0068C9B20028FAD186
:10497000084670472DE9F0474FF0000605000C4649
:10498000374604D01CB128892189884203D26FF0B0
:104990000900BDE8F0876FF008096889811B60890C
:1049A000C01B814201DB80B200E088B280466068B3
:1049B0004246C11968683044FBF744FC06EB080026
:1049C00086B207EB080087B26889B04201D12D6832
:1049D00000266089B84201D8246800272CB160897C
:1049E0002189884201D1206830B93DB1688929897F
:1049F000884203D1286808B14846CAE7002CCCD1C8
:104A00000020C6E770B5002815D00024C189491ED2
:104A10000904090CC1810DD1017B056803290BD064
:104A200001290CD002290AD0FFF756FB641CE4B21E
:104A30002800EBD1204670BD01460B2001E0014665
:104A40000A20FFF755FCF1E710B541B138B1002954
:104A500007DA4A4293B242899A4223D302E0002005
:104A600010BD8BB2027B446832B1032A04D0022A03
:104A70000AD0012A08D015E0621A00F11003426042
:104A80009A4208D244600DE000290BDA42899A422A
:104A900008D3621A426042890A4442810289114461
:104AA0000181DCE7012010BD70B502898A4222D95C
:104AB0008A1A0D46044691B205E0281A85B220896B
:104AC0000844208124686089A842F6D3207B50B92D
:104AD0006089A84207D06068001B284481B2204644
:104AE000FFF798FB044665812581206808B1FFF730
:104AF00089FF0020206070BD002802D0C189491CB8
:104B0000C181704770B50446002021684FF0FF3521
:104B100008722068017801F0F00110292AD02029BC
:104B200014D0402905D0F7210172206890F90800BF
:104B300070BD207900F0FCF921684860226818B146
:104B4000124900F00BFAF0E71572EEE702F094FD5F
:104B500021684860216818B10978222902D003E051
:104B60000D72E2E70121017422680949506802F0E0
:104B700090FDDAE701F00CFA216848600100206836
:104B800002D000F0B3FAD0E70572CEE7914F0008EB
:104B90004350000830B5134903880A681344941C35
:104BA00098420DD01D795DB94D68AB4208D08D6833
:104BB0009D4200D188601D8805801B88851A1D5381
:104BC0004388134483420BD01D79002D08D18D6892
:104BD000854200D18B60018819800088991A0153A1
:104BE00030BD00002C00002010B54178012902D012
:104BF000042903D004E0FEF75DFA01E0FEF748F96E
:104C0000002010BD70B5154C6068002824D003F05A
:104C10004BF8134D2868D8B103F026FB02F0B8FE1C
:104C2000286808B1E868C0680546001D02F09DFECE
:104C3000A068401EA0606068401E606002F0B2FE86
:104C4000286B02F0B9FE2846BDE8704002F0B4BE01
:104C5000BDE8704003F008BB70BD00003C010020BF
:104C6000C0CC002030B40B46016800290DD0C468C8
:104C7000026C1444C4604568AC4201D2214600E095
:104C8000C16030BC1846FBF7DDBA30BC704710B5C8
:104C900004461046226C8AB1C8B1E068FBF7D2FA2C
:104CA000E168206C091AE1602268914202D26168D1
:104CB000081AE060A06B401CA06310BD20680028AB
:104CC000F8D1606802F070FF00206060F2E7A06831
:104CD000FBF7B8FA216CA0680844A06061688842BC
:104CE000E8D32068A060E5E7044C00BFFFF78AFF27
:104CF00020680128FAD902F07DFEF7E7F8CB002002
:104D00002DE9FE43814648680C469046406801F113
:104D100008054860A84201D1416861606068C768C1
:104D2000606840686060A84201D141686160606865
:104D3000C668316B002002E0491C401C80B20A7832
:104D4000A52AF9D0716C8008F26ACDE900200291A1
:104D5000434606F1340206A10A48FCF7FFFE094962
:104D60004846FBF794FABE42DAD1BDE8FE83000064
:104D70002573090925630925750925750925750D0B
:104D80000A000000D4CC002070B5044602F000FEFA
:104D900004F12405A06C0AE0606A50B1284603F0D3
:104DA00033FA08B102F0DCFEA06C401EA0640028BB
:104DB000F2DC4FF0FF36A66402F0F4FD02F0E8FDED
:104DC00004F11005606C0AE0206950B1284603F038
:104DD0001BFA08B102F0C4FE606C401E606400283B
:104DE000F2DC6664BDE8704002F0DCBD2DE9F04104
:104DF0000446002502F058FF264800F108024368E7
:104E000000F110015BB9244B0027C2E900374FF4D1
:104E10007056C1E90076C3E900160123436043F6EA
:104E2000FF3394B31034660704D004F00706C6F1CC
:104E300008063444661E9E4227D2164E1368083672
:104E400001E01E4613465A68A24202D21A68002A9E
:104E5000F7D18B4219D0356819683160596810351F
:104E6000091B20290DD91A1951600A495C600831C3
:104E7000566800E021460C686768B742FAD31460B0
:104E80000A6059680268511A016003F0EDF928467A
:104E9000BDE8F08124010020F88F002010B5031F29
:104EA0004FF08074A0F120001C6081614FF0000180
:104EB000416140F8202910BD01B10968016000205E
:104EC000704700002DE9F05F466883464FF0000808
:104ED0003089FFF79FFCDFF854A000F0FF090025A0
:104EE000DAF800401CE0217C494514D1676997B18C
:104EF00006F10C035A462146A069B84758B14FF055
:104F0000000B4FF0010835B1E068E860DAF80010F6
:104F1000E160CAF800402546E468B8F1000F01D10D
:104F2000002CE0D14046BDE8F09F00004800002082
:104F300070B505460020FFF713FA040009D01C21C4
:104F4000FBF799F92574FF20E07203480168E160DE
:104F50000460204670BD000048000020C0E9051232
:104F60007047000009490A68824209D1D2680A6084
:104F700008E0D16819B1814201D1C168D1600A4607
:104F8000002AF6D101460020FFF7B2B94800002000
:104F90002DE9F0410F46164604002FD0206910B3CA
:104FA000318900220320FFF737FC050026D0314667
:104FB000FFF7E0FCA0B90520FFF7D2F906000FD0FB
:104FC00035607560686831460C30B060387CB081FF
:104FD000206900F079F938B13046FFF7E4F90DE0C7
:104FE0002846FFF70FFD09E0A08B29890844A0831C
:104FF000A36A1BB12A890021204698470020BDE8FA
:10500000F08170B51146040008D0206930B12372D8
:1050100039B10D89A08B2844A08303E06FF008000C
:1050200070BD0025206900F04FF910B14FF0FF303E
:1050300070BDA36A1BB12A46002120469847002074
:1050400070BD2DE9F0411646DDF818801F460400BA
:1050500015D0206998B10520FFF782F9050010D01E
:105060002E60C5E90167A5F80C802946206900F08B
:105070002BF958B12846BDE8F041FFF794B9104626
:1050800000E03046BDE8F041FFF7BCBCA08B3189A1
:105090000844A083A36A002B05D032892046BDE8CE
:1050A000F04100211847BDE8F08170B50446407812
:1050B0001546012802D0042804D006E02046FDF75A
:1050C000F9FF02E02046FDF7E3FE6CB1606858B1DD
:1050D000B0F86E0040F64261884205D9A36A1BB160
:1050E0002A46022120469847002070BD10B544682A
:1050F0000146204600F060FA0949204601F048FDCB
:105100000849204601F081FE04220749204601F0AB
:1051100071F92046BDE81040044900F0B0BC000021
:1051200003500008AB500008E94B00086D3100083F
:105130002DE9F84380460C46174603F059F805461A
:1051400004B96C464FF0FF3667B100233A4621465A
:10515000404602F05BFE01280CD000202060304663
:10516000BDE8F883002332462146404602F04EFE59
:105170000128F7D103F03CF8401BF1E708B501B96D
:10518000694600231A4602F041FE012802D04FF082
:10519000FF3008BD002008BD2DE9F04107460E464E
:1051A00003F026F804464FF0FF3556B1002332468F
:1051B0001946384602F02AFE01280AD02846BDE8E2
:1051C000F08100232A461946384602F01FFE0128C6
:1051D000F7D103F00DF8001BF1E7000070B503F004
:1051E00001F8024608480021064C038806E000BF8B
:1051F00004EBC1004568954203D0491C9942F7DB96
:10520000002070BDF0520020D4000020002007498B
:10521000024600BF01EBC0035A6041F83020401C39
:105220000628F7DB0248028070470000F052002099
:10523000D40000202DE9F04105460E46FFF7CEFFD1
:1052400004000FD0206868B1426892B13146284608
:10525000FFF76EFF411C0CD021684A68824215D9C5
:10526000101A14E031462846BDE8F0410022FFF74D
:105270005FBF216808682060D1E902470920FFF775
:1052800037F8002CDAD03846A047D7E7002048602E
:10529000BDE8F08110B5044602F02AFB2046BDE8C7
:1052A000104002F0AFBB0421062002F077BD73B5B9
:1052B00005464FF0FF340023224601A9284602F09C
:1052C00029FE0128F7D17CBD13B500231A4601A998
:1052D00002F020FE012802D04FF0FF301CBD00205C
:1052E0001CBD02F08FBB70B505460021012002F005
:1052F00055FD040006D000231A46194602F00AFEA6
:1053000015B107E0002070BD002301221946204698
:1053100002F07CFD204670BD00231A46194602F0BB
:10532000F9BD0000F0B50746104C084685B0194697
:1053300023880A9D062B14D2002304AE0095CDE9E4
:105340000163039313468AB2394602F09BFE084B71
:105350002188049A03EBC103491C5A60218001286B
:1053600002D0002005B0F0BD1046FBE7D4000020BD
:10537000F05200202DE9F04105460E46174609205F
:10538000FEF7EEFF040010D0002084E8E100FFF7F4
:1053900025FF010009D0086830B14268AA4212D93D
:1053A000521B4260086820600C60BDE8F0814B68C9
:1053B000934207D94A686368D21A4A60016821603B
:1053C0000460F2E70846616842688A1A6260016810
:1053D0000029F3D0EBE770B504460D46FFF7FEFE5B
:1053E00000281ED0016800291BD000228B68A34230
:1053F00013D1CB68AB4210D162B108681060086865
:1054000018B142684B681A444260BDE870400920F8
:10541000FEF76EBF0A680260F1E70A4609680029D4
:10542000E4D170BD2DE9FF5F0446007C8B460A285D
:1054300032D0D4F824A0D4F85880BCB320680290AD
:10544000201D00D060680390278B268C21461948C8
:10545000D4F81490D4F8905000F09EFFA06F08B1DB
:1054600001F090FC606F08B101F08CFC2146022035
:10547000FEF73EFF1DB16FF004014846A847BBF19F
:10548000000F07D0CDE9007603AB02AA5146404693
:1054900001F01AFCBDE8FF9F06482146001D00F000
:1054A0007BFF21460220FEF723FFF3E7FFE7002002
:1054B0000290C7E760000020C16170476FF00400F0
:1054C000704700002DE9F04105460220FEF748FF35
:1054D000364C060035D100210A46A668A06906E0D0
:1054E000036BF31A8B4201D319460246C0680028A9
:1054F000F6D11AB101211046FFF794FF0220FEF702
:105500002FFF06001DD184467F216046A668626990
:105510000CE0537CAB4208D88B4206D8176BF71BC4
:10552000674502D3BC4610461946D268002AF0D11E
:1055300010B10121FFF776FF0220FEF711FF0600F0
:1055400031D0A021FAF797FE4020707441F68440D4
:10555000A6F86E000023A6F87030183640F66830C2
:105560003082708206F80E3CFF2006F80D0C4FF4D6
:105570000670308406203086B385F085C01FF08326
:105580000120708700F038FDF0643064706330658E
:10559000A068B06133770648F0660648F06786F881
:1055A0008530A6F118063046BDE8F0814C00002099
:1055B000976B000800DD6D00416170472DE9F041F7
:1055C0000546007C0C4618B16FF00C00BDE8F08178
:1055D00012B900F0E1FC024627486FF00A010068AA
:1055E0000BE0038B934207D1A0B3036893B38CB352
:1055F00026687EB3B3422DD0C0680028F1D11E4B7F
:10560000103B58690BE0068B964207D110B3066831
:1056100006B3FCB12768EFB1BE421BD0C0680028BA
:10562000F1D1D8680BE0068B964207D190B106689D
:1056300086B17CB127686FB1BE420BD0C06800282C
:10564000F1D1986909E0068B964205D10668276872
:10565000BE4201D10846B9E7C0680028F3D114B1B1
:10566000206800B128602A83D868E860DD6001F016
:10567000E3FC0020AAE700005C00002070B50546AE
:10568000007C052608283FD2DFE800F0041B242B0D
:105690002B3E3E3320480024C168A94201D1C9688D
:1056A00006E0C16129B1C968A942FAD1E968C069B7
:1056B000C1600020E86029465FF00200FEF718FE96
:1056C00027E0154800242946103000F065FE2946E1
:1056D0000320F3E7104800242946143000F05CFE54
:1056E000E9E70121284601F05AFB040009D12E7494
:1056F00007E00121284601F052FB040001D10920F6
:10570000287435B114B104E0002402E0284600F00A
:105710007BFC204670BD00004C00002010B5044604
:105720000846FEF76DFB38B1808C28B1283880B26E
:10573000844200D220460446204610BD2DE9FF4F8A
:1057400085B0064613999B4642EA010050EA8B71E8
:1057500091466FF009007CD0B9F1000F02D1069993
:10576000002976D1B6F86E10494505D216F8220FF9
:1057700040F08000307017E1069801901398CDF842
:105780000890C00701D0042100E000211398800791
:1057900001D50C2000E0002008440390B06E049076
:1057A000B6F870A0BAF1140FE0D20025A846318FE8
:1057B0000398081A0299884200DB084680B20090DC
:1057C0000420FEF7CDFD04005ED00027276067604F
:1057D000B8F1000F22D02C6012982546C0071FD0C8
:1057E000039900980022084481B21046FFF714F88C
:1057F00060600028E8D0FFF7B4F850441FFA80FA40
:10580000069838B16068416803980844DDE90021D2
:10581000FAF718FD60684068A06024E0A046DBE766
:10582000002210460399FEF7F7FF60600028CBD0F6
:10583000FFF797F850441FFA80FA029898B10122B6
:1058400003200099FEF7E8FF010018D00AF10100DB
:1058500000E0ABE01FFA80FA019848600198A06070
:105860006068FFF761F8BAF1140F0DD80098A081B5
:1058700014216068FFF7E8F8002805D105E06068AA
:10588000FFF7C0F80020606084E060684068206135
:10589000308BFDF77FFF21690880308CFDF77AFFA0
:1058A000216948800498FDF773FF216948602069E9
:1058B00047824FF6C070FDF76DFF2169898900EAC4
:1058C00001075846FDF766FF074320698781139853
:1058D000A07320698089FEF79DFF039900F03F00C7
:1058E0008908090301F5A041084380B2FDF752FF82
:1058F0002169888100990298401A80B20290049828
:1059000008440490019808440190029800287FF40C
:105910004EAF756F002D7CD000E00546286800284A
:10592000FBD1002D7AD028698089FEF773FF8007AC
:1059300000D00120A989401873D028698089FEF71A
:1059400069FF80076DD15FEA8B7002D0BBF1010F58
:1059500067D1A989B8F80C000844318F884260D813
:10596000A97B98F80E0081425BD128694068FEF758
:105970004FFFA9894718D8F810004068FEF748FF84
:1059800087424ED10399D8F8040014314942FFF7F9
:105990005BF870B116F8220F40F0800030705FEABB
:1059A000080001D001F0EEF94FF0FF3009B0BDE87A
:1059B000F08FD8F80400418951B902680021C8F875
:1059C00004200160AAF101011FFA81FAFFF71AF819
:1059D0005FEACB7008D00120FDF7DCFE01462869A4
:1059E0008289114381810CE0D8F804106868FEF7C1
:1059F0009BFFA989B8F80C000844A881D8F80000DA
:105A00002860444502D1A8892C46009041460420D4
:105A100001E003E005E0FEF76BFC04E0C6F87480EB
:105A200001E0C5F800805FEA8B7003D009F1010046
:105A30001FFA80F95FEACB7005D096F8220040F09B
:105A4000200086F8220056F8681F01EB090030603C
:105A5000F188A1EB0900F080A6F808A06CB10098CD
:105A600058B1206948B11298800706D40820FDF784
:105A700091FE21698A8910438881002096E7C0F849
:105A80009010704770B51548446923E0E26F7AB111
:105A9000D4F8845025B1002321466069A84704E06A
:105AA00000232146184601F076F808B90020E06787
:105AB00094F82200C1070CD040F0020084F82200C4
:105AC000204600F0A1FA94F8220020F0030084F8A8
:105AD0002200E468002CD9D170BD00004C000020E9
