:020000040800F2
:10000000E8810020990100084F1100080110000844
:100010004D110008730700086D150008000000006E
:100020000000000000000000000000009113000824
:100030009F07000800000000511100083D1400084F
:10004000B3010008B3010008B3010008B3010008C0
:10005000B3010008B3010008B3010008B3010008B0
:10006000B3010008B3010008B3010008B3010008A0
:10007000B3010008B3010008B3010008B301000890
:10008000B3010008B3010008B3010008B301000880
:10009000B3010008B3010008B3010008B301000870
:1000A000B3010008B3010008B3010008B301000860
:1000B000B3010008B3010008B3010008B301000850
:1000C000B3010008B3010008B3010008B301000840
:1000D000B3010008B3010008B3010008B301000830
:1000E000B3010008B3010008B3010008B301000820
:1000F000B3010008B3010008B3010008B301000810
:10010000B3010008B3010008B3010008B3010008FF
:10011000B3010008B3010008B3010008B3010008EF
:10012000B3010008B3010008B3010008B3010008DF
:10013000B3010008B3010008B3010008B3010008CF
:10014000B3010008B3010008B3010008B3010008BF
:10015000B3010008B3010008B3010008B3010008AF
:10016000B3010008B3010008B3010008B30100089F
:10017000B3010008B3010008B3010008B30100088F
:10018000B3010008DFF80CD000F084F90048004704
:10019000A5330008E881002006488047064800474C
:1001A000FEE7FEE7FEE7FEE7FEE7FEE7FEE7FEE727
:1001B000FEE7FEE7411400088501000840EA01035C
:1001C0009B0703D009E008C9121F08C0042AFAD20D
:1001D00003E011F8013B00F8013B521EF9D27047D1
:1001E000D2B201E000F8012B491EFBD27047002279
:1001F000F6E710B504460846114602462046FFF7CA
:10020000EFFF204610BD30B50EE003460A4601E080
:100210005B1C521C1C781578AC4201D1002CF7D124
:1002200015F0FF0F04D0401C0278002AEDD1002009
:1002300030BDCAB20178914203D009B1401CF9E740
:10024000002070470146002000E0401C0A5C002AA4
:10025000FBD1704710B5002200E0521C835C8C5C1F
:10026000A34201D1002BF8D1D8B2E1B2401A10BD9F
:1002700030B505460020034600E05B1C934205D2E2
:10028000EC5CC85C201A01D1002CF6D130BD2DE900
:10029000FE4F81EA030421F0004504F0004423F0FE
:1002A00000414FF0000A009450EA050302D052EAE0
:1002B000010304D10020014603B0BDE8F08FC1F373
:1002C0000A53C5F30A541C44A0FB02B3C5F313053B
:1002D00045F4801CC1F3130141F480180CFB023378
:1002E00000FB083EA4F2F334810A930A41EA8C51E0
:1002F00043EA88530194A1FB03474FEA9C2505FB81
:1003000003734FEA982601FB06373D05260545EAAB
:100310001435BBEB06016EEB0503850E920E45EA24
:100320008C1542EA8812A5FB0206261E67EB000721
:100330000C0D44EA0334A41947EB1350C1F3130620
:100340004FF0000319464FEA033343EA165343EADA
:100350000403019CE5FB0201A4F10C040294009C3F
:100360004FEA0632CDE900A400F042F8A4E70EB54A
:1003700040F2334102910021CDE900110A460B46BB
:1003800000F036F803B000BDC1F30A52C1F3130107
:1003900040F2FF3341F480119A4201DA00207047A5
:1003A00040F233439A42A2F2334202DC524200F05E
:1003B00002B890407047202A04DB203A21FA02F06C
:1003C0000021704721FA02F3D040C2F1200291408F
:1003D00008431946704710B5002B08DA401C41F15C
:1003E000000192185B411A4301D120F0010010BDB9
:1003F0002DE9F04D92469B4611B1B1FA81F202E02F
:10040000B0FA80F22032904600F056F806460F46C9
:1004100040EA0A0041EA0B0152465B46084303D119
:1004200030463946BDE8F08D194652EA010015D034
:10043000C8F140025046FFF7BEFF04460D46504645
:100440005946424600F038F8084301D0012000E048
:100450000020044345EAE07526432F430A984FEAFB
:10046000D625A0EB08000A304FEA46534FF00002B1
:1004700045EA47554FEAD72402D500200146D1E787
:10048000010550196141DDE9084500196941BDE8E0
:10049000F04DA0E7064C074D06E0E06840F0010390
:1004A00094E8070098471034AC42F6D3FFF76EFE8D
:1004B0007CE600089CE60008202A04DB203A00FACB
:1004C00002F1002070479140C2F1200320FA03F3AB
:1004D00019439040704770B501EB020410F8015BBE
:1004E00015F0070301D110F8013B2A1106D110F8CD
:1004F000012B03E010F8016B01F8016B5B1EF9D1D1
:100500002B0705D40023521E0FD401F8013BFAE754
:1005100010F8013B02F10202A1EB030303E013F820
:10052000015B01F8015B521EF9D5A142D6D3002030
:1005300070BD0029816802D041F0010101E021F085
:100540000101816070470000094B10B51A68094924
:1005500002EA0102D0E9001441EA0401D0E90240B4
:1005600044EA000441EA040141EA0201196010BDB5
:1005700004230140E030FCFF10B501218CB088025B
:1005800000F00CFE08200A9003208DF82C000024B7
:100590008DF82F400AA9164800F0E4FC4FF4003013
:1005A000CDE90640089406A80994FFF7CDFF6846F8
:1005B00000F0D5F800948DF80440012002940494D2
:1005C0000C4C8DF805008DF814006946204600F0AB
:1005D00061F8032301221946204600F081F8012129
:1005E0002046FFF7A6FF204600F0B4F80CB010BD7F
:1005F0000000024000220140C06C80B27047000041
:1006000070B50C4608B1002070BD1E4D2868012849
:1006100003D1FFF7B1FF002028601B48FFF7ECFF74
:10062000FFF7A5FE194A1A4BFFF731FEFFF7ACFEA4
:100630004FF47A71B0FBF1F1CAB26FF07C01514313
:1006400000EBC1016423B1FBF3F1CBB24FF47A713B
:10065000514303EBC30505EB031501EB8505411B76
:100660000A26B1FBF6F101EB81063032303305EB9F
:10067000460522703031401B6370A1703030E0704D
:10068000042070BD10000020002201409A99999921
:100690009999E93F30B542680F4B0C791A400B68C5
:1006A00042EA04221343436082680C4B4D791A409E
:1006B000D1E9034323438C6844EA450423431343AD
:1006C0008360C26A097D22F47002491EC9B242EAFF
:1006D0000151C16230BD0000FFFEFFFCFDF7FFC00D
:1006E00070B5072509290AD9C468A1F10A0606EBE5
:1006F0004606B540AC43B3401C43C46007E0046900
:1007000001EB4106B540AC43B3401C4304611F23D9
:10071000072A09D2446B521E02EB820293409C438B
:1007200091400C43446370BD0D2A09D2046BD21F63
:1007300002EB820293409C4391400C43046370BDE2
:10074000C46A0D3A02EB820293409C4391400C43F1
:10075000C46270BD816841F08041816070470021B2
:100760000160017141718160C16001610121017508
:100770007047FEE71FB54FF4E13000900020ADF860
:100780000400ADF80600ADF80800ADF80C000C2030
:10079000ADF80A006946002000F062FD1FBD7047F9
:1007A0001FB500F0DBF800F087FA042000F03AFEF5
:1007B000684600F0FFFC01986421B0FBF1F0B0F155
:1007C000807F0CD220F07F414FF0E020491E416134
:1007D000034AF021117000218161072101611FBDD1
:1007E00023ED00E0174A506803681146002B896822
:1007F00008DB0368DB0505D548608868401C886015
:10080000012070470368002B0CDB03689B0509D5AA
:100810000368DB0506D4086000204860012088607A
:1008200050680BE00368002B0ADB03689B0507D4C4
:100830000368DB0504D48B685B1C8B60C068506068
:10084000002070470001002005490028886902D077
:1008500040F0020001E020F00200886170470000D3
:1008600000900240F0B5124E00244FF0004E44F2CA
:10087000F45C551E706013E000EB4413C3F800E015
:10088000C4EBC41707EB470701EB8707C3E901C7B0
:10089000AC4203D203F12007DF6000E0D860641CA3
:1008A0009442E9D30349C8600348B060F0BD00003A
:1008B0000001002000900240DC7D00200549002856
:1008C000886902D040F4005001E020F400508861B3
:1008D0007047000000900240F0B50F4B00244FF429
:1008E0008016551E186011E000EB44131E60C4EB27
:1008F000C41707EB470701EB87079F60AC4203D2A1
:1009000003F12007DF6000E0D860641C9442EBD361
:1009100002490861F0BD0000000100200090024083
:1009200002680A430260704710B501214C06204658
:1009300000F01CFC2046BDE81040002100F016BC71
:1009400000E0401E0028FCD1704700000248816989
:1009500041F4801181617047009002401CB5012173
:10096000072000F0F7FB0121880300F017FC4FF48B
:100970008070009003208DF8050002208DF804009F
:1009800000208DF80600294C8DF8070069462046A6
:1009900000F0E8FA61024FF4C00000F057FC0120BB
:1009A00000F0F8FC862000906946204600F0DAFA54
:1009B0000B220121204600F013FB0B2202212046CE
:1009C00000F00EFB0B220721204600F009FB4FF43C
:1009D0006050174C00906946204600F0C3FA0B2285
:1009E0001146204600F0FCFA0B220C21204600F0B4
:1009F000F7FA0B220D21204600F0F2FA32200D4CBE
:100A000000906946204600F0ADFA0B2201212046F5
:100A100000F0E6FA0B220421204600F0E1FA0B2256
:100A20000521204600F0DCFA1CBD00000000024059
:100A30000004024000080240034900200968C90779
:100A400000D00120704700000090024030B50A4BF2
:100A500059680A689C68C2F30D42121FA568012DEF
:100A600002D92468A46800E08C68CD685D600260EB
:100A7000C0E9014130BD0000000100202DE9FF4127
:100A80007A4D044688462869002720F01C066846EF
:100A900000F090FB76490198764A0144914202D2D7
:100AA00046F008060EE07449744A0144914202D2AD
:100AB00046F00C0606E0724908447249884201D3A8
:100AC00046F004062E614FF400420021404600F03B
:100AD00023FA002825D06C48FFF732FF206878B34E
:100AE0006A4E7F1C0121404600F090F9400701D476
:100AF000B742F6D3B74213D000274FF4805239469D
:100B0000404600F009FA00280BD07F1C0121404626
:100B100000F07CF9800601D4B742F6D3B74203D186
:100B2000002004B0BDE8F0811021404600F06EF9CD
:100B300042074FF0000104D54FF40062226201E049
:100B400008E02162800701D5616114E04FF4804024
:100B5000606110E0206A0021C0F3CF026069C0F339
:100B60004F000243404600F0D7F90028D9D06FF07B
:100B70007F40FFF7E5FE296845480140D4E90102BE
:100B80001043D4E903231A43104362691043A26956
:100B90001043E2691043226A1043626A1043A26A5A
:100BA0001043E26A1043226B1043626B1043084308
:100BB0002860D4E90E010843D4E910121143084318
:100BC000A16C0843E16C0843216D0843616D084343
:100BD0006860A06DA860E06DE860A9694FF641709B
:100BE0000140D4E919021043236EE26E42EA034247
:100BF0001043226F1043626F10430843A861D4E989
:100C00001E010843E86123498A6923480240D4E968
:100C100020031843D4E922352B431843D4F89030ED
:100C20001843D4F894301843D4F898301843D4F8C3
:100C30009C301843D4F8A030184310438861D4E99D
:100C400029021043D4E92B231A431043D4F8B420CB
:100C500040EA8200D4F8B820104340F40000086055
:100C6000086840F08000086001205AE700800240D8
:100C700000D3CEFEC0E1E40040F1E9FD40787D0103
:100C800000796CFC005A6202FFFF0F00FFFF0400B6
:100C90000F8120FF00900240233FDEF8054B8A8839
:100CA000184402640A78D1F8011042EA0121416433
:100CB000704700000080024000B5AFB001214FF046
:100CC000606000F047FAFFF72FFE00F0C7F800BFA2
:100CD000FFF7B2FE0128FBD0684600F0D8F80120EB
:100CE000009000204FF40071CDE90A10090407902C
:100CF0001190CDE920010E90149013900A111590D7
:100D00002590269023920420CDE9280180032A9083
:100D100080012B9040122C9040002E9001216846BB
:100D2000FFF7ACFE2FB000BD05490028086802D0CF
:100D300040F0040001E020F004000860704700006B
:100D40000080024005490028086802D040F00800F1
:100D500001E020F0080008607047000000800240B9
:100D6000F0B5284D00242A681168002901DA002016
:100D7000F0BD40F2F453984213D9B0FBF3F103FBFA
:100D8000110606B1491C01290BD0C1F10107C7EBBF
:100D9000C71707EB470700EB87004E1EC0F30C0098
:100DA00023E0116841F040511160C0F30C00506025
:100DB000106840F000401060D068286018E034B936
:100DC0002F68D7F800C04CF0805CC7F800C05360B3
:100DD000B44204D1176847F0005717605060176895
:100DE00047F000471760D268641C8C42E7D32A6042
:100DF00005484169490703D504214161002141604B
:100E00000120F0BD000100200090024030B5114AE1
:100E1000002314694FF6FF7504F01C0405EAC02096
:100E200020434FF4F86404EA8111014321F00200E9
:100E300040F001001061084811695B1CC90701D02E
:100E40008342F9D3834201D1002030BD506980B282
:100E500030BD000000800240FFFF0400024801682E
:100E600041F00101016070470090024000B501208F
:100E7000FFF768FFFFF76AFD0120FFF755FF01202C
:100E8000FFF71CFD01205DF804EBFFF7DDBC01213D
:100E900001600021416081604FF48042C160C0E97F
:100EA0000412D2108161C0E9071241628162C162FD
:100EB0000163416340228163C0E90F122022C0E92F
:100EC0001121C1640165416581658022C165C0E968
:100ED00018128166C16601674167D2048167C0E963
:100EE0001F125210C0E921211311C0E92331C0F8AB
:100EF0009410C0F89810C0F89C10C0E92812521243
:100F0000C0F8A8209201C0F8AC205212C0E92C21F0
:100F1000C0F8B8107047000070B5104B00241D6970
:100F20004FF6FF7605F01C0506EAC02028434FF473
:100F3000F86505EA8111014341F003005A61186127
:100F400007481969641CC90701D08442F9D3844257
:100F500001D1002070BD012070BD00000080024062
:100F6000FFFF0400F0B5002201234FF0030C00BF87
:100F70000D6803FA02F42540A5422DD106685400FD
:100F80000CFA04F5AE4306600E790768A6403E43AE
:100F900006600E79012E01D0022E12D18668AE4372
:100FA00086604D798668A54035438560456803FABB
:100FB00002F6B543456045688E799640B6B2354332
:100FC0004560C56856000CFA06F7BD43C560CD798B
:100FD000A540C4682543C560521C102AC8D3F0BD83
:100FE0004B07DB0E9A40C90810B500EB8100016A7F
:100FF0000F249C40A1430162016A1143016210BDAC
:10100000FEE700002DE9F0410E4617461D4600247C
:1010100078BB002000F0A4F9012000F0A1F9022023
:1010200000F09EF9032000F09BF927E057F8240018
:1010300015A1FFF70FF900BB55F8240013A1FFF726
:1010400009F9C0B155F8240011A1FFF703F960B107
:1010500055F824000FA1FFF7FDF840B155F8240022
:101060000DA1FFF7F7F828B107E0012003E0022007
:1010700001E005E0032000F07FF9641CB442D5D301
:1010800006A0BDE8F08100006C656400310000003E
:101090003200000033000000340000002F53544D94
:1010A0003332463278374C45442E68746D6C0000FC
:1010B00000B587B002F0AEF902F082FA104800F0F5
:1010C00099FF03906FF0FF0000F094FF04900C482C
:1010D000663800F08FFF05900A4A0B4900208DE822
:1010E000070005AB04AA03A9084802F0A5FA0748BF
:1010F00002F0DEFA054802F01BFB07B000BD00005D
:101100006701A8C0111C0008651C000838010020F8
:1011100070B50A4D04462868201AFA2802D32C60BC
:1011200004F07CFB686841F28831201A884204D3BD
:101130006C60BDE8704000F041BD70BD080000204B
:10114000014800F0A3BD000038010020FEE7704711
:1011500070470000044A0029116801D0014300E0F3
:10116000814311607047000030380240044A002972
:10117000116801D0014300E0814311607047000015
:1011800010380240044A0029116801D0014300E0F0
:10119000814311607047000040380240044A002932
:1011A000116801D0014300E08143116070470000E5
:1011B0004438024070B5214B1968214A11F00C01E6
:1011C00004D0204E042903D0082903D002601BE07C
:1011D000066019E01949091F0C68C4F380550C68B2
:1011E00004F03F0415B1B6FBF4F201E0B2FBF4F2F7
:1011F0000C680968C4F388146243C1F30141491CB7
:101200004900B2FBF1F1016019680F4A01F0F001E9
:101210000909545C0168E14041601C6804F4E05431
:10122000A40A145D21FA04F484601B6803F460438B
:101230005B0BD25CD140C16070BD00000838024039
:101240000024F40040787D01ED000020034A13687B
:10125000084323F0EC6318431060704708380240DD
:101260002DE9FC418846044629492948091D50F8C2
:10127000240051F8241008430121FFF76BFF2CB91B
:1012800023480121001F0068FFF77CFF2048214E02
:101290001638025D801E015D56F82400FFF7A0FE9F
:1012A0001B48371D1538025D801E015D57F824006C
:1012B000FFF796FE00208DF8060001208DF807004C
:1012C0001348022514388DF8045030F814000090AB
:1012D0008DF8055056F824006946FFF743FE0C4888
:1012E0008DF804501238694630F81400009057F811
:1012F0002400FFF737FE351F414655F8240000F063
:10130000D9F855F82400012100F0CAF8BDE8FC81A5
:1013100084E50008100100201CB504460E48012198
:1013200050F82400FFF716FF0B480021083830F86A
:101330001400009001208DF804008DF806108DF83F
:10134000070002208DF805000448694650F8240083
:10135000FFF708FE1CBD0000A0E500081C010020EE
:101360000349044A31F8101052F8200041837047B5
:1013700098E500081C0100200349044A31F81010C8
:1013800052F820000183704798E500081C010020F6
:10139000704700000149086070470000DC002742E8
:1013A0001D4900200A6842F480320A604FF4A063AD
:1013B0000A6800F1010012F4003F01D19842F7D110
:1013C0000868800326D51448083002680260026865
:1013D00042F400420260026842F4A0520260031F1D
:1013E0000E4A1A600A6842F080720A600A68920126
:1013F000FCD50B4A40F203711160016821F0030132
:101400000160016841F0020101600168C1F38101DE
:101410000229FAD17047000000380240041041054B
:10142000003C02404FF0E0210428086903D020F07E
:1014300004000861704740F00400FAE700F028B8A3
:101440000F4810B5016841F0010101600C4A00210C
:101450000832116002680B4B1A400260031D0A4AF1
:101460001A60026822F48022026005480C30016094
:10147000FFF796FF05494FF00060086010BD0000BF
:1014800000380240FFFFF6FE1030002408ED00E0B7
:10149000024801680A310160704700000000002026
:1014A0000029818902D041F4005101E021F400516A
:1014B000818170477FB50446008A0D4620F4405173
:1014C000E88808432082A08941F20C618843A988FA
:1014D0002A8911436A8902431143A181A08A20F419
:1014E0004071A8890843A0826846FFF763FE1D4843
:1014F000844202D01C48844201D1039800E0029843
:10150000A1890904002900EBC00101EB0010296842
:1015100002DA4FEA410101E04FEA8101B0FBF1F04C
:101520006422B0FBF2F14FEA01114FEA11136FF0A0
:1015300018056B4300EB8300A3891D044FF03203B1
:1015400006D503EBC000B0FBF2F000F0070005E0A9
:1015500003EB0010B0FBF2F000F00F000843208115
:101560007FBD00000010014000140140FEE702E0D2
:1015700008C8121F08C1002AFAD17047704700201E
:1015800001E001C1121F002AFBD1704700280BD0D7
:10159000026A002A08D0937C082B05D10968926A58
:1015A000914201D100F084B87047000070B5060088
:1015B0000DD0346A74B100224FF49A71104602F0D3
:1015C000C9F8606148B1E27C37494AB10BE06FF07D
:1015D000090070BD6FF0080070BD4FF0FF3070BDA6
:1015E0000A68521C0A600968216041680120A161F3
:1015F0000870A16900254870A16906208870A0695B
:10160000C570206800F0F6FCA1694860A0690581FA
:10161000A0694581A069C560A07C0A2803D005287F
:1016200001D0042802D1A1697068C860A0695FF088
:1016300000010561A0694561A069856196F82600F1
:10164000884203D9701890F8270000E0002001F1CB
:101650001C02A369491C89B298541029EED30020BA
:1016600000F12C01A269401C80B255544028F7D3E8
:101670005FF0000000F16C01A269401C80B255547B
:101680008028F7D3094800F0B5FCA169C1F8EC0047
:10169000A5830020A26900F1F0015054401C80B2E3
:1016A0004428F7D3002070BD4800002063538263B4
:1016B000F8B5046A05460C21204600F096F8284645
:1016C000FFF774FF060027D101223521204600F0E4
:1016D0003BF80421204600F047F80422322120463E
:1016E00000F032F8A06A02F031F80146204600F01E
:1016F00043F8204600F061F8A08BF03081B26069B9
:1017000002F0A4F900954323074A6169606804F078
:10171000EFF9284600F00AF8E07C401CE074142041
:10172000E0833046F8BD00005CE5000810B50028F5
:1017300009D0046A002C06D0606908B102F034F9BF
:1017400000206061A06110BD10B5838B84691C44CA
:101750005B1C838384F8F010818B83690B44491CE4
:10176000818383F8F02010BD828B83691344521C5F
:10177000828383F8F010704710B5828B84690B0E5A
:101780001444521C828384F8F030828B84690B0CE1
:101790001444521C828384F8F030828B84690B0AD3
:1017A0001444521C828384F8F030828B8369134482
:1017B000521C828383F8F01010BD002814D0818B56
:1017C0008369FF220B44491C818383F8F0200022A7
:1017D00005E083690B44491C818383F8F020818BE9
:1017E0004429F6D38B07F4D17047827C8A4202D019
:1017F00081740021C17470472DE9F84306008846C2
:10180000914665D050892A285FD3D9F80450012029
:1018100005F10E0400F0F0FB2188884255D140F21A
:10182000046000F0E9FBA18888424ED14FF40060CB
:1018300000F0E2FB6188884247D140F6060000F0E4
:10184000DBFBA989884240D1D4F80E000090A16941
:10185000706820B1814202D101273B4601E0002798
:101860003B4604F108026946304604F09BF9E088E3
:1018700000F0C2FB012802D0022826D121E0FFB1EE
:10188000022000F0B9FBE080D4F80E00A06170687F
:10189000C4F80E000621491E11F0FF0104EB0100FF
:1018A000027A82746A5418F80120027205EB010270
:1018B00018F801009071EED1B26949463046904760
:1018C00003E069463046FFF761FE484602F06CF8D7
:1018D000BDE8F88330B4002810D04A6883684568B2
:1018E000D2F81A401D401C4002F10E01AC4205D155
:1018F0000023921D30BC0C3104F054B930BC704749
:101900002DE9FC410E46054614460E21304602F0F4
:101910006DF818B16FF00100BDE8FC812946204642
:1019200001F0B2F808B1234B29E04FF0704001F00C
:101930000DFF216800EA01074FF0604001F006FF4B
:10194000874223D101208DF8000000208DF801008E
:101950005E208DF80200206801F0F8FE000CC0F354
:1019600006008DF80300206801F0F0FE000A8DF8F3
:101970000400206801F0EAFE8DF805006B4605F1D1
:1019800027023146284600F0FDF8C5E7A86821681F
:101990006A6801400240914203D0E86838B105F11D
:1019A0000C0432462146284600F006F8B4E76FF0F2
:1019B0000300B1E760E500082DE9F05F82460D46BF
:1019C00000F1270B14464FF0FF385146284601F02E
:1019D0005BF808BB4FF0704001F0B8FE296800EAE0
:1019E00001064FF0604001F0B1FE864214D09DB177
:1019F000286888B10121284600F092F900280DDB03
:101A0000DFF8B09000EB800609EB8607B87B38B1B1
:101A1000012807D034B10BE06FF00900BDE8F09F5A
:101A20000120B8732946504600F09AF8804604B366
:101A3000B87B4D46022802D0012808D038E007F1D3
:101A400008035A462146504600F09CF82FE02046F5
:101A5000017B01290ED001890022032001F07AFECA
:101A6000070025D0214601F023FF58B1384601F088
:101A70009BFF1DE000680028EAD12746204602F0BF
:101A80000DF8AFB1062001F0C7FD0100EED0002037
:101A9000C1E9000755F8260008B905E010460268BC
:101AA000002AFBD1016001E045F8261000208046A5
:101AB0004046B3E79C5800202DE9F05F83460F466F
:101AC0009046994600222A210320DDF82CA001F03F
:101AD00041FE060040D075680D9805F10E0400F037
:101AE0008BFAE0800620401E10F0FF0004EB00019E
:101AF00019F800200A721AF800208A7418F80010E9
:101B0000295405EB0002395C9171ECD10A98006808
:101B1000C4F80E000C980068A061012000F06CFA77
:101B200020804FF4006000F067FA608040F20460AB
:101B300000F062FAA08040F6060000F05DFAA8818D
:101B4000DBF818205846314690470446304601F0ED
:101B50002BFF2046BDE8F09F4FF0FF30FAE7000072
:101B60001FB50123064C021DCDE90213CDE9002467
:101B700000F127031946A21FFFF79EFF04B010BD16
:101B800066E500082DE9F0414D6806460F4606243B
:101B9000641E14F0FF0405EB0401185D2855105D68
:101BA0008871F5D14FF4006000F026FAA88139461B
:101BB0003046B269BDE8F041104700002DE9F04120
:101BC0000025124CA84600BF05EB850704EB8706ED
:101BD000F07B401CC0B2F073B17B022902D0012916
:101BE00003D00DE0F02802D20AE0022808D354F80E
:101BF000270018B100F028F944F8278086F80E80F5
:101C00006D1CEDB20A2DDFD3BDE8F0819C58002099
:101C100070B5044640680D46808900F0EDF9B0F5D6
:101C2000006F04D0A0F5006006380AD112E021460A
:101C30002846FFF74FFE6FF00D01204601F0D6FE5B
:101C400018B1204601F0B0FE0AE02946204600F017
:101C5000C9FF05E0224605F127012846FFF7CCFD24
:101C6000002070BD10B5732180F82E10742180F80B
:101C70002F10044941610449816101F0E1FA00201B
:101C800010BD0000011900083933000870B5054681
:101C900001F012FB040009D02A692946904705008B
:101CA00002D0204601F080FE284670BD4FF0FF3084
:101CB00070BD00002DE9F047814699B1087888B1E0
:101CC00000250C464FEA050609EB8507A0462621AC
:101CD0002046C7F8F440FEF7ACFA30B100F8016BCB
:101CE000044609E00020BDE8F08720214046FEF7C9
:101CF000A0FA00B1067000243D214046FEF799FA93
:101D000020B100F8016BC7F8340101E0C7F8346175
:101D10006D1C102D01DA002CD6D12846E3E7000017
:101D20002DE9F35F4FF00A094FF00001DFF8108151
:101D300004004D464A468B468E46CA460B4611D095
:101D40004048007800EB800608EB8606B77B022F40
:101D500008D127687668B74204D140B2BDE8FC9F3D
:101D60000A2A05D101EB810008EB8000807B48B195
:101D700001EB810C08EB8C00867B012E04D0022E37
:101D800017D024E04AB222E01CB126684768BE4260
:101D900014D058F82C60C07B2EB1984217D34FFA5C
:101DA00081FA034613E0584511D34FFA81F983466F
:101DB0000DE03CB126684768BE4203D1214801705E
:101DC00048B2CBE7C07B704501D34DB28646491C73
:101DD000C9B20A29C4D34FF0FF300A2A02D10199AF
:101DE000C907BBD001998907B8D400270A2A01DAAC
:101DF000D5B216E00A2D01DAEDB212E04946B9F18A
:101E00000A0F01DACDB20CE05146BAF10A0FA5DA99
:101E1000CDB205EB850658F8260000F015F848F815
:101E2000267005EB850108EB810138468F730CB1F4
:101E300022684A60C8730348057068B28EE70000E4
:101E40009C580020EC00002070B5044608E02546B0
:101E5000D5E9004001F0A8FD2946062001F0A4FBC9
:101E6000002CF4D170BDD0E90110081A704700F0C1
:101E700001B80000094A002101EB410302EBC30352
:101E8000834206D101EB410102EBC101002008753C
:101E90007047491C0A29EFDB704700006C010020E5
:101EA0002DE9F041074600201649064600EB4002A6
:101EB00001EBC202127D2AB1401C0A28F6DB002089
:101EC000BDE8F081012200EB400011EBC004227557
:101ED000F5D00D4D05E038466968FEF7BBF930B125
:101EE0002D68002DF7D12046FFF7C4FFE7E7A8686B
:101EF0002060E8686060E868C4E90206287C207415
:101F00002046DDE76C010020D4E4000870B50546EA
:101F10000B46D5E90110884202D14FF0FF3070BD69
:101F20000C1A944200DD14462968224601441846E2
:101F3000FEF744F9A8682044A860204670BD000060
:101F40002DE9F041234D044600F12E07296800F1E8
:101F5000300881B1A86870B1686860B1002607E0F8
:101F6000A86850F826103846FEF774F960B1761C60
:101F700068688642F4DB3846FEF764F9A72809D280
:101F80003846FEF75FF906E02B68C022414630462E
:101F900098471CE0A720054612220FA14046FEF7F5
:101FA0000DF92A46394604F14200FEF707F90FA160
:101FB00060190A68C0F842208988A0F846103E21BE
:101FC00000F8481F002141704046FEF73BF960854C
:101FD000BDE8F081240000203C623E2A2A2A554EAA
:101FE0004B4E4F574E205441472000002A2A2A3C8E
:101FF0002F623E0000BA704740BA704770B50E4677
:102000000121304603F0BEFA4FF4BA75284601F0BC
:102010001BFA040019D02946FEF7E9F8214630469C
:1020200001F08CFE0A49304603F06CF9094930464C
:1020300002F0E5F804220849304602F097FD07490E
:10204000304603F09CFA002070BD4FF0FF3070BDA9
:10205000A3230008B5200008712300089D2700086D
:1020600070B50D460446002101F068FE00212046AF
:1020700003F048F90021204602F0C1F80022114681
:10208000204602F073FD0021204603F078FA28462E
:1020900000F09EFB204601F0B1FE002806D020464D
:1020A000BDE870400422024902F060BD70BD00002E
:1020B00071230008002801D000F08ABB704700009F
:1020C0002DE9F74F4FF00009054680F82C90019854
:1020D000924601782F2901D1417871B13F21FEF755
:1020E000A8F8040001D004F8019B38480169A9B39D
:1020F000C16899B30026804623E0354F002600BF13
:1021000057F83600FFF7CCFE040057F83600019070
:1021100003D007EBC600007949E0761C052EEFD30B
:1021200001A800F057F8044685F82C9045E000BF60
:10213000D8F80C0050F836100198FEF78BF898B1DB
:10214000761CD8F810108E42F2DB00BFD8F81000D1
:10215000864203D114B13F2004F8010C0198FFF727
:102160009FFE040012D016E021462846FFF7A2FD8C
:102170000146D8F80C0005F59A7300EBC60005F18E
:10218000F40247683046B8470190DFE701A800F045
:1021900021F8040011D00D4F002685F82C9014373B
:1021A000019857F82610FEF72EF818B1012085F88F
:1021B0002C0002E0761C042EF2D35246214628461B
:1021C000019B00F031F8BDE8FE8F000024000020E4
:1021D000F8E4000810B504460AA02060FFF760FE8E
:1021E00000280DD10AA02060FFF75AFE002807D171
:1021F0000AA02060FFF754FE002801D100212160D1
:1022000010BD00002F3430342E68746D6C00000057
:102210002F3430342E68746D000000002F343034B9
:102220002E7368746D6C000070B50446002001B315
:10223000208584F8F1000B68E3614B6863620B68EA
:10224000236221600B6863604D6865612076087CBD
:1022500098B192B12A460AA1184601F085FC60B1F6
:102260006168401A001D014461606169081A60617B
:1022700003E02060606060612076002070BD000097
:102280000D0A0D0A000000002DE9F04705680868F6
:102290000E4608B9706818B16FF00A00BDE8F08703
:1022A000B06890B1294601F0DDFAB068016871B1FB
:1022B000058940F2FF318D4200D30D4600232A46A6
:1022C000264901F03DFB254C03E0B560EDE76C6865
:1022D0006D896FF00909072D30D32A4620A12046C9
:1022E00001F042FC50B3002704221EA12046FDF756
:1022F000BFFFB84610B184F804802CE02D1FE41C09
:10230000ADB22A4619A1601C01F02EFC28B92A465C
:1023100013A1601C01F028FC0127011B491E8AB291
:1023200060B1A0420AD9611C84F8008001F80280E3
:102330003A463046BDE8F047FFF7C2BEB06801F04C
:10234000AEFAB1680989B1F5806F04D20A2802D8C3
:102350006FF00D00A2E74846A0E700005C020020F5
:102360000D0A000047455420000000002000000036
:1023700010B50C46010010D0087E401CC0B2087693
:1023800004280AD0086830B1204600F041F810B1A6
:10239000204602F0F5F9002010BD2046FFF760FE50
:1023A000F9E77FB5044602980E466FF0040563B165
:1023B00030B10189304602F0BAFF029801F0F4FA18
:1023C00021463046FFF74CFE1AE00028F8D0002CDA
:1023D000EFD00189304602F0AAFF206838B93246B2
:1023E000214602A8FFF750FF05460E3006D0A06830
:1023F00018B101F0D9FA0020A06025B10A35DFD06C
:1024000004B0002070BD2146304600F001F8F7E727
:102410002DE9F84F0546002648690C46B04678BBC2
:10242000206838B1FFF71FFD002877DDE06828B18C
:1024300027690BE02846FFF713FE1AE0288F4700B4
:10244000B8B201F001F8E06070B1276101463A4688
:102450002068FFF75BFD00280DDA21462846FFF7CC
:10246000FFFD0120BDE8F88F07EBD7704710642F00
:10247000E6DC0020F6E76061E1686160E1616062CE
:1024800094F82C0030B3B5F86E20ADF80020E36965
:102490006168DFF804B34FF0010A04F12E074FF032
:1024A00000098B4239D9581A904201DCADF800007E
:1024B000288FBDF80020B2EB400F02D94000ADF8E4
:1024C000000001236A46284600F096F95FEA0008FA
:1024D00016D01EE0B5F86E106069814202D2ADF8E8
:1024E000001001E0ADF80000288FBDF80010B1EB3E
:1024F000400F02D94000ADF800000023616831E1CF
:10250000BDF8000061680126014461606169081A34
:102510006061B5F86E00002871D0FCE037E100BFC3
:10252000BDF800100029F7D094F8F120052AF4D264
:10253000DFE802F003102C66B300E1690A783C2A58
:1025400003D184F8F1A0A4F828A0401E491CE16141
:102550006062E0E0218D05290BD0D4F81CC0DBF8C7
:1025600000209CF80030525C934206D1491C218522
:1025700005E0A4F828900220CBE084F8F1900CF15B
:10258000010C401EC4F81CC06062C4E0218D49B932
:10259000E3691A78202A52D0092A50D00A2A4ED04C
:1025A0000D2A4CD0E06900782D2809D0202807D0CA
:1025B000092805D00A2803D00D2801D091B115E0D3
:1025C000A1B1032084F8F10084F82D1001F80790E0
:1025D000E169484609782D2901D0208508E0A4F852
:1025E00028A005E0A4F828A0C85501E084F8F190DF
:1025F000606A401E6062E069401CE0618BE0C8E0F8
:10260000218D49B9E3691A78202A18D0092A16D0F1
:102610000A2A14D00D2A12D0D4F81CC0DBF80420EA
:10262000A0F101001CF8013B525CC4F81CC09342AD
:1026300060622FD1022907D0491C21856BE0401E22
:102640005B1CE361606266E02046FFF779FCA4F85A
:102650002890042084F8F100E069206261688842D3
:1026600059D9BDF80020401A904201DAADF80000B7
:1026700094F82C0008B1012300E000236A4620E012
:10268000BDF8000061680126014461606169081AB3
:10269000606140E084F8F1903DE0226A6068824227
:1026A00019D9121A8A4204DA1104090CADF8001083
:1026B0000ED094F82C1009B1012300E000236A46E3
:1026C0000146284600F098F85FEA000823D1D7E7D2
:1026D0004FF00008D4E7208D628D904216D2121A76
:1026E0008A4201DAADF8002004F1300101440123EF
:1026F0006A46284600F080F85FEA00080BD1208D7A
:10270000BDF8001001260844208504E04846A4F8DE
:10271000289084F8F100606A18B1B8F1000F3FF416
:10272000FFAE94F8F10004282AD06168E06988427D
:1027300026D9B5F86E20401A904202DDADF800208F
:1027400001E0ADF80000288FBDF80020B2EB400F8B
:1027500002D94000ADF8000094F82C0008B1012324
:1027600000E000236A46284600F046F840B9BDF86C
:10277000000061680126014461606169081A6061B6
:10278000606930B92068FFF76EFB002801DC214644
:1027900050E6304666E60000F0E4000810B50A4650
:1027A000010004D0002008761046FFF731FE00201B
:1027B00010BD0000014AC2E9030170472400002057
:1027C000024B9960C3E9000270470000240000201A
:1027D00070B504000FD02068002510B1FFF747FB4B
:1027E0002560E06810B100F0FFFDE5602046BDE81F
:1027F000704000F0F9BD70BD2DE9F0411488064627
:102800000F4615469846434622463946304603F061
:1028100030F8411C0BD1B6F86E1019B1B6F8701033
:10282000082901D3012402E06408012CEBD82C8094
:10283000BDE8F081054A0448D2E90012C0E902125D
:1028400001210830FFF7B6BF10000020E8E40008BF
:1028500070B500F021F8FFF7EDFF0D4C01F054FFCB
:102860000546012102F08EFE50222146284601F045
:1028700067FAFF21284601F007FF0446014601F0F0
:102880005DFA2046BDE87040024901F0D7B900006A
:1028900058E50008FD1F000802480122416802486F
:1028A000FFF78EBF10000020010600080A46032132
:1028B00000F08AB82DE9FE4F446805468A46208814
:1028C00000F046FFC0F303204FEA8009C9F1000180
:1028D0008846284601F08AF8002870D12889042803
:1028E0006DD368680078082869D101264FF07040E0
:1028F00000F02CFF216900EA01074FF0604000F072
:1029000025FF874200D10026514604F1100000F057
:10291000BBF8002853D1002E51D0288908284ED367
:10292000284600F08DF8E8BB2221284601F05EF829
:10293000D0B14946284601F059F898BB29890022B0
:10294000022000F007FF060039D0294600F0B0FF52
:1029500040BB41463046746801F048F810BB284639
:1029600001F022F8354605E06FF02101284601F01C
:102970003DF8B8B96868E1682269E2602161002623
:1029800006704680208900F0E3FEC0B240F47F402C
:10299000FFF732FB208166814946284601F026F880
:1029A00000B900E00BE00121CDE90061FF23002226
:1029B000CDF808A004F10C01284600F0F1F92846F2
:1029C000BDE8FE4F00F0F0BF2DE9FC4707460E467C
:1029D000914600222421012000F0BCFE050023D0F6
:1029E0006C68D7F804801C22267084F801900026B9
:1029F000A680E680686879680830FDF7DFFB6680AE
:102A00006989204600F016F860800120CDE9006059
:102A1000FF2308F10C020021284600F0A7F9284600
:102A2000BDE8FC4700F0C0BFBDE8FC870A460B21AB
:102A3000FFF7CABF10B500F097FCC04380B210BDCD
:102A400070B500242646054613E06989686800F0E1
:102A50008BFC204481B201EB10446889C00707D089
:102A6000C6F10100C6B2E0B2C4F3072141EA002476
:102A70002D68002DE9D126B1E0B2C4F3072141EA67
:102A80000024E04380B270BD0068421C12D088B1BF
:102A900091F82D2092070BD54A68824208D08968A8
:102AA00000EA01030A40934202D10143491C01D0CC
:102AB00000207047012070472DE9F74F84B00222B3
:102AC00005984FF014090021858C104600F042FE55
:102AD000070020D042487D813D8120F003047C60C6
:102AE0000498142241682046FDF768FBE08800F056
:102AF0002FFEC0F30C0800F40050019004980089E8
:102B00001438143D86B2E81705EB5070C0F3CF00BF
:102B10000295009053E04FF0FF3007B0BDE8F08F12
:102B20000298864201DC012000E000205FEA000AF2
:102B30000198C8F30C0545EA000547D0304680B23D
:102B4000834602464B4604F11401049800F0F8FE57
:102B500048441FFA80F92846FFF74EFAE0800BF14F
:102B6000140080B2FFF748FA6080002060811421D1
:102B70002046FFF75FFF6081BAF1000F05D006F134
:102B8000140081B2384600F061FF00221146022095
:102B900000F0E0FD05001ED0394600F077FE0598F4
:102BA0002946069A43699847284600F0FDFEA6EBA1
:102BB0000B00009986B208EB01001FFA80F8002E86
:102BC000AED1384600F0F0FE0020A6E7009845F4AC
:102BD0000055C000B3E7384600F0E6FE9BE7000072
:102BE000BF5200202DE9F05F4468064688462088E1
:102BF00000F0AEFD0421B1EB103F10D1208800F0B1
:102C0000A7FDC0F303204FEA8009608800F0A0FD13
:102C1000728901464A4502D33089884203D2304640
:102C200000F0C2FE62E0304600F010FFDFF834A191
:102C30000127454604F1100B284600F023FD68B13A
:102C4000281D0BD0686848B12169814204D029460B
:102C50005846FFF719FF08B15DB117E01FB1002713
:102C6000DAF8005000E02D68454500D12D68002DB0
:102C7000E2D1208900F06CFDC0B2112806D104EB2E
:102C80000900408800F064FD44282DD0E06898B128
:102C9000414604F10C00FFF7F7FE0028BFD14FF0CA
:102CA000704000F053FDE16800EA01074FF060401A
:102CB00000F04CFD8742B2D0002DB0D043F6FF703B
:102CC000FFF79AF9E188084205D0304600F0CCF8C9
:102CD00006000BD07468244D41463046C5E9018496
:102CE00000F00CFF28B138E04546E5E70020BDE8DC
:102CF000F09F208900F02CFDC0B2012813D00628D7
:102D00000CD01128414605D004F11000FFF7BCFE9D
:102D100070B11FE0304602F039FE1EE041463046F9
:102D200001F09EFA19E041463046FFF7C3FD14E07A
:102D30004FF0704000F00AFD216900EA01074FF0F2
:102D4000604000F003FD874204D0022130467460E9
:102D5000FFF7ACFD304600F027FE00206860A86059
:102D6000C4E7000060000020D80000202DE9FE43E9
:102D70000746DDE90A45884616469946104600F0A2
:102D80003BFA50B10094CDE901504B4632464146E2
:102D9000384600F005F8BDE8FE836FF00300FAE75F
:102DA0002DE9F05F0646DDE90BA5DDF828B0894680
:102DB0005FEA02081F463FD01421304600F016FE9D
:102DC00018B16FF00100BDE8F09F7468208900F031
:102DD000BFFC67F31F20FFF70FF9208100F0B8FC5C
:102DE00020F0FF0040EA0A00FFF706F92081D8F83A
:102DF000000020614BF48A40FFF7FEF82080308904
:102E0000FFF7FAF8174F60804FF0000AA4F806A009
:102E10003888FFF7F1F8A0803888401C3880B9F175
:102E2000000F02D0D9F8000010B9281D00D0686842
:102E3000E060A4F80AA002E0706800F11008A88C15
:102E400048B13189814206D9424629463046BDE81B
:102E5000F05FFFF731BE4246314628466B69BDE858
:102E6000F05F1847D80000202DE9F14F4FF0000A1D
:102E700000984568288800F06BFCC0F30320052803
:102E80007ED1E88800F064FCC0044FEA10486888EE
:102E900000F05EFC0446288800F05AFCC0F30320D2
:102EA000404204EB80001FFA80F9009800F0F7FC24
:102EB000554E0746308838440A2809D939462846ED
:102EC00000F066F900285BD0308838440A2857D8CB
:102ED0004FF0000B74680DE06069E968884207D123
:102EE000A0692969884203D1A089A988884204D0B1
:102EF000A2462468002CEFD106E02CB1E88800F04F
:102F000027FCC00422D02CE0052000F085FB040043
:102F10000AD13946284600F03BF9B84214DB0520B7
:102F200000F07AFB04006AD02021FDF760F903204D
:102F3000E077706820601422294604F1080074606C
:102F4000FDF73CF9E4B10CE05C46FBE7E08900F0FA
:102F5000FFFBC00405D01422294604F10800FDF748
:102F60002DF9308838443080E88800F0F1FB800487
:102F700008D4A07F40F00100A07708EB090000E032
:102F80003DE0A0832046009900F040F8002834D0AE
:102F9000A08B14221430A083606804F108014568F6
:102FA00028462F68FDF70AF9A08BFFF725F86880FF
:102FB000A5F806B0A5F80AB014212846FFF73AFD97
:102FC00068816FF01309D4F8048009E04946384657
:102FD0007D6800F00BFD3946404600F043FC2F6849
:102FE000002FF3D15146204600F088F8404600F00B
:102FF00056FC3188081A30804046BDE8F88F0098AA
:1030000000F0D2FC0020F8E7E40000202DE9F047B2
:10301000D1F8049080460D4600240126B9F802003C
:1030200000F096FB0746B9F8000000F091FBC0F3F2
:103030000320404207EB8007B9F8060000F088FB48
:10304000C004010C686800220260CA1981801FFA5E
:1030500082FCA0F806C0D8F804301CE05A689788B3
:10306000B9420DD203603CB1E788B94238D39188A8
:103070008C4535D8256001E0C8F804506BB116E0E6
:103080002ED0D38899422BD31CB1E388BB4200D009
:10309000002613681446002BE0D134B12560E18886
:1030A0008288914203D0002601E0C8F8045098F8C5
:1030B0001E10C90712D066B1D8F804104968898873
:1030C00031B9016829B14968C0888A88904203D023
:1030D00000263046BDE8F0870846F2E70020F9E711
:1030E000284600F0DCFB014603480288511A0180A3
:1030F000284600F059FCF1E7E4000020074A30B40C
:103100000B4654680168844201D1516000E01960A7
:10311000014630BC052000F047BA0000E400002062
:103120002DE9F0414468064688466068002581889C
:1031300091B900687060142206F108016068FDF71B
:103140003DF801212046FFF771FC204600F0A7FB67
:103150000546204600F028FC746809E060682746B0
:103160000468384600F09BFB0544384600F01CFC20
:10317000002CF3D141463046FFF7C0FF03480188D9
:10318000491B01802846BDE8F0810000E4000020D2
:103190002DE9F047DFF85C800646894600240022CE
:1031A00011461546D8F8040016E04369F768BB429B
:1031B00007D183693769BB4203D18389B788BB4292
:1031C00006D06D1C1AB1C37FD77FBB4200D8024620
:1031D000036803B1014618460028E6D11AB110462B
:1031E000FFF79EFF04444C4501DA012DD7DC204651
:1031F000BDE8F087E400002070B505460E4804687D
:103200000DE0204600F03EFA40B1A06829686268EF
:1032100001400240914201D1204670BD2468002C3B
:10322000EFD1064C206820B100F02CFA08B12068DC
:1032300070BD002070BD0000600000206400002010
:1032400070B50446062004F8260F022060700020A6
:10325000A070E07020716071A071A4F1260404F1E7
:103260002701FDF71BFD40F2DC50A084322084F8DA
:103270002D0002220C490D48FDF72EFB04220C49BB
:103280000C48FDF7EFFA094D00244FF4400600BF4B
:1032900005EB44103146FDF743FB641C022CF7DBC1
:1032A000BDE87040FDF7E2BDF4710020E459002054
:1032B000245A0020645900202DE9FE430026684668
:1032C000FDF7C4FBDDE901710098884681B2032255
:1032D000104600F03FFA05000AD00446B919628989
:1032E0006068FCF76BFF608924680644002CF5D108
:1032F0000F4A10688168012901D9016800E0414640
:1033000000204FF0004302E00B60C968401C1468C5
:10331000A4688442F8D81068002181600548426999
:10332000120602D58022426181602846BDE8FE83F4
:10333000080100200090024070B50A4800250C46A4
:103340000068866807E0628970196168FCF736FFDB
:10335000608924680544002CF5D1A8B2FDF700FD72
:10336000002070BD0001002030B4002207E0037887
:103370001C024378801C2343891E1A4489B2012908
:10338000F5D811B1007802EB002290B200EB1240A8
:10339000010C02D081B201EB104030BC80B2FEF7CC
:1033A0002BBE000000214FF6DC720020401C904232
:1033B000FCD3491C2429F8D3FDF7DCF90020FDF7E4
:1033C000ABFFFDF7EDF9FDF773FEFFF741FA054C92
:1033D000FDF708FA08B1FDF7B3FE2068FDF798FE87
:1033E000F6E700000000002000280FD008494A68D6
:1033F00090420BD38A68904208D2083800220271AA
:10340000CA68904200D2C86000F04EBB704700000E
:103410004C00002010B50A480A4A20F003004FF47F
:1034200020535060002103804180017100F520513C
:10343000012491600C710B804B801470D06010BD22
:103440005F0600204C000020F0B5002846D0C01CCC
:1034500020F0030083B24FF4205C0C2B01D20C232C
:1034600001E063453ED8DFF880E0C3F52054DEF884
:103470000C50DEF80420A81A81B231E05018067909
:103480006EBB0688761A083E9E4228D30488012621
:10349000671A083F03F11404A74210D30B44083302
:1034A0009CB2131900271F7107881F805980048060
:1034B00006711988614503D0931CCC5200E0067157
:1034C000A8420AD1DEE902310C7934B1994204D024
:1034D00009881144CEF80C10F6E70830F0BD515AB7
:1034E0008C42CBDC0020F0BD4C0000202DE9F04FD9
:1034F000C91C21F0030189B24FF420590C2901D2D3
:103500000C2101E0494511D8264E7468A0420ED323
:10351000B26890420BD2A0F10802131B15889BB22F
:10352000EF1A083F1FFA87F8414502D90020BDE88D
:10353000F08FFCD0B2461B4E25444FF0000BD6F85E
:103540000CC076682F7906F10206B7B101F11405B7
:103550004545ECD8194408318DB26119614501D255
:10356000CAF80C1081F804B014880C804B801580C8
:1035700009884945DBD08D53D9E7194408312F8894
:1035800089B2AC4503D104EB010CCAF80CC00C4461
:1035900084F804B027806380118022884A45C6D011
:1035A0009153C4E74C000020002905D0034A52F88B
:1035B00020300B6042F8201070470000702E002071
:1035C000F0B50020401C80B20928FBD31048104BF6
:1035D00020F0030200200F4D0746273B05F112049F
:1035E00043F82070002109E053F82060166043F88A
:1035F000202035F81060491C324489B234F810603C
:103600008E42F1D8401C80B20928E9D3F0BD0000F9
:10361000972E002020E500080146092801D300204C
:103620007047044A52F821000028F9D0036842F894
:1036300021307047702E00202DE9F0410446DDE96D
:1036400006070025089E6560A560E56084F82D509A
:10365000C4E907050A4D287884F83000401C28701A
:103660002046266100F013F82046B84710B100202C
:10367000BDE8F0816868206020466C60F8E70000D3
:103680005C00002090F82D0000F00100704770B53C
:10369000064614461D4600F015F82146304600F057
:1036A00043F829463046BDE8704000F007B80000F6
:1036B00001498860704700005C00002001B1096882
:1036C000C160704770B505460C4608686968884255
:1036D0001ED0134800680AE001686A68914205D16B
:1036E0000121C66800F060FA304600E0C06800289A
:1036F000F2D10C48006809E007D0016829B16A6876
:10370000914202D144B121680160C0680028F3D120
:1037100024B12068686070BD0021F5E70020F9E75A
:10372000800000207C00002001B1096881607047A2
:1037300090F82D10CA0708D141F0010180F82D1032
:10374000890602D5011DFEF70BBA704700BA704713
:1037500040BA70472DE9F0470E461746002530B1B4
:10376000012805D0022805D003284DD104E01425F6
:103770001435ADB20E35ADB24FF0010A4FF000086E
:10378000F7B3012F5CD0022F5AD0032F3CD1082071
:10379000FFF742FF040038D060191330277320F080
:1037A0000300C4E90080ED1C25F00300C0F50070A3
:1037B0002681B04200DD304681B26181751AA4F8DD
:1037C0000EA0A1464FF4007617E00820FFF724FF73
:1037D000B8B1077380F80D80C0F80080A9B2C9F8AD
:1037E00000000181B14200D33146418100F1100255
:1037F0004260A0F80EA06D1A8146002DE5DC2BE09A
:1038000005E0204600F0D0F80020BDE8F08705F183
:10381000130020F00301F01C20F00300084480B2E4
:10382000FFF712FE0400F0D06019133020F00300FF
:10383000606026816681C4F8008084F80C800BE00B
:103840000720FFF7E9FE0400DFD0C4F804802681DA
:103850006681C4F800802773A4F80EA084F80D8058
:103860002046D2E710B500280FD000290DD004E083
:1038700003890C892344038110460268002AF7D18A
:1038800002890B891A440281016010BD10B50C46F3
:10389000FFF7E8FF2046BDE8104000F0FFB8002128
:1038A00002E0491C0068C9B20028FAD108467047F6
:1038B0002DE9F0474FF0000605000C46374604D0CE
:1038C0001CB128892189884203D26FF00900BDE824
:1038D000F0876FF008096889811B6089C01B8142ED
:1038E00001DB80B200E088B2804660684246C119C0
:1038F00068683044FCF762FC06EB080086B207EB10
:10390000080087B26889B04201D12D68002660891D
:10391000B84201D8246800272CB1608921898842E7
:1039200001D1206830B93DB168892989884203D125
:10393000286808B14846CAE7002CCCD10020C6E769
:103940002DE9F047894616464FF00008002806D0BA
:10395000B9F1000F02D00027044620E00020BDE8A6
:10396000F0872BB16089984202D8181A83B215E00B
:103970006089C01A85B2B54200D9354660682A46CA
:10398000C11809EB0700FCF719FC08EB05001FFA4A
:1039900080F8781987B2701B86B2002324680EB1B4
:1039A000002CDED14046DAE770B5002815D000249F
:1039B000C189491E0904090CC1810DD1017B05682B
:1039C00003290BD001290CD002290AD0FFF70CFDE6
:1039D000641CE4B22800EBD1204670BD01460820EB
:1039E00001E001460720FFF7DFFDF1E710B541B127
:1039F00038B1002907DA4A4293B242899A4223D366
:103A000002E0002010BD8BB2027B446832B1032A71
:103A100004D0022A0AD0012A08D015E0621A00F167
:103A2000100342609A4208D244600DE000290BDA8C
:103A300042899A4208D3621A426042890A4442810A
:103A4000028911440181DCE7012010BD70B50289B3
:103A50008A4222D98A1A0D46044691B205E0281AF4
:103A600085B220890844208124686089A842F6D361
:103A7000207B50B96089A84207D06068001B2844A9
:103A800081B22046FFF732FD04466581258120681A
:103A900008B1FFF789FF0020206070BD002802D028
:103AA000C189491CC181704730B5134903884A68F0
:103AB0001344941C98420DD01D795DB98D68AB42BA
:103AC00008D0CD689D4200D1C8601D8805801B8844
:103AD000851A1D534388134483420BD01D79002D52
:103AE00008D1CD68854200D1CB600188198000885B
:103AF000991A015330BD00004C0000202DE9F05F01
:103B0000466883464FF000083089FFF721FEDFF852
:103B100054A000F0FF090025DAF800401CE0217CE9
:103B2000494514D1676997B106F10C035A462146FD
:103B3000A069B84758B14FF0000B4FF0010835B1FC
:103B4000E068E860DAF80010E160CAF80040254655
:103B5000E468B8F1000F01D1002CE0D14046BDE887
:103B6000F09F0000680000202DE9F0410446174650
:103B70000E460846FCF766FB050013D0274409E013
:103B80003178884205D12A4631462046FCF770FB41
:103B900040B1641C207810B16119B942F0D90020FD
:103BA000BDE8F0812046FBE72DE9FF5F0446007C7D
:103BB0008B460A2832D0D4F824A0D4F85880BCB35D
:103BC00020680290201D00D060680390278B268C0F
:103BD00021461948D4F81490D4F8905000F098FF7A
:103BE000A06F08B101F088FC606F08B101F084FC9F
:103BF00021460220FFF7D8FC1DB16FF004014846B2
:103C0000A847BBF1000F07D0CDE9007603AB02AAAD
:103C10005146404601F012FCBDE8FF9F0648214690
:103C2000001D00F075FF21460220FFF7BDFCF3E701
:103C3000FFE700200290C7E780000020C1617047C5
:103C40006FF00400704700002DE9F04105460220A6
:103C5000FFF7E2FC364C060035D100210A46A66883
:103C6000A06906E0036BF31A8B4201D319460246A2
:103C7000C0680028F6D11AB101211046FFF794FF61
:103C80000220FFF7C9FC06001DD184467F21604653
:103C9000A66862690CE0537CAB4208D88B4206D818
:103CA000176BF71B674502D3BC4610461946D2680E
:103CB000002AF0D110B10121FFF776FF0220FFF7B3
:103CC000ABFC060030D0A021FCF791FA40207074C4
:103CD00041F2D060A6F86E000023A6F870301836C6
:103CE00040103082708206F80E3CFF2006F80D0C62
:103CF0004FF40670308406203086B385F085C01FEF
:103D0000F0830120708700F033FDF064306470634D
:103D10003065A068B06133770648F0660648F06702
:103D200086F88530A6F118063046BDE8F08100001F
:103D30006C0000200B53000800DD6D0041617047EE
:103D40002DE9F0410546007C0C4618B16FF00C00DF
:103D5000BDE8F08112B900F0DBFC024626486FF0A6
:103D60000A0100680BE0038B934207D1A0B30368FC
:103D700093B38CB326687EB3B3422DD0C0680028BD
:103D8000F1D11D4B103B58690BE0068B964207D1D1
:103D900010B3066806B3FCB12768EFB1BE421BD072
:103DA000C0680028F1D1D8680BE0068B964207D195
:103DB00090B1066886B17CB127686FB1BE420BD066
:103DC000C0680028F1D1986909E0068B964205D1B8
:103DD00006682768BE4201D10846B9E7C0680028D6
:103DE000F3D114B1206800B128602A83D868E86054
:103DF0000020DD60ACE700007C00002070B50546C7
:103E0000007C052608283FD2DFE800F0041B242BA5
:103E10002B3E3E3320480024C168A94201D1C96825
:103E200006E0C16129B1C968A942FAD1E968C0694F
:103E3000C1600020E86029465FF00200FFF7B4FB94
:103E400027E0154800242946103000F061FE29467D
:103E50000320F3E7104800242946143000F058FEF0
:103E6000E9E70121284601F054FB040009D12E7432
:103E700007E00121284601F04CFB040001D1092094
:103E8000287435B114B104E0002402E0284600F0A3
:103E900077FC204670BD00006C00002010B5044681
:103EA0000846FFF7A9F938B1808C28B1283880B2CC
:103EB000844200D220460446204610BD2DE9FF4F23
:103EC00085B006461399914642EA010050EA837193
:103ED0009B466FF009007CD0B9F1000F02D1069922
:103EE000002976D1B6F86E10494505D216F8220F92
:103EF00040F08000307017E1069801901398CDF8DB
:103F00000890C00701D0042100E000211398800729
:103F100001D50C2000E0002008440390B06E04900E
:103F2000B6F870A0BAF1080FE0D20025A846318F8C
:103F30000398081A0299884200DB084680B2009074
:103F40000420FFF769FB04005ED00027276067604C
:103F5000B8F1000F22D02C6012982546C0071FD060
:103F6000039900980022084481B21046FFF7F2FB43
:103F700060600028E8D0FFF792FC50441FFA80FAF6
:103F8000069838B16068416803980844DDE900216B
:103F9000FCF714F960684068A06024E0A046DBE705
:103FA000002210460399FFF7D5FB60600028CBD0B4
:103FB000FFF775FC50441FFA80FA029898B101226D
:103FC00003200099FFF7C6FB010018D00AF1010099
:103FD00000E0ABE01FFA80FA019848600198A06009
:103FE0006068FFF73FFCBAF1080F0DD80098A08178
:103FF00014216068FFF7FAFC002805D105E060682D
:10400000FFF7D2FC0020606084E0606840682061B7
:10401000308BFDF7F1FF21690880308CFDF7ECFF54
:10402000216948800498FDF7E5FF2169486020690F
:1040300047824FF6C070FDF7DFFF2169898900EAEA
:1040400001075846FDF7D8FF074320698781139879
:10405000A07320698089FFF77BFB039900F03F0084
:104060008908090301F5A041084380B2FDF7C4FFA8
:104070002169888100990298401A80B202900498C0
:1040800008440490019808440190029800287FF4A5
:104090004EAF756F002D7CD000E0054628680028E3
:1040A000FBD1002D7AD028698089FFF751FB80076A
:1040B00000D00120A989401873D028698089FFF7B2
:1040C00047FB80076DD15FEA8B7002D0BBF1010F17
:1040D00067D1A989B8F80C000844318F884260D8AC
:1040E000A97B98F80E0081425BD128694068FFF7F0
:1040F0002DFBA9894718D8F810004068FFF726FB68
:1041000087424ED10399D8F8040014314942FFF791
:104110006DFC70B116F8220F40F0800030705FEA3D
:10412000080001D001F0E8F94FF0FF3009B0BDE818
:10413000F08FD8F80400418951B902680021C8F80D
:1041400004200160AAF101011FFA81FAFFF72CFC9B
:104150005FEACB7008D00120FDF74EFF01462869C9
:104160008289114381810CE0D8F804106868FFF758
:1041700079FBA989B8F80C000844A881D8F8000098
:104180002860444502D1A8892C460090414604206D
:1041900001E003E005E0FFF707FA04E0C6F87480E9
:1041A00001E0C5F800805FEA8B7003D009F10100DF
:1041B0001FFA80F95FEACB7005D096F8220040F034
:1041C000200086F8220056F8681F01EB09003060D5
:1041D000F188A1EB0900F080A6F808A06CB1009866
:1041E00058B1206948B11298800706D40820FDF71D
:1041F00003FF21698A8910438881002096E7C0F86F
:104200009010704770B51548446923E0E26F7AB1A9
:10421000D4F8845025B1002321466069A84704E002
:1042200000232146184601F070F808B90020E06725
:1042300094F82200C1070CD040F0020084F822005C
:10424000204600F09DFA94F8220020F0030084F844
:104250002200E468002CD9D170BD00006C00002061
:104260002DE9FC470746B74D40680C46A86000881A
:10427000FFF76EFA7968C0F3032001EB80006860F5
:10428000A8680088FFF764FAC0F303208000414269
:104290003846FFF7ABFB00287DD1388914287AD344
:1042A000A86821461030FEF7EFFB0028F4D14FF04C
:1042B0007040FFF74BFAA968096900EA01044FF062
:1042C0006040FFF743FA844265D068688089FFF751
:1042D0003FFA000B800041423846FFF787FB002879
:1042E000DAD168680088FFF733FA01466868018010
:1042F0004088FFF72DFA0146686841804068FFF763
:1043000025FA014668684160E9608068FFF71EFA97
:104310000146686881602961C089FFF719FA014682
:104320006868C1818089FFF713FA00F03F002870A8
:104330003989800700D0012008446880DFF80882AE
:10434000D5E90102D8F800400021A44637E0238CCB
:104350000688B34231D1238B4688B3422DD163689E
:10436000D668B34229D123681669B34225D129B151
:10437000E368CB60C4F80CC0C8F800400CB3DFF8A9
:10438000CC910026C9F800603A89A9F80C207A6817
:10439000C9E9017200E063E0C9F810006E616E7057
:1043A000E26F002A69D0D4F884C0BCF1000F5CD061
:1043B000002321466069E0475CE02146E468002C68
:1043C000C5D16349096814E00B8C0488A3420FD15E
:1043D0000B8B4488A3420BD14B68D468A34207D10E
:1043E0000B681469A34203D1084601F0E1F937E0F4
:1043F000C9680029E8D1DFF85C810023D8F80010F3
:104400000C4617E005D00E681EB1D2F810C0664504
:104410000ED10E8BB0F802C0664509D123B1C86831
:10442000D860CC60C8F80010084600F0B9F817E072
:104430000B46C9680029E5D18089FFF789F9400753
:104440000ED4686801884088CDE90001AB686988AE
:10445000E8681A4601440C331032286900F0EEFF78
:104460003846BDE8FC47FFF79FBA002321461846AF
:1044700000F04BFF0028F3D1E6672046AC6100F066
:104480007BFB401D52D06878010707D5D4F89020F7
:1044900032B16FF005016069904701E0C00608D5B0
:1044A0002146294800F034FB21460220FFF77CF822
:1044B0003CE0B4F86C202AB1D4F8803013B1214626
:1044C000606998476A69A846C2B198F80000000779
:1044D00003D5507B40F001005073D4F8847027B1AD
:1044E000002321466069B84704E0002321461846AE
:1044F00000F00BFF10B1D8F81400E06798F8010045
:1045000080060ED5D4F884702FB100231A462146B8
:104510006069B84705E000231A462146184600F0B6
:10452000F4FE2046C8F8186000F02AF9AE61D9F808
:1045300004004C46002802D0FFF736FA6660BDE85A
:10454000FC870000B800002080000020A852002056
:10455000840000207C0000207CB504460022142149
:104560000120FFF7F7F8050018D0A06D401EFDF7F9
:1045700041FD034600222946204600F035FA062177
:104580000020CDE90001E37A221D21462846FEF7EE
:10459000EDFB2846BDE87C40FFF706BA7CBD000075
:1045A0007CB5374D06462878C10610D56868018865
:1045B0004088CDE900016988E868AB6801441A4683
:1045C00028690C331032401C00F038FF55E080079A
:1045D00053D5707CFFF738FB040044D0A86810F175
:1045E000100100D001692160318B218310F10C0191
:1045F0003CD0C06860606A68108820840320207402
:10460000E8680146401C6062E062D089A4F85C0062
:10461000A4F85400491E216670696061F069E06188
:10462000308940F299110840208116480168E16004
:104630000460204600F016FA208F211DFFF72EFCA3
:10464000208700200121CDE9000102460146122306
:104650002046FFF733FC05000AD000212046FFF773
:10466000A3FA28467CBD4FF0FF307CBD0020C1E797
:104670002046BDE87C4000F083B800207CBD0000EF
:10468000B80000208000002070B50446007C08B10E
:10469000002070BD0320FEF7BFFF0500F9D0606960
:1046A0006861208B288301202874208940F0020053
:1046B0002881E07AE872A07AA8723CB1206828606C
:1046C0000F48C168A14203D1C96808E00020F6E79D
:1046D000C16129B1C968A142FAD1E168C069C1606C
:1046E0000020E06021460220FEF75EFF0548E861F9
:1046F000034810300168E9600560284670BD00007D
:104700006C000020413C00084020FFF79DBA0000EB
:10471000F0B516484FF4004700F11001D0E90556F6
:104720000C684FF4805C4188491C89B24180B942D1
:1047300001D3A0F802C02946438803E00A8B9A42BD
:10474000F1D0C9680029F9D1324603E0118B9942B2
:10475000E9D0D268002AF9D1214603E00A8B9A42B7
:10476000E1D0C9680029F9D198B2F0BD6C000020F1
:104770000249D1E901021044486070476C000020F2
:104780002DE9F04704466A480068A04202D10020A3
:10479000BDE8F087B4F85C00B4F85210884200D34A
:1047A0000846814694F82200656F80070FD54DB109
:1047B00028694068FEF7CAFFE16C401AA9890144E4
:1047C000494504D92046BDE8F04700F0ADBEA66FCC
:1047D0004FF0000A0EB982E0064630680028FBD18F
:1047E0007DE028698089FEF7B3FFA06F78B194F867
:1047F000221011F0440F0AD1606F28B1026832B95B
:104800008089228F904202D211F0A00F75D02868C3
:104810006067207C02280DD01020FDF7EDFB0146DB
:10482000286982891143818194F8220020F00300D5
:1048300084F822002146284600F07CF82869406868
:10484000FEF784FF074628698089FEF781FF80070D
:1048500000D00120A98938440844A16D091A00D567
:10486000A06528698089FEF773FF800701D00121C8
:1048700000E00021A88908182DD0C5F800A0A06F7D
:1048800068B128694068FEF761FF074630694068F3
:10489000FEF75CFF381A1BD504F1780004E0A56729
:1048A00017E000BFD8F800008046006850B10069EA
:1048B0004068FEF74BFF074628694068FEF746FF51
:1048C000381AEFD4D8F800002860C8F8005005E086
:1048D00035602E4602E0284600F0FEFD656F0DB300
:1048E00028694068FEF732FFE16C401AA98901444B
:1048F00049457FF676AF01E0FFE79DB194F89C0053
:1049000080B928694068FEF721FFE16C401AA98947
:104910000844B4F85C10884204D90120C4F898A077
:1049200084F89C0014F8220F20F0800020702EE7FD
:10493000D00000207CB505460C46486AFDF75AFBBE
:1049400029698860608DFDF757FB2969C881618DF1
:10495000606A0844E0622E69A87B1436C00703D061
:104960001F48FDF747FB30600CB1206840B9201D9F
:10497000FEF742FC002831D0011D08D040682060BD
:10498000B4F936004FF00006401C02D002E00020CF
:10499000F5E7E686E06B38B912480068E0632869FD
:1049A0004068FEF7D3FE2064696828694A68801A67
:1049B0004A89121A4A8169680A89101A0881696845
:1049C0002869221D4860286906210682A07ACDE95F
:1049D0000001E37A21466868FEF7C8F97CBD000053
:1049E000B4050402740000202DE9F0410546164686
:1049F0001F46008B4C68FDF7FFFA2080288CFDF7DE
:104A0000FBFA60806760686AFDF7F4FAA0604FF611
:104A1000C070FDF7F1FAA18900EA01071020FDF747
:104A2000EBFA0743A781688DFDF7E6FAE0810027DE
:104A30006782A089FEF78CFEF11706EB9171891051
:104A4000090300F03F0001F5A041084380B2FDF7E3
:104A5000D3FAA0812782698D686A0844E8622046FB
:104A6000BDE8F08170B51D4E0546706800F1140474
:104A70008089FEF76DFE0521B1EB103F1DD27068F5
:104A80008089FEF765FE6FF0040101EB10308004B1
:104A9000000C002140F2B4520DE0635C002B0CD0FE
:104AA000012B0BD0022B04EB010309D05B78002B08
:104AB00003D0194489B28142EFD370BD491CF9E794
:104AC0005E78042EF9D1091D8142F6D85B885BBA65
:104AD000934200D803B913462B87EBE7B8000020B8
:104AE00070B50446007C002811D00A280FD0012898
:104AF0000DD0E06F002510B1FEF756FFE567606F3F
:104B000000F0FAFCA06F00F0F7FC6567A56770BDC8
:104B100070B50C460168A14202D1C96801600BE082
:104B2000114806E0C968A14203D1C069E168C160CB
:104B300002E0C1610029F5D100252046E560FFF7BC
:104B4000CFFF207C0A280CD001280AD094F822003C
:104B5000C10706D040F0020084F822002046FFF78B
:104B60000FFE257470BD00006C00002000F13400C1
:104B700081654270704700002DE9FC5FCD4D044611
:104B8000287841071DD5207C022815D0606AE96885
:104B90000A1A15D4228D1044081A002810DC6878EF
:104BA00040F00800687014F8220F20F00100207017
:104BB0006FF00500BDE8FC9FA06D29698842EED02A
:104BC00075E180070ED5207C02280BD0032809D080
:104BD00094F8220040F0020084F822002046FFF7FB
:104BE000CFFD64E1B4484FF0000A0068206384F808
:104BF0009DA02046FFF736FF207CDFF8C082801E94
:104C0000AF4FB04E4FF0040B4FF00A090828D7D22F
:104C1000DFE800F00468BFC3F0BFEFEE2878C106FC
:104C2000CED580074ED5A06F00694068FEF78EFD97
:104C30002A69401C904242D1B4F86E00401CA4F88E
:104C40006E00E8680146401C6062E264E0626868E9
:104C5000491EC089A4F85C00216684F810B0208F3A
:104C6000211DFFF71BF900EB800120874900A4F804
:104C70005410B4F85210012900D1400004F150043E
:104C80006080208CA0F101002084A06A0168A162EC
:104C9000A4F1500479B1A4F836A084F84AA000BF6A
:104CA00000F01AFCD4F88830002B91D00022214665
:104CB000606998478CE74FF0FF31E186F0E728788C
:104CC000C0068ED5686801884088CDE90001AB68D0
:104CD0006988E8681A46014403F10C0302F11002E6
:104CE000286948E02878C10648D5E16C2869A0EB1E
:104CF0000101491E33D4A16D411A00292FDC84F82B
:104D000010B0E3695BB1002221466069984730B179
:104D100001212046FEF748FF6FF004004AE7B4F88F
:104D20005260204600F0D0F8B4F86C0010B1401E7C
:104D3000A4F86C00208F012E01D14FEA4000A4F8A6
:104D400052006878800618D594F8220040F00200DE
:104D500084F822002046FFF713FD07205DE0696814
:104D60000A884988CDE900126A88E968AB6811446D
:104D70001A460C33103200F061FB98E0800707D52B
:104D8000606AE968401E884202D1204600F0EDFAD0
:104D90008DE0204600F098F8D3E7204600F094F824
:104DA00068788006002828784FEAC0602EDA00284C
:104DB00021DAA06D296988421DD194F8220040F0C3
:104DC000020084F822002046FFF7DAFC2046FFF7B5
:104DD00087FE3868A04202D1C068386051E0306078
:104DE000C0B3C068A042FAD13168E068C86048E04A
:104DF0004FE030E013E094F8220040F0020084F825
:104E000022002046FFF7BCFC082006E000284EDA0E
:104E1000A06D296988424AD10620207447E02046C7
:104E200000F052F86878800641D594F8220040F0EE
:104E3000020084F822002046FFF7A2FC2046FFF77C
:104E40004FFE3868A042C7D0306018B1C068A04299
:104E5000FAD1C9E715E0204600F036F82878C006F8
:104E600025D5A06D2969884221D12046FFF738FE5B
:104E70003868A042B0D0306018B1C068A042FAD102
:104E8000B2E784F81090D8F80010E160C8F800404C
:104E90000DE0204600F018F82878C00607D5A06D70
:104EA0002969884203D1687840F0100068700020BA
:104EB00080E60000B800002074000020840000207C
:104EC00080000020880000202DE9F047FA4D0446BC
:104ED0004FF000062878C0067DD52846B4F85C80DF
:104EE000616ED4F860C0EA684368006908EB0109A4
:104EF000BCEB020708D4944501D10F1A04D48142B7
:104F00000DD1D98941450AD9D989A4F85C10C4E9E1
:104F1000182021B194F89C1009B184F89C60E26CCF
:104F2000811A00292DDCA4F86C60698831BBB4F8C3
:104F30005C30616E0B444B4520D1B4F9361000292A
:104F40001CDB82421AD194F850000146401C884272
:104F500001D984F8500094F85000032809D9B4F816
:104F60005210208F084480B2884201D9A4F8520020
:104F7000A7E002D1204600F01FFAA2E084F85060BA
:104F80009FE04A1E7CD4A26D821A002A78DC94F835
:104F90002220530707D522F0040204F8222F628E44
:104FA0002286A4F1220404F13404A675628AB4F9BD
:104FB000103002EBE302A2822187628F11446187E5
:104FC0002677A06114F8240CA4F13404042835D306
:104FD000B4F8520000E0B0E0B4F854108842218FD9
:104FE00004D2014489B2814207D827E0494391FBAA
:104FF000F0F1014489B2884220D2A4F852101DE099
:105000003868A0677868FEF74AFCB4F86C0050B1C5
:1050100038698089FEF79CFBC00704D0B4F86C00A7
:10502000401EA4F86C007868FEF739FCB4F87010E4
:10503000081AA4F87000384600F04EFAA06FD8B1F4
:1050400000694068FEF782FB0746A06F006980890F
:10505000FEF77EFB800700D001203844A76FB98996
:1050600008442969401A0028CADD2FB1A4F8366027
:1050700084F8346025E003E04FF0FF30E086F7E786
:10508000A4F86C601DE0386860677868FEF707FC7C
:10509000B4F86C0050B138698089FEF759FBC0073D
:1050A00004D0B4F86C00401EA4F86C007868FEF7D9
:1050B000F6FBB4F87010081AA4F87000384600F037
:1050C0000BFA606FB8B100694068FEF73FFB074616
:1050D000606F00698089FEF73BFB800700D00120EC
:1050E0003844676FB98901442869411A03D4A16D16
:1050F000401A0028C7DDE06BF8B1216C2A69891AD3
:105100001BD56E490968081AB4F94410A0EBE100F8
:1051100000B2014409B2A4F84410002801DA404268
:1051200000B2B4F94620A0EBA2001044A4F8460057
:1051300000EBE100A4F84800E6636B88002B7CD00C
:10514000616AEA68DFF87881A1EB0200471E2BD480
:105150001344CB1A5B1C002B26DCD8F80470798929
:1051600081420ADA3989091A89B203E039817E81DC
:105170003F68801A7A898242F8DB404201B23846A1
:10518000FEF734FC7968C8F80810616AEB68B8F873
:105190000C20A1EB0303A2EB0302A8F80C20E960AA
:1051A000D8F8100041600AE0501A0CD594F822009B
:1051B00040F0020084F822002046FFF7E1FA606A1E
:1051C000E968081A77D4218D606A4218E9688A1A5A
:1051D000521C002A7CDC88427AD1D8F8100047465D
:1051E0008089FEF7B5FA800701D0012100E0002197
:1051F000B889B846084480B26880218D814237D290
:10520000D8F810008089FEF7A3FAC00712D04FF635
:10521000C070FCF7F1FE0746D8F8100080890740FF
:10522000FEF796FA00F03E00FCF7E6FE0743D8F8DA
:1052300010008781208D474600E04EE0A8F80C0062
:10524000D8F810008089FEF783FA800702D5B88964
:10525000401EB881B9897868FEF7F8FB3869808903
:10526000FEF776FA800700D00120B98908446880EB
:10527000E96880B201446162218D081A20852046C8
:1052800000F0DCFAD8F8041040460A890AB16961D6
:105290004660D8F810008089FEF75AFAC00703D09C
:1052A000687840F02000687094F82200C10709D0A7
:1052B00020F001001DE00BE0B80000207400002089
:1052C000A852002040F0010084F82200BDE8F087D9
:1052D0002046BDE8F04700F027B9606AE9680A1A7D
:1052E00005D4228D1044081A401C0028EEDD94F8E5
:1052F000220040F0020084F822002046BDE8F0477A
:10530000FFF73EBAC0F88410704710B50846140085
:1053100006D0218900F00BF82046FEF745FB00E09F
:105320000BB1002010BDBDE81040FEF767BD10B501
:105330000446008D084480B240F6683120858842DA
:1053400000D92185204600F079FA40F2DA2188421E
:105350000ADB94F8220040F0020084F82200204684
:10536000BDE81040FFF70CBA10BD2DE9F041866F83
:105370000446002E1ED0306804F17405A06700E0DA
:105380002D68286850B100694068FEF7DFF90746CC
:1053900030694068FEF7DAF9381AF1D428683060CD
:1053A00004F13C042E60A07B00F10100A0734FF0DB
:1053B00000002060BDE8F08110B50446806F002831
:1053C00024D094F82200400720D42046FFF7CDFFD8
:1053D000B4F85210B4F85C00814201D9400800E0F2
:1053E0004808A4F8540081B2208FB1EB400F02D2DC
:1053F0004100A4F8541089B200EB400004F12204EB
:1054000008442086207840F00400207010BD816F91
:10541000002912D000E011460A68002AFBD1426F31
:105420000A600022816FC0E91D1290F84A10491CE1
:1054300080F84A10C263FFF7A3B970472DE9FC5FFB
:105440008346DDE90C9A0E46174698460022142141
:105450000120FEF77FF905003CD048466C68FCF758
:10546000CBFD20805046FCF7C7FD60805846FCF716
:10547000C1FD60603046FCF7BDFDA0604FF6C07016
:10548000FCF7BAFDA18900EA01061420FCF7B4FD7F
:105490000643A68140F66830FCF7AEFDE0810026A9
:1054A0006682A089FEF754F900F03F0040F4A04066
:1054B000FCF7A2FDA08126820620CDE90060FF2333
:1054C000424639462846FDF751FC2846BDE8FC5FB8
:1054D000FEF76ABABDE8FC9F70B504004FF0000506
:1054E00008D0606810B1FEF75FFA05462146042037
:1054F000FEF75AF8284670BD70B5002405E005682F
:10550000FFF7EAFF2044C4B228460028F7D120461E
:1055100070BD1CB500230122CDE900230B460022FB
:105520001146FEF7CBFC1CBD7CB504460026324676
:1055300014210120FEF70EF905001DD094F8220079
:1055400020F0030084F82200A06DFCF753FD034611
:10555000324629462046FFF747FA0621A07ACDE9D0
:105560000001E37A221D21462846FDF7FFFB28466D
:10557000FEF71AFA00207CBD6FF001007CBDC0F878
:1055800080107047417470472DE9FC47844E4FF4FA
:10559000FA7AB068401C0027B060B9467469DEE052
:1055A000217C4FF00008022903D194F84A00062814
:1055B0001AD094F84A200C2A18D094F89C00B8B15C
:1055C000D4F89810774A491CC4F89810825C91422C
:1055D00040D3C4F89890072802D2401C84F89C005D
:1055E000204600F05DF935E001253EE0012531E07F
:1055F000B4F93600002801DB401CE086A06F48B3F8
:10560000B4F93600B4F94830984223DB02290AD0B5
:10561000B4F84600B4F9441000EBE1006249895C3B
:105620008840A4F84800A4F83690B4F85200B4F8C2
:105630005C10884200D308464108A4F85410208F1B
:10564000814202D24100A4F85410A4F8520020462E
:10565000FFF7DDFE207C062807D1216BB068401AD9
:10566000282802D905F10105EDB22089000727D5C8
:10567000207C042801D0072822D14C48D4F894106B
:10568000B3680844B0FBFAF2206B181A824204D2C5
:105690006D1CEDB24FF0010812E094F89D2042F22B
:1056A0009F435A4301EBC201B1FBFAF1814207D299
:1056B0002046FEF751FF94F89D00401C84F89D00A1
:1056C000207C032802D0092808D00CE0216BB068A8
:1056D000401A282807D96D1CEDB204E0216BB06890
:1056E000401AF028F7D815B32046FFF7F9F9E0681B
:1056F0000FB1F86000E07061D4F890201AB16FF03B
:10570000040160699047B8F1000F09D0218C208B0B
:10571000CDE90001231D2246616AA06DFFF78EFED0
:1057200021460220E568FDF73FFF2C4617E014F8FC
:10573000340F401CC0B220706178A4F13404884258
:105740000BD384F83490D4F88C201AB121466069C8
:10575000904710B92046FFF713F82746E4684FF04A
:105760000005002C7FF41CAFB46915E0216BB06814
:10577000401AF02806D92046FFF7B2F9E06825B1B3
:10578000E86003E02546E46806E0B06121460220B7
:10579000E768FDF709FF3C46002CE7D1BDE8FC8730
:1057A0006C00002043E500084BE50008B84C0A00F7
:1057B0007CB5184C227851072AD421469307498892
:1057C00016D5436AE268D51A17D4058D2B44D31A2F
:1057D000002B12DC6068114403884088CDE9000387
:1057E000A36820691A460C331032FFF727FE0FE03A
:1057F000D20702D0084A1268026349B190F8221019
:1058000041F0020180F82210BDE87C40FEF7B8BFED
:1058100000207CBDB80000207400002010B5FEF709
:10582000F1FC05480178491C0170C80703D0BDE8A8
:105830001040FFF7A9BE10BD6C00002070B5068DAA
:10584000456A018FAC1940F2B453C26A994200D83C
:105850000B4602EB0301611A02D44685A01A70BD03
:10586000A91A002901DD002100E0511B418500201B
:1058700070BD1CB5047C042C08D0072C06D0022C6B
:1058800004D0032C02D06FF007001CBD32B10024FD
:10589000CDE900342346FEF711FB1CBD00201CBDE2
:1058A0002DE9FC41846F054614B96C6F002C3DD086
:1058B00020698089FDF74CFFC00701D0A089F8B1AD
:1058C0000027152100220120FDF744FF06002DD0FE
:1058D00020690022314643682846FFF785F8804654
:1058E0008FB14FF6C070FCF787FBB8F80C1000EAD8
:1058F00001041120FCF780FB0443A8F80C4006E0EB
:1059000001271421DEE7A068716800780875062178
:105910000020CDE90001EB7A2A1D29463046FDF72B
:1059200025FA3046BDE8FC41FEF73EB8BDE8FC81F3
:10593000F0B5154B00251C6803E0A04200D10125FD
:10594000E468002CF9D101B109680160A2B91968B5
:105950004FF480520C4647F6FF7607E04F8A974295
:1059600003D1521C92B2214600E0C96821B1B24273
:10597000F4D16FF00A00F0BD428215B91968C16018
:1059800018600020F0BD0000D40000202DE9F84F81
:105990004568064689462888FDF7DAFEC0F30321EC
:1059A0004FF0080B0BEB8100318988427BD82888A7
:1059B000FDF7CEFEC0F30320800041423046FEF7E3
:1059C00015F800286FD1494605F110007468FDF7FD
:1059D0005BF800902088FDF7BBFE80466088FDF7ED
:1059E000B7FE00240246442807D0DFF800A10020BB
:1059F0000146DAF80040A44639E0B8F1430F3AD145
:105A0000D9F8200080B3406870B3011D04D041680C
:105A100011B1EA6891422ED1044631E0638A934283
:105A200023D1009B13B93CB123682BB123682F69A4
:105A3000BB4201D0009BC3B119B9237C5B0700D4E2
:105A40002146A78A474510D1231D04D0636813B1AE
:105A5000EF68BB4209D128B1E268C260C4F80CC04B
:105A6000CAF800402CB10BE005E02046E468002CA9
:105A7000D4D10C0004D1D9F804002969884230D16E
:105A80006FF007013046FDF7B1FF60B964B1A76957
:105A90004FB1CDF8008005F10C0332462146E06994
:105AA000B847BDE8F88F1CE00098D0B94FF07040BF
:105AB000FDF74CFE296900EA01044FF06040FDF754
:105AC00045FE84420DD02888FDF742FEC0F3032135
:105AD0000BEB81013046FDF789FF03213046FCF7CF
